:20000000004000204D1C010001C9011001C9011001C9011001C9011001C9011001C90110F4
:1C00200001C9011001C9011001C9011001C9011001C9011001C901103FC9011089
:20003C0080B54FF4FC720FF278011A480CF034FF012119484174002202210270C17601BDCF
:20005C002DE9F0410FF2502214493820136854689568D6681769D2F814C0D2F818E0D2F8F9
:20007C001C800B604C608D60CE600F61C1F814C0C1F818E0C1F81C8020322031401EE5D1DC
:20009C0050689368D46812680A6048608B60CC60BDE8F081480400215903002100C00021D1
:2000BC00410500217D0500212D06002170B51D46004C204787B2000010B5014800470000FD
:2000DC00D509000070B5614C6148254650358047022809D14034E1885E4A914204D1E97C5E
:2000FC00890601D4911DE18070BD70B557495A4A084650300378002B10D08379012B0DD181
:20011C00037C5B09DB0709D0097D544DC1746C7F20202043687790476C7770BDFF21C17420
:20013C00904770BD10B54E48484C804702280ED121464031CA88474B9A4208D1CA7C5209CE
:20015C00D20704D0227D920601D49A1DCA8010BD70B53E4843494030C07C4009C00707D032
:20017C003E4D41482C8B2043288388472C8370BD884770BD10B53B48344CAC388047214609
:20019C0053310A789309DB0705D04034A2730A7803231A430A7010BD2C4940310871182876
:2001BC0012D004DC0A280BD00B2804D10AE025280CD02A280CD02D4980004018C0687047DE
:2001DC002B4870472B4870472B4870472B4870472B48704770B504461C484E252D5CAE09AB
:2001FC00F60716D0067D3007000F052803D00120054202D00DE00220FAE7E80905D07006D1
:20021C0003D54868800F012803D05B085B0052085200062B03D01020022B11D011E0FB20F7
:20023C00024002232046FFF741FF002807DAC100611A2039497E1422114200D1002070BD93
:20025C00024303432046FFF731FF70BD4401002137CB000004140000EBC80000A800002142
:20027C00F5B4000053AD00002020000080DF00001D050021F9040021CD040021930400210F
:20029C006D04002110B5034CFFF716FF20680028FAD110BD0011044068610000F825F965B0
:2002BC00F9754500450045002600260057A3520052004C00401F401F401F3F000000000053
:2002DC00304000400140034007400F404F40CF40CF41CF43CF47CF4FCF3FCF2FCF1FCF0F6C
:2002FC00000000000000000000000F00080000003F00000040003F000000040068000E0093
:20031C00DC00060043001A00050000000000020000000000000000000400C00000000400B3
:20033C00C000000007000000000000000000000000000000000000003040004001400340A6
:20035C0007400F404F40CF40CF7FCF6FCF5FCF4FCF3FCF2FCF1FCF0F00000000000000009D
:20037C0050C00091007070C00091007082312100319110B10070018101B100A1823132910D
:20039C0010B101911110418141227740F106007051C0019130181039833108D01831416FD1
:2003BC003100319110B18314141683680070251050C00091F4C340C12014036F3110410497
:2003DC005082F0229840512622C082312100319110B163393110410482C08231210031919B
:2003FC0010B163393110A2C082312100319110B150101531051405920070676452C03110A6
:20041C0031066131C1026A6412C13110213971065131E1026A64007051C0019101CCE2C0CC
:20043C006A64676411C1C2C06A6450B054B0007140804022D6440022C94060B08180111EC9
:20045C00C944007054A064B0F0800022C9404012B09032B070C1DF6811C122C16A6470C1C0
:20047C00E46851C00191E2C0823160820200329110B130C2EE68538253395339B16460C347
:20049C00F4688012B09032B00070676401C122C16A6401C1C2C06A645382B164C012B09074
:2004BC0032B00070676472C281C06A6422C111C16A6402C011C16A6462C031C36A6462C3D2
:2004DC0011C16A6402C311C16A6453825339B164E2C36F6411221C4142C281C86A6452C24E
:2004FC0011C16A6472C2E1CE6A6402C281C86A6402C201C86A64B0C030690070676442C211
:20051C0001C86A6452C211C06A6472C2E1C06A6402C001C16A6462C001C36A6422C101C127
:20053C006A6462C301C16A6402C301C16A645382B16400708180111E5C4150B054B000712B
:20055C00408040225D4154A064B0F1800122514500700022514160B04E61000000000000AA
:20057C000000000000000000067305720B720E7250B00071818060B050A09280F0EFF1928C
:20059C0002936A6741228C458080F1C11004301601110114016CB561B661B761B861B9618D
:2005BC00BA61BB61BD61BF61C161C36126632D63F0C002043231412A121432160111211412
:2005DC00016CDA61C561E061C761CB61B561B561B561F461C561FA61C761CB61B561B56104
:2005FC00B561F461C561FA61C761CB61B561B561B561E761C561ED61C761CB61B561B56121
:20061C00B561CF61CF61CF61CF61CF61CF61C064CF61F964CF610665CF613265CF6174676A
:20063C00CF611166CF61C0644E65F964CF61066511663265CF618280E0DFF2926A67B0B044
:20065C00D661B1B00673057230B06C61D0CF6A6784C203C0C0C37C64207851788278E378B7
:20067C001579B6780062C0CF6A6784C203C0C0C37C64307861789278F3781579C678006250
:20069C00B0CF6A6784C203C0C0C37C6440787178A27803791579D678109221923292439281
:2006BC005492659256911FC0FF914039F00601101031101400927067CF61E3B054A0F08076
:2006DC0050221A4640800022BE461262E3A000C86091598150B0918041228E46A0CF6A6734
:2006FC0012828231823942398B641282F2062F101F312F141682D622334640C1346200C5AF
:20071C0020140D6F6D39DE10F4C34E0482C082312E006D39A2C082312D001A828A39FA0606
:20073C002082803180390BC00B18BC10AC18038239149B141082F0060110103110145181C2
:20075C0010140C14C622C94631D0C1266462021011C0013010C00118021882312100C126C2
:20077C00919103B013B063B053B041800122BE46B481C491D581B51C774E95186591F0803E
:20079C00102269428C623D9110B13E9110B1E08000228146E6228142E0B0951865910F926B
:2007BC005981F914F0805022114210228C464D6390CF6A6763B052A03082F2C0200402107E
:2007DC0011C0013010C00118021882312100C1269191919113B003B063B053B064B054B055
:2007FC00007141800122BE4663B064B0F08050221142B181C191D1819118619131B0A462D0
:20081C002967E0A059810582591480C0007163B0BA6A6962E3A0018262818231823D80EF61
:20083C00F19202936A6703A0007037824739873930828039F006021011C0013010C0011849
:20085C00021882312100C126819102B012B030824039F006021011C0013010C001180218E9
:20087C0082312100C126919103B013B063B053B0007153A062B052B041800122BE46A4816E
:20089C00C491D581B51CFE4E95186591F0801022F0428C62B481C491D4814518751C084FEB
:2008BC00F0801022F0428C623D9110B13E9110B1E08000221247E6221243E0B065910F92DC
:2008DC005981F914F0805022114210228C4630632967E0A0598105825914F0C0007162B038
:2008FC00226BF062A2808B64CF6112824239F2068B6050B00071CF6170CF6A674082418096
:20091C000122BE46A481C491D58195186591F18011228C46336B41800122BE46A481C491AB
:20093C00D581C51C1C4B95186591F08010223F438C6260CF6A67408241800122BE46B48169
:20095C00C491D58195186591F18011228C46506B41800122BE46B481C491D581C51CB44A55
:20097C0095186591F08010225C438C62E092D08200226B47C0B20070A080F022874330B033
:20099C0002C1623101C0A080001E8043F022814380F86031603981632010101A136F236E5A
:2009BC0011161216826B00702DE9F84FDFF82085DFF8201588F80000002008600921DFF881
:2009DC00180501700D2141804FF408718180DFF80C05DFF80C1501608A7EDFF80805027022
:2009FC00FF2ACB7E437008BFFF2B0D7F85704E7FC6708F7F0771C97F417115D1FF2D08BFE8
:200A1C00FF2E11D1FF2F08BFFF290DD1DFF8D8140A7802704A7842708A788270CA78C2701D
:200A3C000A79027149794171DFF8C01402780A70FF2542784A7082788A70C278CA70027916
:200A5C000A714079DFF8A82448710021DFF8A404057045708570C570057145711180DFF862
:200A7C009804DFF89814466BDFF894247078087031781170B078DFF88C14087071690879FF
:200A9C00DFF88414421E0A70F078DFF880140870B069DFF87C14086008B913F0C3FEF069E0
:200ABC00DFF87044206008B913F0BCFE2068DFF8687401688847216851F8042F38469047C4
:200ADC00DFF85804DFF858143862DFF858047862306A086008B913F0A5FE706ADFF8481467
:200AFC00086008B913F09EFEDFF840B4DFF840649BF8040014F04AFA306008B900F049B9AA
:200B1C009BF80500DFF82C7414F040FA386008B930683BE19BF80600DFF81C4414F036FA5B
:200B3C00206020B9306814F039FA38682EE19BF80700DFF8089414F029FAC9F8000038B9DC
:200B5C00306814F02BFA386814F028FA20681DE1DFF8AC130A789BF80000DFF8E4A3921CB5
:200B7C00504380B214F012FACAF8080058B9306814F014FA386814F011FA206814F00EFABC
:200B9C00D9F8000002E1DFF878030078002800F00581BBF80210DFF8ACB3484380B214F061
:200BBC00F5F9CBF8040078B9306814F0F7F9386814F0F4F9206814F0F1F9D9F8000014F0CB
:200BDC00EDF9DAF80800E1E0CD48007814F0DEF9DD49086098B9306814F0E0F9386814F018
:200BFC00DDF9206814F0DAF9D9F8000014F0D6F9DAF8080014F0D2F9DBF80400C6E0C048D2
:200C1C0000781C21484314F0C1F9D04A1060B0B9306814F0C3F9386814F0C0F9206814F086
:200C3C00BDF9D9F8000014F0B9F9DAF8080014F0B5F9DBF8040014F0B1F9C348A5E0B048C2
:200C5C000078400114F0A2F9C1490860D8B9306814F0A4F9386814F0A1F9206814F09EF983
:200C7C00D9F8000014F09AF9DAF8080014F096F9DBF8040014F092F9B348006814F08EF92F
:200C9C00B249086882E09E480078000114F07EF9B0490860F0B9306814F080F9386814F0CE
:200CBC007DF9206814F07AF9D9F8000014F076F9DAF8080014F072F9DBF8040014F06EF9D4
:200CDC00A148006814F06AF9A049086814F066F99F485AE08A480078000114F057F99E49DD
:200CFC00086018BB306814F059F9386814F056F9206814F053F9D9F8000014F04FF9DAF8F5
:200D1C00080014F04BF9DBF8040014F047F98E48006814F043F98D49086814F03FF98C4878
:200D3C00006814F03BF98B4908682FE0744800783021484314F02AF9884A106070BB306868
:200D5C0014F02CF9386814F029F9206814F026F9D9F8000014F022F9DAF8080014F01EF9F8
:200D7C00DBF8040014F01AF97748006814F016F97649086814F012F97548006814F00EF9C1
:200D9C007449086814F00AF97348006814F006F9002013F047FD4FF4804192E03168012046
:200DBC0008713068057331684D73306885733168CD7330680574002031684D743268D07265
:200DDC00A0223168487103213068C280017207203168487200203268907228213068418298
:200DFC000121C176002031684877326882F85E00012031680877326882F85D0039680871D0
:200E1C003868057339684D73386885733968CD7338680574002039684D743A68D0723968A4
:200E3C0048713A6890724FF4207039680022C88008818A7401213A68D17421680D73226838
:200E5C00557321688D732268D57321680D740021226855742368D9720121226811710021B0
:200E7C00236859712168C8800881002088722168887405202268D0743948016888472A49E9
:200E9C000A6805461068804727490A6852F8043F0020984718481D4BC16818780A8831493F
:200EBC0002430A80284630490A6890470C212F4800F05EF80F4800F05FF800F061F84FF403
:200EDC00005198F80000BDE8F44F0AF09DBD00BF6E4F0020044F0020604E0020084F002085
:200EFC00B63F00502C4E0020E81200503C4E00200C4F0020344E00209C6A01006D4F002003
:200F1C007B4F00206B4F0020724F00206C4F0020F04E0020F44E00207C4B0020A94F010095
:200F3C00F84E0020B94F0100FC4E002070120020104F0020E01D0020184F0020E41D0020D6
:200F5C00A81D0020684E0020004F0020D81D0020DC1D0020884E00208C4E0020904E00202F
:200F7C00840D0020544F0020880D0020F84D0020DFF800F0E5710110DFF800F01D6E011036
:200F9C00DFF800F04D7101102DE9F04106465FEA010808BFDFF8408010480078C8B1104CB7
:200FBC0007460025B54204D02068C0698047064209D02068406841460246204690470028DB
:200FDC0018BF201C06D17F1E04F10C0405F10105E8D10020BDE8F0813F680100466A010025
:040FFC00046A010082
:20100000B41200001810000015AB0110FDB301106DC00110FDAE011099B5011000000000F7
:08102000000000002D0000009B
:20102800B01200003C100000B1C00110A9BF011067C0011069B80110000000000000000035
:041048003000000074
:20104C00B012000060100000BDC00110CDB30110D9BD01106DB3011000000000000000005B
:04106C00310000004F
:20107000000000009812002004000000000000000000000020000000E8C901103000000080
:2010900028100000A01200200400000000000000000000000C000000D8CA0110180000005B
:2010B0004C100000A812002004000000000000000000000024000000F0CA011018000000DF
:2010D00000000000B01200200400000000000000000000001000000018CA01102C000000EB
:2010F00000100000C0120020040000000000000000000000200000006CCA0110240000004F
:20111000FFFFFFFFC81200200400000000000000000000002800000090CA0110240000000E
:20113000FFFFFFFFD01200200400000000000000000000001400000008CB0110180000008D
:20115000FFFFFFFFD812002004000000000000000000000058000000B4C90110340000005B
:20117000FFFFFFFFE01200200400000000000000000000001000000020CB01101800000029
:20119000FFFFFFFFE81200200400000000000000000000001C000000B4CA01102400000056
:2011B000FFFFFFFFF01200200400000000000000000000003800000044CA0110280000007E
:2011D000FFFFFFFFF81200200400000000000000000000005400000078C901103C000000F3
:0811F00001000000886A010003
:0411F80001000000F2
:0411FC0000000E00E1
:0412000000000F00DB
:0412040032000000B4
:0412080001000000E1
:04120C008C11002021
:0412100000020000D8
:0412140000000000D6
:0412180001C90110F7
:04121C0000000000CE
:0412200000000000CA
:0412240008000000BE
:0412280000002200A0
:04122C003C10002052
:0412300000000000BA
:0412340000000000B6
:0412380008000000AA
:04123C00301100204D
:0412400000000000AA
:0412440000000000A6
:04124800080000009A
:04124C00000000009E
:04125000000000009A
:041254000000000096
:041258000000000092
:04125C00010000008D
:04126000A4100020B6
:041264000600000080
:041268000100000081
:04126C00240F00202B
:04127000000000007A
:041274000000000076
:041278000002000070
:04127C00000000006E
:02128000290043
:02128200010069
:02128400250043
:02128600300036
:02128800310033
:02128A002D0035
:02128C0001005F
:01128E00015E
:0812900003000000286A0100C0
:0812980000000000000000004E
:0412A0000000010049
:0412A4000000030043
:0412A80013C401105A
:0412AC005B4D010095
:0412B000B812000070
:0412B400B81200006C
:0412B8000000000032
:0412BC003C120020C0
:0412C000D74E010004
:0412C4002000000006
:0412C800AC6901000C
:0412CC00F0670100C6
:0412D00029C101101F
:0412D400871001007E
:0412D800E31401001A
:0412DC00A1C7011095
:0412E000A3C701108F
:0412E4000000000006
:0412E800D1690100C7
:0412EC005C6601003B
:0412F000746601001F
:0412F400446601004B
:0212F8000200F2
:0212FA000900E9
:0212FC000100EF
:0212FE000000EE
:0113000001EB
:04130400654E010031
:04130800F12E0100C1
:04130C002542010075
:04131000A132010005
:041314006B33010036
:04131800F11A0100C5
:04131C00E1ED0000FF
:04132000A1500100D7
:0413240009060100B5
:0413280015C70110D4
:04132C0025C70110C0
:201330002DE9F04F0D4685B0804615F8010BDFF87C27DFF87CB78DF8000008F1FD01801E43
:20135000152808F59E7408F20D1A08F1E70908F5B07608F5C67700F29583DFE810F00701F1
:20137000930316004400480073039303BF0093037B00D1007F0086000F01DC011D02FD006A
:201390007D03E002E0022402960208F1A00608222946304614F0F6FB05460821304614F0AA
:2013B000EDFB08F1980704222946384614F0EAFB0421384614F0E2FB00204142414408EB02
:2013D000000291F89F1082F8BF10401C0828F4DB08F1C702314608F1D70014F0CBFB01202B
:2013F00089F800005FE3012089F813005BE399F80D1099F81600012900F010000DD130B1E9
:20141000002060712168A07949080EF00BFC98F80600002114F0AAFB0FE040B12268DFF832
:20143000940608F5A1735208414613F0E7FE98F806000122002114F095FB012088F86600B3
:20145000404610F0B4FD08F166010120887189F80F0028E3012089F8100024E3287889F856
:201470000E00012089F814001DE399F8120001281CD199F80030012B4AD099F81600030727
:2014900004D40E218AF80C100721F8E1002002F109062B5C365C33432B54561C365C3340EF
:2014B0000B54401C0828F2DB0921E8E199F81600030701D40E217BE1002002F109062B5CB7
:2014D000365C33432B54561C365C33400B54401C0828F2DB40460EF06DFDDAE2002002F189
:2014F00009042B5C245C23432B54541C245C23400B54401C0828F2DB022089F81500D2E26C
:2015100099F81200012804BF99F80010012906D13D208AF80B0001208AF80A00C3E29AF8BC
:2015300000000128FAD015F8011B8AF803100222294608F5897014F025FB0146022208F5D5
:201550008A7014F01FFB01208AF800009AF802000028E3D10C2192E199F81600C10601D46D
:20157000122125E140460FF0EFFE92E228788AF80B00F02100208AF80A0007E199F81600C3
:20159000810707D410F0110F08BF0F2000F07C821A22F1E008F166010A7C012A04BF497C2E
:2015B0000F2910D008F16601497D19B108F166035A7C22B108F166031A7F012A05D14007C5
:2015D00058BF0F200FD52322D6E021B108F16601497C012904D008F186018A7A012A06D15B
:2015F000400758BF0F2040F14F822A22C4E02878697800EB0120A081E978A87800EB012021
:20161000E0816979287900EB01202082E979A87900EB01206082287A2075A97A687A00EB90
:201630000120E082297BE87A00EB01202083A97B687B00EB01206083297CE87B00EB012058
:20165000A083A97C687C00EB0120E083297DE87C00EB01202084A97D687D00EB012060842A
:2016700008F5AA700490E08A0390207D0290B8F808000190608A0090238AE289A1894046F8
:201690000DF032FB28B199F81600410773D40F218EE0E08908F186018880208AC880608A96
:2016B0000881022088F886000020488008F16601B8F83400C01DC88308F186008188B8F8DD
:2016D0003200814201BF08F18600C188B8F83400814206D108F186000189B8F8360081424D
:2016F00017D008F16601487D28B108F166020F219176FE21C3E0FC2140460EF05BF9608ABC
:201710000090238AE289A18998F8060014F026FAC9E10021B3E0AE78E8782F79AC7906EB8B
:201730000026687907EB0027E87905F10B0104EB00240491BBB2687AA97A00EB012080B2BE
:201750000390B2B2287A0290B8F808000190A0B200906978287800EB012081B240460DF0E0
:20177000C3FA58B199F81600410701D40F211FE040460FF0A7F81E220F2135E008F1860078
:2017900008F186018680CF8004810021404605B0BDE8F04F11F000BA2878307068787070E4
:2017B000012060727FE199F81700C10703D416218AF80C106AE108F16600417C16291ABF2B
:2017D000BA79012A23220ED0002918BF012909D00F291CBF017F01291EBF08F18600817A61
:2017F000012907D12A221621404605B0BDE8F04F11F0EEB96978287801F007010840287033
:20181000797B01401CBF481E0142F9720CD0490704D5B87B10B10421F97205E0F97A022091
:2018300001420CD14008FBD1F87AB97A884204BF0020F872F87A20B9002139811EE0F8721A
:20185000F2E7B8F83400C01D3881F87A042803D140460FF0F0FDB0830123F87AB97B38719B
:20187000B28B10F051FA0146308B884205D3B28BB97B3879012310F047FA788018214046EE
:2018900005B0BDE8F04F0EF095B86978287801F0070108402870F97A01401CBF481E0142C2
:2018B000F9720CD0490704D5B87B10B10421F97205E0F97A022001420DD14008FBD1F87A03
:2018D000B97A884204BF0020F872F87A28B90021B87A39810DE0F872F1E7B8F83400C01D5E
:2018F0003881F87A042803D140460FF0A4FDB083F87A3871B28BB97B3879012310F004FAF5
:201910000146308B884205D3B28BB97B3879012310F0FAF97880387B40F02000B0E02978AE
:20193000687801EB00217182A878E97800EB0120F0826979287900EB01203082E979A879F4
:2019500000EB0120B082B18AF089884288BF0846B97A042905D140F691229042B8BF4FF47B
:201970002960F28BF0839042B87A14BF01250025042803D140460FF05EFD04E0B089F18A44
:20199000884288BF0846B28BB083904214BF012100210D433089718A328B884288BF084660
:2019B000904214BF012100210D433083B28BB97B3879012310F0A8F90146308B884205D3A1
:2019D000B28BB97B3879012310F09EF978807189308A728B814288BF01467183914298F8C9
:2019F000063014BF0120002005438A4232490A6802EB4311728B8041121DC00F0A7610B14E
:201A1000404611F05BFB9DF80000142810D145B1F08B0090738BB28B318B98F8060014F095
:201A300099F8404605B0BDE8F04F15210CF00EBB1DB1387840F008003870397841F020018A
:201A5000397030E028780F2809D0122804D0142808D016280ED026E00020207123E00120F4
:201A7000207220E0387840F00200387040F01000387018E0387B40F00200387340F010008A
:201A9000387310E09DF800008AF80C0040460FF0A5F840B99BF8000005B0BDE8F04F4FF4EE
:201AB000804109F0B7BF05B0BDE8F08F641D00206E4F002011EC0000DC1D00202DE9F0472C
:201AD000040082B028D1002012F0B2FE24E020460EF0C3FBDAE1297C012940F0D481C07888
:201AF000002800F0D781B8F8020098F800104000A8F802004900B8F8040088F80010400065
:201B1000A8F804000121B8F808000001A8F80800297720460EF0D6FE04F16605687D002849
:201B300000F0BE81697CDFF8FC04002904F1860804F1EC0604F5897904F5A27A04F5C677D1
:201B5000C9D001293FD0022931D0032946D0062900F08A80072900F08C81082900F0B3808B
:201B7000092900F0BF800A2900F091800B2900F09B800C2900F0C1800F2900F0DC8011295D
:201B900000F00381122900F0D080142900F04E81162900F00881182900F02E81F02900F0A9
:201BB0008181FC295FD0FE2900F086818BE7297C01298CD1C078002800F0EE8020460EF0E1
:201BD00081FE162173E1297C012940F08981C078002818BF88F80A109BD185E1297C012970
:201BF00040F08681807850B10021A9719AF80200012804D18AF8021020460DF0DBFEB07BDD
:201C1000012809D100213160716088F80E000621204610F0C1FF7FE7F07B012818D120460A
:201C30000EF050FE002188F80E1001202870204610F0BDF90120A87100207073717AA07973
:201C500006291ABF00221A21002213F08BFF63E799F80500012844D0298B481E288380B24C
:201C7000002800F071811AE1287C012840F04A81B17A012917D120460EF024FE0020307202
:201C90003073F072B073B072F073707344E7287C012840F04681F17A012902BF002088F8BF
:201CB0000E000B21B4D036E1297C012940F042818078002800F042810321A9E70022222191
:201CD00013F050FFABE1287C012840F04681307C022804F1FD0240F04981A179002013F051
:201CF00035FF16E7297C012940F04B818078002800F04B81618CE1830BE7287C012804F2F6
:201D10000D1140F045810A78012A40F048814878012809D1B9F8022000920020CA78B9F8BE
:201D30000030A17913F00EFFF3E6297C012940F0478180782EE0287C012840F045819AF83E
:201D5000011001290BD19AF81C000F281CBF002012F06EFD00208AF80100002158E79AF87A
:201D70000200012808D100218AF8021023220F21204610F02DFFCFE69AF80000012840F0F3
:201D9000278100218AF8001042E7297C012940F02281C078002823D1298B481E288380B2C2
:201DB00000288FD07BE0287C012840F01881397B880648BF1821E7D4C80712D59AF81C00FA
:201DD00016281CBF002012F033FD387B00F0FE0038730023A1799AF81D0000220AF0E8FD4F
:201DF00097E6880740F1FF8001F0FD0139730023A17900221A20F1E7297C012940F0F98093
:201E1000C078002800F0FA80397BF87A40B98A060BD501F0DF013973BA7AA1791346DDE771
:201E300001F0DF0139730120B87172E6287C012840F0EB803878810604F5B37612D500F0DB
:201E5000DF00010738700AD500F0F7003870308B0090B38AF28A718AA07913F07BFE0020C1
:201E7000307056E6810740F1D48000F0FD003870F5E720460EF0B2FE0128F2D00FE00020EA
:201E900012F0D6FC0BE020460BF0FCFE2874E88A288304E06089E98B884200F0B480002010
:201EB000BDE8F687407A0028FAD099F80610204612F006FA0120F3E7A87E0F28DFD1FC2110
:201ED000204610F069FEBAF80A000090BAF80830BAF80620BAF80410A07913F03FFEDEE733
:201EF00020460DF037F9D1E76089B8F80C10D3E720460BF01BFB2874E88A28830020B073A5
:201F1000F073CDE720460EF03FFF2874E88A28830020B072C4E7288B401E288380B298B11B
:201F3000BDE720460FF07EF82874E88A28830020F072B5E720460DF071FDA7E7288B401ECB
:201F5000288380B20028AAD1317AA07901297FF4B5AE222113F00AFE61E020460DF0E4FA5D
:201F70002874E88A28830120307498E7288B401E288380B2002892D1A179222013F0E6FD99
:201F90004DE020460EF016F880E7288B401E05E70120887020460CF06DFE28747FE7288B93
:201FB000401E288380B20028F8D1B9F8020000902220CA78B9F80030A17913F0C3FD2EE052
:201FD00020460FF099F961E720460AF041FD5DE7288B401EE2E620460EF0E0F856E7204618
:201FF0000AF0A8F952E7288B401E288380B2B0B155E7182120460AF09DF947E721893889AA
:20201000491C8842F4D1282151E720460CF01EF83CE7288B401E288380B20028E8D122218E
:2020300045E700BF5C4D00202DE9F041C04C014620790FF258380A09ADF1180D80F07A81D7
:202050004909C0F0EE8194F90210D14E002871D13078B1F1FF3F37D1E078012800F0E18174
:20207000E069012700250221E770D4A365702A4611F031FEE069434603212A4611F02BFEC4
:20209000E069042143462A4611F025FEE069052143462A4611F01FFEE069062143462A46B6
:2020B00011F019FE307811F007FC8DF80C008DF80E70D1498DF80F5003208DF80D001020D5
:2020D00003AA05F0A7FFACE1012204EBC105227178356F7811F0F0FB8DF80C0000268DF8F4
:2020F0000D608DF80E60AD1C8DF80F70296804A80160AB888380CC4903AA102005F08AFF5F
:20211000E0690221CBA3324611F0E5FDE76928460FF052F8034603213246384611F0DBFD37
:20213000E0690421324612F0C1FF66704FF0FF30A07076E1022840F07481617AA289678AF6
:2021500030780029154670D0B84B491E33D0491E00F0DB80491E03D0491E00F0AF8060E1E3
:2021700019461020012305F055FF002800F05981A07A02281ABF401CC0B20020A07204EB55
:202190008000806C0090E06902210022ACA311F0A2FDE0690321002212F088FFA07A00196B
:2021B000807D009000230190A1490293A289102005F030FF35E1104612F018FC78BB1946BC
:2021D00010202A46012305F025FF002800F02981284612F00BFC071C15D1E18D4FF6FF70AE
:2021F00004F12C07884240F01C81242013F0A6F80028786000F01581C549002213460FF01D
:2022100073FB7D8002E0786813F0B4F84FF47A70388078684FF47A7110F032FC01E1284661
:2022300010F0DEF904218BA3C4E0002F00F0F980207A012800F0F580E679207846B31046BA
:2022500012210023012213F079FC0028049000F0E880618A0127ADF80C10A179ADF80E7058
:2022700000260170A5898DF8146020788DF8156011F022FBA749009003AB2A46102005F01D
:20229000C9FEC5B29DB103A8122113F053FC0BE0ADF80C7011F010FB9F4900902A4603ABC4
:2022B000102005F0B7FEC5B2002D40F0BA8001202072E07980F00100E071B2E00326267106
:2022D00011F0FAFA02462B46132094490090102005F0A0FEE0690221002262A311F0FBFC52
:2022F000E06943460022314611F0F5FCE06904210022434611F0EFFCE06905210022434652
:2023100011F0E9FC002060728BE04FF4C870ADF80C504FF44877ADF80E000026ADF81070EE
:202330004FF41674ADF812607D49ADF81440C6E608020020002849D1E078012871D094F983
:2023500002006278401C41B2E0698A4222DDA170491C002247A30091022111F0BCFC94F9B2
:202370000200E56904EBC0007A300EF025FF034603210022284611F0AEFCE0690521002249
:202390003FA311F0A8FCE069024644E000C046C0700600204FF0FF31A17043460022022147
:2023B00011F099FCE06903210022434611F093FC05213AA3E06902462FE0C04644697363A3
:2023D0006F766572696E672E2E2E00C0022828D1607A04281ABF401CC0B20020E26960729C
:2023F00090B1401E0ED0401E0AD0401E06D0401E11D12DA309E0C04649D200002EA304E015
:2024100033A302E038A300E03CA310460521002211F061FCE26906211CA31046002211F0B4
:202430005AFC06B0BDE8F08159A20000B17F0110C1060100436F6E6E656374696E6700C09E
:2024500050485920707265666572656E63653A20257300C0525353492043616E63656C6C77
:20247000656400C0446973636F6E6E656374696E6700C04644657669636520256400C04676
:20249000436F6E6E656374202D3E00C03C2D204E657874204F7074696F6E00C04469736313
:2024B0006F766572202D3E00446973636F6E6E656374202D3E00C0465365742050485920CD
:2024D000507265666572656E6365202D3E00C046436F6E6E656374696F6E2055706461742E
:2024F00065202D3E00C046C0546F67676C6520526561642052535349202D3E0047415454FC
:2025100020526561642F5772697465202D3E00C0C54D01009153010095530100E51401109F
:202530007D1501102DE9F04FCE4C04F120012046ADF1240D0EF0C8FD04F13C0500212846A6
:2025500013F0F4FACA494FF47A72002304F1540065620FF0C9F9C74D05F1180005F10C011F
:202570000AF03AFDC449A86012F0CAFDC34EA8684FF4E0213246521E10F052FDA8684FF44D
:20259000E021324610F04CFDBD4EA8684FF0C0513246521E10F044FDA8684FF0C0513246FD
:2025B00010F03EFDCD49C822002305F124000FF09BF9CB48002168604FF08040FEF7EAFC2A
:2025D00000274FF008084FF6FF73DFF81C93E061C44EE38502222763494610204FF47A63F0
:2025F00086F8018005F016FD102003224FF47A63494605F00FFDBD48BD4915233A4600906C
:20261000102005F007FD01258DF81D508DF8205044F6C74005908DF81E70DFF8D8928DF8C5
:202630001F704FF48162042305AD10204946009505F0F0FC0DF11D004FF4806201230090D3
:202650004946102005F0E6FC0DF11E0040F20242012300904946102005F0DCFC0DF11F00E5
:2026700040F20342012300904946102005F0D2FC08A80090494640F206420123102005F00B
:20269000C9FCDFF800931020494605F0C3FC207811F012F9BC490246102005F0BBFCBB49B7
:2026B00010204FF0FF3205F0B5FCB94910204FF0FF3205F0AFFC1020494605F0ABFCB54929
:2026D0001020042205F0A6FC04F12800B060307811F0F2F80246707806F1160543460090E2
:2026F000AD490195102006F1260502950C36039605F090FCA94904F13402102005F08AFC31
:20271000207811F0D9F8A6490246102005F082FC207811F0D1F8A3490246102005F07AFC34
:20273000E069394674A30A4611F0D5FABB46DFF88C92206AA04A59464FF0FF3313F0F2F922
:20275000061CF6D05846049007A904AA06A810F0B9FD78B9BDF81800102807D120789DF852
:202770001C10884202D1049800F074FB049808B112F0AFFDF00FC0F094808CE0606A05463E
:2027900013F0CCF9854208BF5F4602D0876810F0F9FB381C7FD03888401E73D0401E63D0E4
:2027B000801E49D0001F23D0083871D17868B4F80C80057859465A4609F05AFBB0FBF9F107
:2027D00001FB09F1401A824635B10090E06904215A464CA311F07FFA7649CDF800A0102090
:2027F00042465B4605F016FC786810F0CBFB4FE07A68BD78E1691078ADB1012D0CD0022D44
:2028100007D0032D16D1002808BF42A30CD046A307E078B94AA307E0002808BF4CA303D084
:202830004FA3009000E053A308465A46022111F052FA7A681046D8E77D686A884FF6FF7050
:20285000904225D05A491020012305F0E3FBF8B16868298810F014F96A885449102005F0EC
:20287000D9FB15E008020020B878FFF7DDFB0FE0394F0100700F0020E92901000E0005809A
:202890000E000010786800F0E5FA786812F021FD384610F077FB606A13F03CF900283FF40E
:2028B0006DAF7008FFF445AF01206071A78AA4F812B0A589A4F810B0381FADF81A002078D4
:2028D000A4F80EB010F0F8FF374900900DF11A032A46102005F09EFB2BE7C046894D01004F
:2028F0005D52010070060020BD8401103E69010015F00000A94F0000424C452043656E740E
:2029100072616C0050617373636F64653A20256400C046C0426F6E64207361766520737533
:20293000636365737300C046426F6E642073617665206661696C65643A20256400C046C0F0
:20295000426F6E64696E6720737563636573730050616972696E67207375636365737300AA
:2029700050616972696E67206661696C3A20256400C046C050616972696E67207374617274
:202990007465640041D90000895101002941010035440100054B0100910F0100494601008E
:2029B0005188011031810110312D010025AB0010B17F01109D330100010000C040420F00B7
:2029D0002DE9F04FC54C20780E46F10BADF1340DC9036DD1B0085DD2606AA16A720807D2A1
:2029F000F00828BF86F0040680F02B82002029E2858861B904F11800C74A00904FF6FF7196
:202A10000223012013F082F80146A16219B304A800900027019702230293FF220392228BB5
:202A3000284608AB03F0CEFA58B99DF821009DF82020A16A12EB002204D0498928460FF0D1
:202A500095FAA16A228B08463B464FF6FF7113F059F80146A162206A00291CBF012186F0D7
:202A700001061FD168B14368616A5BB18888002201219847206A676A4368B88803210022F5
:202A90009847616A888812F0C7F911F0B5FE86F00106D6E10020014604F066FA30B1012104
:202AB00086F00206207808F0B5FFCAE10221F7E70AF0D0FD0028099000F0C18105462878F3
:202AD000B03800F05081401E00F044811F3840F0B181A878801F00F03981C01E00F01E819B
:202AF000401E57D0401E33D0401E00F02A81801E40F0A281687806281FD12846808812F080
:202B1000FDFF071C19D0A07B401E12D0401E0ED0401E12D1002140F209400A4602F03CFAB1
:202B3000284681883878052212F0E4FF05E0A988F8E7A88879790FF091F9206A002800F010
:202B50007B814368002B00F077816A780221DFE012F00AFA002800F06F81276A0FB13868E8
:202B700078B9286900280CBFE0690120698912F0BDFF002800F060816889012112F0B2FFB7
:202B90005AE1286900903C6869892A7B6B7BE81CA04751E168784FF0000A002840F0A280E8
:202BB000A8794008C0F09E80606A002840F09A800DF1120051460E2212F0EAFBA88812F0A2
:202BD0009DFF5FEA000800F03781686900285DD05146814606220A9109F1110011F0BCFE43
:202BF00020B34846062211F0B7FED8B999F8100009F1110B57460B907F1C5846FFB28BF899
:202C1000007010F0E5FF0A280BDA914B0B9A0101A1EB4001C9188879824202D1002FEBD185
:202C300000E01FB901200A9057466F610A9850B909F111010DF11200062211F0A3FF99F881
:202C500010008DF818000A9801281FD06F69EFB1387C07F1110106228DF818000DF11200F2
:202C700011F090FF08F10C0008F10601062211F089FF08F1060007F11101062211F082FF4B
:202C9000387C40F0020088F805000AE098F8050008F1060106228DF818000DF1120011F064
:202CB00071FFA8799DF81F10C0F3800008438DF81F00A879000905D39DF81F0040F008009F
:202CD0008DF81F000DF11200294604F04DF938B92078022108F09EFEB1E0C046E80A00209E
:202CF0004FF0150A12F072FA206A002800F0A4804368002B00F0A080A8886A780121984739
:202D1000BAF1000F00F09880206A032152464368A888984790E0C046466B0100E878291D13
:202D3000002209F0ADFC0A2880F28680410001EB800005F10C0225300421C0B207F07EFB08
:202D50007AE0A888297B0BF0F5FD75E0A8880DF0C7FF71E0287900286CD16888E9882A8995
:202D70000FF004F966E02879401E26D0083802D0743853D059E068781A284BD068888046FF
:202D900012F01EFA022850D12889012201280AD16889032807D1E868807820B940461146F4
:202DB0000EF0EDFC0246206A00283ED04368002B3BD040460521984737E02B7A688805F106
:202DD0000807082B814625D112F0FAF9022821D1688900210EF0D3FC8046607D90B1484682
:202DF00012F08CFE70B119490B784BB94179831D012201F001010846194611F086FD01E0AB
:202E100001202075206A28B143681BB17888052142469847688811F0FFFF06E06A8812F0BC
:202E3000CFF90146104610F0FFFE297905F1080012F080FE012002D0284611F043FB86F4E6
:202E50000046B0B20DB0BDE8F08FC0465A4F0020DA0B00202DE9F8430546C34C2878217920
:202E7000913800F060811F3800F00B81203840F09581A878E66967780FF20C38002800F08C
:202E9000ED80401E00F09A80001F0FF214395FD0401E00F0B380401E00F0A980801F40F0EA
:202EB0007D812A69287B1118491E1018401E904240F2748112F8016B002E45D01078022854
:202ED00003D0032818BF32443ED1761E521CF6B2022E36DB7010914233D91378F02B02D1C5
:202EF0005378FF2B06D0B61E401E02F10202F6B2F1D126E095F80490082F05F1050880F291
:202F10004D8177B104F17A063D4640463146062211F026F9002800F041816D1E06F1080604
:202F3000F3D14246136804EBC7007830811C0B6092888A807F1C80F80190FEB26670BDE861
:202F5000F883012E08BF521C9142B3D8BDE8F883687808BB0227688927710123A081608A80
:202F7000237220B904F1540012F002FAE6693046394600228DA310F0AEFEE469281D0EF0BA
:202F90001BF9034603210022204610F0A4FE0820FFF74AF8BDE8F8834FF6FE70A0810027FB
:202FB0002771022184A33A463046677110F093FE687803214B463A4600904AE00025E57077
:202FD0003046022180A32A46009710F084FE607828B1E06903212A4680A310F07CFE4FF032
:202FF000FF3005212A464346A070E66904E0E87802217EA30090002230462BE0002626719C
:203010004FF6FE70A08166716682042726724FF0FF336772A888A3700FF0E2FAE069022176
:2030300077A3324610F057FEA8790090E06903214B46324610F04FFEE0693946324612F0E3
:2030500035F8E0690621324612F030F8324605214346E06910F03FFEBDE8F8836889A08241
:20307000E81C0EF0A9F8034601210022304610F032FEE0690221002265A310F02CFE002288
:20309000E5E7022948D16978E06916293DD029790B2929D0012902D1297A0A2924D0297962
:2030B000132915D0012902D12A7A122A10D07E290BD07F2906D0607900282DD0284606F0C0
:2030D000ADFC29E0298955A321E0297A57A31EE0012907D0A17959A3491CC9B2A171491E78
:2030F000C9B20AE059A307E02979012903D0E96809785AA301E05DA3297B009100220421AD
:2031100010F0E9FD0020207206E029795BA300910022042110F0DFFD297905F1080012F02B
:2031300009FDBDE8F88368780E381FD0801E31D02E3833D1A8780C2830D1E978E06971B912
:203150000321002252A310F0C6FDE879012814BF54A056A00421002256A3009045E70321FA
:2031700058A3064647E7C04608020020A88841F20541814212D1A86890F903000421002268
:2031900055A3404218E7C046446973636F766572202D3E000820002105F004FFBDE8F88375
:2031B000526561736F6E3A20256400C0436F6E6E656374656400C046436F6E6E6563742071
:2031D0004661696C656400C04465766963657320466F756E6420256400C046C03C2D2054AF
:2031F0006F2053656C65637400C046C0506172616D205570646174653A20256400C046C0ED
:20321000446973636F6E6E656374656400C046C0496E697469616C697A6564004D54552079
:2032300053697A653A20256400C046C046432056696F6C617465643A2025640057726974D0
:20325000652073656E743A20256400C05772697465204572726F7220256400C05265616462
:20327000207273703A20256400C046C052656164204572726F7220256400C04641545420C2
:203290005273702064726F7070656420256400C05048592055706461746520436F6D706CE3
:2032B0006574650032204D62707300C031204D62707300C043757272656E74205048593A4B
:2032D00020257300504859204368616E6765206661696C75726500C052535349202D6442D3
:2032F0003A202564000070472DE9F84FDC4DDFF874832968DC4F887CDFF8709311F06EFDCA
:203310002A6800210446517104F12E0628680EF01DFD012060711C2598F80100401C88F86D
:20333000010080200BF018F920607969C160D048018949007180C079B188400030704900D6
:203350003089B180000130813146204611F03AF80520A081204611F009FA386812F0BEFBA6
:20337000062210F8081FC1F3801184F82E11811C04F5947011F006FC3968BE4F0A68002009
:20339000107141F62202A1793868694342520022A17969430144001D4A80A17969434250DB
:2033B00099F80200410609D5B349088841F20A4290420CBFB148B248C4F89C012046D4F81F
:2033D0009C118847A27939686A4311448873A1793868694308440021C173A179386869433B
:2033F0000844807BF07294F8960108B911F020FAA1793868DFF88CA26943084494F896112B
:203410004A1E02740022A17938686943084400214174A17938686943014400F114034A8295
:20343000A179DAF8002002EB411269435A50A1796943084494498161A07908F0C9FDA27917
:20345000DAF8001052018850A2795201885820B90721204610F034FFFEE011441F20087677
:203470000022DAF80000A179DFF820B200EB41104276DBF80000A17900EB011012F02AFB81
:20349000A179DBF80020DAF80000DFF804B202EB0112031D49015A50021DA3795B0104F110
:2034B0006801D2580A60A279520183588B60DBF81410097894F806E0CA074CBF10220022B1
:2034D0008B074CBF202300235FEA417C4CBF4FF0400C4FF0000C09074CBF802100211343BF
:2034F0004CEA030300EB4E100B4343F00F030372DAF80010A07901EB40110B224A72DAF83C
:203510000000A17900EB411004228272DAF80010A07901EB40105F490A78012A02D10123A8
:20353000C37203E0DBF828100A78C272DAF80000A279636A00F10C0152018B50A17900EBB7
:203550004110A16A0174DAF80000A17900EB4110A16A090A4174DAF80000A17900EB411067
:20357000A16A090C817408214B48007808F052FA2168A2793868CB686A4302449360CA681F
:203590000A61CA688A6000F10C02A17969430C30525C02F0EF024254A0793968684301F115
:2035B0000C020C31125C02F07F020A54A0793968684301F10C020C31125C02F0F00242F04B
:2035D00002020A54A179386869430844417B01F0F00141F001014173B688DBF830C0DAF86F
:2035F0000010A37940F6C4104643DCF8000001F114025B01361AA6F51676D650A27901EB20
:203610004210C17C01F0F00141F00401C174A17938684D4321684019486099F801008106D1
:2036300014D504F59771488F1B2804BF888F1B2808D1C88FB0F5A47F04BFB4F86E11B1F5CD
:20365000A47F03D0142120460CF0B4F9134908200870A17988F80210BDE8F14F00F020B8CB
:20367000184F0020684E0020AC4B0020641D0020844C0020D81D0020504F00201B0701003E
:20369000E30F0100DC1D00205C4D00208C4E00209C6A0100734F00206E4F00206F4F0020A7
:2036B0002DE9FE4FDFF87483D8F804701FB9BDE8F74F12F00BBA3878DFF86493DFF864A39F
:2036D000DFF8644301281CBF0228042841F64C5B05D0402818BF802800F0C28097E111F0BD
:2036F00033FD0028FAD0387805F0CAFE05466E6816B9002011F09CF8DFF830134878002884
:2037100000F0868002F066FD11F068FB01900168009128464F6809F029FB02284CD0297836
:20373000022902D0042921D071E10521217018B912F0C8F95844B0603069C17E01F0EF015C
:20375000C1763069C17E41F08001C1763069C17E01F0F00141F00201C1760221B868824433
:203770003069C0F820A088F8021077E00621217018B912F0A7F95844B060AD480168887C06
:203790000FF042FA3069C17E01F0EF01C1763069C17E41F08001C1763069C17E01F0F00173
:2037B00041F00201C1760421B86882443069C0F820A088F8021051E000980178802913D111
:2037D00008229C4822700178012903D0974A5078022803DB78690121C17213E0D9F82810E0
:2037F0007A690878D0720DE09249072020700A787869012A02D10123C37203E0D9F82810EF
:203810004A78C2720198894A817900989170FAE0002D14D02878AF420DD102281ED0042805
:2038300005D183480168887C0FF0EEF916E0002010F0FEFF12E0022802D0042804D0E6E0BD
:2038500005202070022007E00620207078480168887C0FF0D9F9042088F802002846D2E020
:2038700072494878002800F0968002F0B3FC11F0B5FA0190016800914D686C49887811F048
:20389000ADFA029011F066FC10F0070F53D098F8020005F0F5FD06460099776809F066FAAD
:2038B000022848D03178022902D004291AD03FE00521217018B912F005F95844B8603869FD
:2038D000C17E01F0EF01C1763869C17E41F08001C1763869C17E01F0F00141F00201C1768B
:2038F00002211DE00621217018B912F0EBF85844B8604F480168887C0FF086F93869C17E14
:2039100001F0EF01C1763869C17E41F08001C1763869C17E01F0F00141F00201C176042164
:20393000A86882443869C0F820A088F8021069E0002010F07DFF02980199884229D0009882
:203950000178802913D108223A4822700178012903D0364A5078022803DB68690121C17227
:2039700013E0D9F828106A690878D0720DE03149072020700A786869012A02D10123C372DE
:2039900003E0D9F828104A78C2720198274A81799170009837E011F0DDFB10F0070F3BD087
:2039B00098F8020005F06CFD064646F2A81530787768022802D004280FD02DE00520207076
:2039D00012F080F82918B86812F078F818B912F079F85844B860022012E00620207012F0C6
:2039F00071F82918B86812F069F818B912F06AF85844B8600E480168887C0FF005F90420BD
:203A100088F802003046BDE8FE4F08F07BB9BDE8FE4F002010F00CBFBDE8F78FA81D002093
:203A30009C6A0100F0D8FFFF6F4F0020684E0020184F0020734F00202DE9FF47CA4C0F46C5
:203A50000646F80B80F06581B80880F05281E07ADFF82093B90F80F0CB80607A002840F015
:203A7000AB803809C0F0AA80A07A20B10020A07205200FF0EFFA00254FF00108BB49657080
:203A900004F174002A4684F8078011F055FC207901281AD16079C0B9DFF8D4A2DAF80000CA
:203AB00000284DD048460068006B8047524661691368401A010BA161E0694018B0EBC31F26
:203AD00098BFE0613CD9E56101E084F80480DFF8A892A9F115000068000A31D340F609008D
:203AF000A08694F8410000F0F00040F0010084F84100E58694F8400000F0F00084F8400022
:203B1000A56311F013FC4B4603F6FF7211686FF0020C21F00201116004F13401C3F8FBCF68
:203B3000964AC3F8EB1F11688908FCD3C3F8FBCFD3F8FF1F41F00201C3F8FF1F11F0BAFFC2
:203B50008F4A10688F4920F00200656140F400701060032341F8043C41F230038B604046CA
:203B7000086050238B6008604FF4CA638B6008602B4641F80C0C022013600FF06BFA112058
:203B900007F0A8FF307C10B90E2007F0A3FFE5712572A07818B906F1380011F0DBFB7A489D
:203BB00011F08AFA79490878F8B10D7004F1D000042111F0D7FB18E0380914D2B80BC0F0B9
:203BD000C98004F1240011F0C1FB061C08D0706830B17568F068B6F91C1000222023A8479F
:203BF00027F40057B6E00020607227F00807B1E020B104200FF02EFA0020E072B1680888CD
:203C100040F602054FF0000885420AD0B0F5C15F07D00A8B4FF61F60104040F434700883C7
:203C300006E00A8A4FF61F60104040F4347008826069E0B1D9F85400016804208847B0B148
:203C5000D9F80000006B80476169814226BF401A401E401A000BF060F068718A401840F691
:203C7000C411F06081422CBFB0F5FA7FF16094F8410010F00F0F0BD1708CED1D854207D186
:203C9000B56930466FF4807142464FF00073A8473F4904F17400424611F04EFB607958B15E
:203CB0000220ADF8000068460FF05EFE84F80580BDF80800A4F8700001206070E078401CB5
:203CD000E07004F1200084F8068011F03FFB002808BF47F0020702D0192011F02BFB7569F3
:203CF000414630464FF080630A46A84727F0005730E004F12C05284611F028FB06F01AFC14
:203D1000284611F023FB27F0020708B147F0020720E011F00BFB014604F1280011F016FB70
:203D30000646B569A80810D27EB125EA0500B061084611F0BFFE706850B12A46F068B6F9C7
:203D50001C1075680023A84702E0084611F0B2FE27F4804727B104F1D000394611F002FB5B
:203D70000090BDE8FF87C046B00800204D410100CC1D00208C0100101500044010100440A8
:203D9000000004600C41044035A70000C81D00204D9C00002DE9F043CD48CE4D01781E2420
:203DB000002985B007D0052908D0062900F09E80072918BF082900F087817FE1C64E31683E
:203DD000086800F1080999F8000010F00F0F1CBF00F00F01062908D000F00F02022A1CBFC8
:203DF00000F00F00012840F06F81062209F10201684610F0C7FE99F80000B84FC0F38018F0
:203E100000F00F0001283DD1062209F1080102A810F0B8FE99F800004FEAD01902A94846E5
:203E300011F044FED0B13868807C022818BF03285BD105F10D0102A811F034FE002854D08D
:203E500039680120C8720622707940F00400707102A938680C3010F095FE13E029788945B4
:203E700010D10622691C02A810F01CFB50B12878717960F38201717106223868691C0C3017
:203E900010F080FE6946404611F010FE00282CD070696946001F0EF0EFFE002825D129460D
:203EB00068460FF068FC0146FF291ED03868807C61436C18002818BF02280BD0012818BFBC
:203ED000032812D16A5C7069611C001F11F0E6FD10280AD070696A46E11D001F0CF09BF85E
:203EF00006226946E01D10F04DFEEDE07C4E3068016801F1080999F8000010F00F0F1CBF6E
:203F100000F00F00012878D1062209F10201684610F038FE99F80000DFF8C881C0F380171C
:203F300000F00F00012848D1062209F1080102A810F028FE99F800004FEAD01902A9484649
:203F500011F0B4FD20B3D8F80000C07A022818BF032852D105F10D0011F09CFD00284CD191
:203F700005F10D0102A811F09DFD002831D0D8F80000062202A90C3010F004FE707940F0C5
:203F900004007071062202A9E81D10F0FBFD14E02878814511D10622691C02A810F082FA4D
:203FB00058B12878717960F3820171710622D8F80000691C0C3010F0E5FD6946384611F0DD
:203FD00075FD002848D0294668460FF0D4FB0746FF2F6ED0D8F80010887A6743EC1948BBE7
:203FF000887C10F0FBFE804698F82E01022811BF0328E95D00F0010081425AD108F59475DF
:2040100006222946601C10F04DFA30B906222946354810F047FA00284BD0012088F82E01E5
:204030000622707940F0080070716946284610F0A9FD0DE03069EA5D611C001F11F02EFDEE
:20405000102836D030696A46E11D001F0BF0E3FF06226946E01D2AE0D8F80010887A40BB14
:20407000887C10F0BBFE804698F82E01022818BF03281ED16A46394628460BF06DFEFF28A9
:2040900017D044432C4404F10D0011F003FD10B9607F01280DD188F82E710622707900F060
:2040B000F70040EAC7007071694608F5947010F069FD31680A680020107105E0002010F060
:2040D000B7FB862011F0E2FC05B0BDE8F08300BF6F4F002038130020D04B0020E01D00206C
:2040F000AC4B0020184F0020F86A01002DE9F04F09AFADF13C0D08900A92388809911E46C9
:20411000ADF81800101C08BF002000F08481002700F101094FF0FF3A4FF0010BB8466CE19A
:20413000252940F063811078521C0A922D2818BFADF8068005D15846551CADF8060010780C
:204150000A9530281CBF4246434605D10A9908785A465B46491C0A912A28CDF80080554600
:2041700016D1306804930A99CDF808A0C01C4B1C20F00300001D306050F8044C0A93002CA5
:204190000878009418D5ADF806B06442009413E044460AE0610001EBC4010918A1F1300419
:2041B0000A9908780094491C0A91302801DB3A28F0DBCDF808A004932E282BD10A9908785E
:2041D0002A2801F101010A9111D13068CDF80880C01C20F00300001D306050F8045C002DB6
:2041F00048BF454608782B46491C0A9111E0454643460AE0690001EBC5010918A1F130053A
:204210000A9908782B46491C0A91302801DB3A28F0DB02930AB1224604926C2804D04C286F
:2042300018BFADF8048005D10A990878ADF804B0491C0A910BA9CDF80C800FAB0791642839
:20425000059300F08B80692800F08880BDF818C0752872D078286ED06F286AD0702850D05F
:2042700063283DD073281ED009980A990128A1F101010A9115D96B490C68B5F1FF3F03D0A4
:20429000A84288BF6D1C00D8099D029508A80AA932466B46A0473F180A99039801F101093B
:2042B00074E040462AE030680A99C01C20F00300001D306050F8040CBCF1000F01F1010923
:2042D000014608B955A00146079110F0B9FD0390B5F1FF3F5BD0A842C4BF281C039056E020
:2042F0003068C01C20F00300001D306010F8040C5D468DF82C000A990395584601F1010939
:2043100045E0082035680490E81C20F00300001D306050F8041C082210230FA80AF052FF84
:20433000401E0790402101700A99079801F1010929E0082302E0102300E00A230A993068D7
:2043500001F10109C01C20F00300001D306050F8041CAA42BCBF2A1C049210E00A993068DF
:2043700001F10109C01C20F00300001D306050F8041CAA42BCBF2A1C04926FF009030FA8C8
:204390000AF020FF0790059D281A0390009C241ABDF8065000945DB906E008A8202109AACD
:2043B0000FF0D8FC7F1C009C641E0094F5D503980546401E039075B9BDF80600E8B1009812
:2043D000401E009019D408A8202109AA0FF0C2FC00987F1CF4E70798411C0791017809AAC3
:2043F00008A80FF0B7FC03987F1CE1E708A809AA0FF0B0FC7F1C09F101094A460A9812F864
:20441000011C401C00290A907FF48AAE089808B14146017038460FB0BDE8F08F286E756C7C
:204430006C2900C0946A0100BB482DE9F84F0025BA4CB849056094F8E200002800F06581BB
:20445000012800F02F81B64E02283CD0032840F05C8151F8250CD4F8B8100029A0F5C06025
:20447000C4F8D400B8BF49420028B8BF4042814226DA4FF08057D7F8A4014568B4F8BC0017
:2044900030214FF47F42082300903046A847D7F8A4014568B4F8C00004214FF4F802122373
:2044B00000903046A847D7F8A401B4F8D070456820214FF440620A2330460097A847012575
:2044D00084F8D8501CE151F8258C10F007FE2F4600B901273946934F38680028FCD0B146EA
:2044F000012609F10409D9F82CA03E6009B110F0FBFDCAF30720C4F8BC0010F0EFFDAA4659
:2045100000B9B2463B68002BFCD0D9F800B0BAF1000F3E6001D010F0E7FDCBF38440C4F874
:20453000C00010F0DBFDAA4600B9B2463B68002BFCD0D9F81C90BAF1000F3E6001D010F0F2
:20455000D3FDC9F38120C4F8D000B8F5C061C4F8B81000F09C8094F8D80068B9C4F8D4100F
:20457000D4F8C000C4F8C800D4F8BC70C4F8C470D4F8D030C4F8CC30D4F8D410D4F8BC3047
:20459000002954BF02206FF0010004F1C802176801EB41014018411000EB917107EBA100B8
:2045B0001060D4F8C810C4F8C43000291CDD1E293CDDD4F8CC0030B93429B4BF15391E21C7
:2045D000C4F8C81025E02A29BABFD4F8C8000B381E20C4F8C800D4F8C4003F28B4BF401C07
:2045F0003F20C4F8C4001FE0D4F8CC00032812D011F10B0FC6BFD4F8C8000B30301CC4F8B0
:20461000C800D4F8C4000028C4BF401E051CC4F8C450032508E011F1150FC6BFD4F8C800E9
:204630001530301CC4F8C800C4F8CC504FF08057D7F8A401B4F8C43030214FF47F42456851
:20465000374800930823A847D7F8A40104214FF400321123456832480096A847B4F8C8605C
:20467000D7F8A40104214FF4F802122345682C480096A847D7F8A40120214FF440620A23B2
:20469000B4F8CC60456826480096A84701E084F8D85040F2FF50404502D8801C40452FD20B
:2046B000082030E051F8251C1F4F4BF2F5204843060A3868C0F3814001280CD11B480068E8
:2046D000006880470DF014FF10F014FD3111C010484306EBE03694F8E50030B914480068B8
:2046F00020F07F408019460801E084F8E5501148310C0660012741600F4D8760287808B9F9
:204710000B2000E0052084F8E40003F0F3FABDE8F88FC0462D400C402C500C40680C0020D2
:2047300000A00C4000800C40B43F0050EC010010102009403C600C40E2690100F0B5A34C30
:20475000A34D2778A34AA448A44BA5490D2F83B041F2064600F23081DFE817F036012E013F
:204770002E012E012E010E004E002E019600DA00DA000B010B0112019A494C881C80022C1B
:2047900010602FD940F20440241A29D0641E29D040F2FB30241A1CD00A3C012C19D940F647
:2047B000F630241A1ED0641E1AD0641E012C19D9241F15D0641E15D0641E11D04FF47E7067
:2047D000241A0FD0641E0BD0E41E09D0641E012C0DD8887B4E8025280CBF2720401E887357
:2047F000814845E0002010F023F8852087E0002010F01EF8842082E07C494C881C80022CD5
:20481000106037D940F20440241A30D0641E31D040F2FB30241A23D00A3C012C20D940F6A1
:20483000F630241A26D0641E21D0641E012C21D9A41E13D0A41E1AD0641E1BD0641E16D0CC
:20485000A41E0BD040F2F630241A13D0641E0ED0E41E0CD0641E012C02D910E0644807E0E7
:20487000887B4E8025280CBF2720401E88736148106046E000200FF0DBFF85203FE0002083
:204890000FF0D6FF84203AE05B498978FF295ED0106040F204461C20414358480068841C27
:2048B000645A1C80A41B012C554B50D94FF47F76A41B17D00A3C012C17D940F6F636A41B77
:2048D00017D0A41E012C84BFE41E012C11D9A41E012C79D940F2FD36A41B0AD0641E012CA8
:2048F00003D908E041F2024401E04FF4A054801C4452136005E000200FF09AFF852011F06B
:20491000C5F8287803B0BDE8F040012107F082B84888188040F20442801A55D040F6FC720C
:20493000801A15D008384FD04FF47F72801A22D1344C354A2568354800680023CDE900235B
:2049500055F8086F324B0222B04732490880F7BD092F10D130490A68508960B12F4908784E
:204970000BF0DCFF0021002011F08CF800202070F7BD4888188000200FF05AFF85201FE0A3
:204990004888188002280DD940F20442801A1BD040F6FC72801A05D0083815D04FF47F7226
:2049B000801AE8D1887B801CC0B2B528A8BF6620887300204880F7BD00200FF039FF842027
:2049D000BDE8FE4011F062B8F7BD00BF6F4F00206E4F0020204F0020FB520100504F0020FF
:2049F000481D00209C4C0020D5DF00006C4C0020F9320000EDE40000684E0020D81D0020A7
:204A1000C5840000F04E002002000080EC4E002069310100424F0020E41D0020714F0020B6
:204A30002DE9F84FA54D804628680E464179012991461F4604D004200EF0A8FB012801D1B9
:204A50000C2039E19E480078092818BF0A2804D00B281CBF0C280D2801D121202CE143F6C4
:204A7000FD70A8F1040181423CBF311F814280F0D580B045C0F0D2805FEA090003D0B9F1BF
:204A9000010F6AD102E00A98002866D0380018BF012F03D0022F18BF032F5ED10B980B9917
:204AB0000091002818BF012903D0022918BF032953D11199109881424FD30C9940F67B4238
:204AD000891F91423EBF0D98801F904245D20D990C98814241D30E99B1F5FA7F3DDA0F987C
:204AF0000A3840F67742904237D20D9A0F98491C52005143B1EBC00F2FD20EF031F8012845
:204B100008BF3A201BD05FEA090004BF0A98002823D002F03DF9040008BF09200FD029681B
:204B3000A07988743A462868A0F80680068180F80A9040200A9906F00DFF08B10B20BBE005
:204B500004F1610120460DF095FA04F12C06B07B012803DC20460EF0E5FA5FE029680B98EC
:204B7000DFF86081DFF860B1DFF860A1C8720B9800281CBF0099012907D1C107286854BFC7
:204B90005946414606220C302EE00AF10D0010F081FF78B10B98C10754BF5946414610F018
:204BB000A8F800283AD00B98C10754BF59464146062208E00AF107010AF10D0010F05EFFF7
:204BD00006220AF1070128680C300FF0DBFF0B990B9801F001018AF80010C10754BF5946AF
:204BF000414606220AF101000FF0CCFFB9F1000F28D184F82E7104F594780A99062240460D
:204C10000FF0C0FF022F18BF032F1BD10A9A07F0010150460BF0A0F8FF2801D112204BE084
:204C30001E2148430AEB000707F10D0010F032FF002804BF787F002804D10622244940466E
:204C50000FF0A0FF10F016FFA0620FF01DFA60620D98F0800F9870810E9830812868C17CE6
:204C7000317000200221B170B08010F0FFFE0C2290FBF2F20C2101FB1200401DF073042036
:204C900009F06AFC2968086001204871A07901F0ADFD0B48017871B90E4A107810B10E4831
:204CB0000FF0D2F82868807C0DF0AEFF044906200870FEF7F5FC0020BDE8F28F184F002047
:204CD0006F4F0020344E00202C4E002038130020F86A0100784E0020CC4700202DE9FE4F60
:204CF0000F46994C0168E16241688068E0609748A16080479648E16A0160A168DFF870B2BA
:204D10004160E168DFF8648281609249002FA246C16069D03D68E8788DF8080028798DF8F7
:204D3000090002A810F09EFEA86808B18A490160E86808B189490160894C287820706878F6
:204D50006070A878BE68A0703178E1707368636072696261B168A160F168E1603169216117
:204D70002E697B68A6621868A0616869E062A8692063287F84F834002A6AA26378688668BB
:204D90001EB900200FF054FD00E026627868C06818B900200FF04CFD00E0606278684068E9
:204DB00018B900200FF044FD00E0E0612869A062F86881680E6806B96B4E6A494FF00109CB
:204DD0004E60C66881F801902EB900200FF030FDF868454601E045462E6000685C46FE6855
:204DF000A0617068E06106E000200FF021FD4FF001095C46454628685E494668621C04F198
:204E100014035020B04710B1286880688047DAF808008047594F0026834669467E70564891
:204E30003E700422206130460EF0C8FA0098B0F5801F0CD020B90EF0B5FE04F049FC08E074
:204E50000CF0EAFF0FF0F2FF0420788001E00EF0A9FE4B4FB0462868C7F808808069A66075
:204E7000804778604748468080F80090142010F093F8FF211422A06210F08AFAE01CFF216F
:204E9000022210F085FA142010F086F83E49086008681422314610F07BFA3046FBF78AFD3D
:204EB00048460EF0C1F939480188FF2906D1022101807822001D314610F06AFA032010F03A
:204ED000CDFD042010F0C6FD052010F0BFFD062010F0B8FD07200BF033FB2D4E08203070C2
:204EF00006F1400010F0AAFD0BF020FE363605200A2132460FF091FB38B14046C0F10901C2
:204F1000401C06F8011B0A28F8DB2F68214909200DF10A0201AB7D68087010204146A84723
:204F3000A06ADAF80C10E2690A270A309DF80A307F1E00F8013BF9D1921E5846E2618847E9
:204F500002F0BCFABDE8FE8F7C0D002041490010F84400209C5B0100293A01005D4A0100C4
:204F70000010002048120020D3F100001013002004110020B9410100654B01000C13002050
:204F90009C1D002008130020F41D0020A80E0020E80A00200A1E0020FEB51446A64DA84A9A
:204FB00003460026A3F58063192B1BD8DFE813F03A0133012B0123011A0115010D010701F0
:204FD000FC00F000E800E000CE00C2001A00B80096008000790064005B00510047003A008B
:204FF00030002500282880F29980022940F09680218810F01FFD06461CE1012940F01981FE
:20501000217828464175012101750FF0FBFE11E1012940F00E81002C00F00B8128461330FF
:20503000024614E0102940F00481002C00F0018128465C30102221460FF0A4FDFAE0012961
:2050500040F0F780002C00F0F4802A46921D1046B9E0262940F0ED80002C00F0EA8028461B
:2050700026226C30E7E7012940F0E380002C00F0E0802846401DA6E0602900D144B9012963
:2050900040F0D780002C00F0D48028460D309AE005F19200214660220FF074FD0120687307
:2050B000C8E0012940F0C580207810F0BFFCC1E0012940F0BE802178022900F3BA802846AE
:2050D00000F10C0211702178022918BF301C02D11021C172012010F0A5FCABE0072940F075
:2050F000A880611C684606220FF0CCFB20786946324607F0C5FA04460A2C0FDA10F08EFCF7
:2051100038B9204604F050FA0EF016FF0BF00EFD90E0284601212C3001558BE0022689E023
:20513000012940F086802178042980F2828028460E305EE001297CD12A462178D07B0028E8
:20515000D17377D12078012874D1DFE72846027B01296ED1022A04D02178072901DB1029B5
:2051700004DD022A65D12178102962D1C17261E001295ED121780A295BDA2846093038E04A
:20519000012956D12178022953DA2846083030E000294ED110F042FC10B90FF0CBFDB3E757
:2051B00028460121103024E0042942D12168234888423ED32B4603F11C0001603AE00129D6
:2051D00037D128460A30217813E0012931D1217802292EDA2846C01D0BE0102929D12846B4
:2051F0004C3027E7012924D12178022921DA2846001D01701EE001291BD12178042918DC6D
:205210002846C01CF5E7012913D12178022910DA2846801CEDE702290BD121881046153073
:20523000018007E0012904D121780229D8BF101CDFDD18263046FEBDE80A00203F420F00A3
:20525000E90A00202DE9F04F0C46E00789B00BD50FF082FE28B1002181608448006800B145
:20527000804784F00100FDE02007814D40F1868080480168887C0FF0B1FD064606F59470AC
:2052900096F82EA107904FF000087A4801688A7CC146FF2A04BF00200FF0CAFA079A514684
:2052B00028460AF059FD07461E207843009005EB000B0799504610F0F9FBA8B1FF2F2CD0A2
:2052D0000098285C40F0020A0BF10100079006220AF0010086F82E0106F5947007990FF064
:2052F00051FC0BF1070818E0079950460FF001FD002818BFFF2F10D00BF10D0010F0CAFB40
:2053100048B90BF10D0010F0C5FB002804BF9BF81D00012801D14AF0020A56490868C07A8E
:20533000022818BF032806D105F10D0010F0B2FB08B905F10709002006905346F08E00090D
:2053500005900022B18E0491708E0799009140080390CDF80880CDF804900020B17910F0B8
:2053700059FBD6F89C0144498842B0790CBF0021012108F09FFD84F0080073E0E00610D5A2
:2053900000200690002100220023029005910492039301910092022010F03CFB84F010008C
:2053B00060E0E00413D5E91D05F10D0010F066FB32484268324800784FF480510CF092FDB2
:2053D00010B18E2010F022FB84F480504AE0A00505D50FF083FE2B4901200860FEE7610578
:2053F00004D506F0F2F984F480603BE0600405D5812010F00BFB84F4804033E0A00430D597
:20541000214D286810B100200FF012FA4FF0FF3028600AF093FE1D4D296851F8202F6846D0
:2054300090471B48C16A026B2D68009101920021029100F134014A6809781368806A0393C9
:205450008DF81010ADF812006B462E68114A12491248B0471249086003F0A6F984F4005075
:2054700000E0002009B0BDE8F08F00BF204F002038130020184F00201B070100784E0020F6
:205490006E4F0020FC002043044F0020F04E002000100020081D0020B411002088490020A4
:2054B000EC4E002010B50B7884074CBF43F0020303F0FD0304064CBF43F0800303F07F0339
:2054D00004074CBF43F0080303F0F70384064CBF43F0200303F0DF0310F0AA0F0B7004D0B3
:2054F000107840F00C00107010BD18B9117801F0F301117010BDF8B50F46002638780228FC
:2055100014461D4669D1786801784278069801EB022189B2002818BFB1F5285F01D00B2061
:20553000F2BD4FF42850091A0CD0491E20D0491E4DD0491E24D0491E2AD0A23947D023390D
:2055500041D04AE0F8680FF025FF069B079980B2C21A8A42ACBF0846C01A80B2C118162985
:2055700004DA28800246F868C1180DE00D2636E0F8680088022129802070000A60702EE0B2
:20559000062028800622F96820460FF0FBFA26E0F868B0B108212980018821700188090AFB
:2055B00061704188A1704188090AE170818821718188090A6171C188A171C088000AE0717C
:2055D0000DE029800BE04B480178CA0705D401202880F8680178217001E02E800126304625
:2055F000F2BD2DE9F8460E46814630780024022817469A467AD17068017842783D4D01EB7E
:20561000022189B24FF42850091A0AD0491E32D0491E57D0491E41D0A33965D0233960D058
:2056300064E0F0680FF0B6FE089980B2884206D308460AEB0001162903DB0D2457E00724A1
:2056500055E0F3685246394618440FF09BFA08985044ADF8200000210898F368C0F11602C5
:2056700018440FF095FE686800281CBF0268002A3DD0002123E0089888BBBAF1020FDCD148
:2056900039787878F26801EB00211180686800281CBF0268002A2AD0012110E00898F0B9A5
:2056B000BAF1060FC9D1F068062239460FF06AFA686800281CBF0268002A18D0032148461D
:2056D000904714E0089850B9BAF1010FB5D13878002813BF0128F1680870802407E00B24A7
:2056F00005E02878C10701D4032400E001242046BDE8F286801200202DE9F04F8246DAF828
:2057100000600C465FEA0208ADF11C0D14BF00214FF0FF3106F1480083460FF0CBFB002855
:2057300018BF0B2040F00681002565708448F460B8F1010F057004D065700220F4600DF03C
:2057500085FE2078012840F2AB80801E012868D9801E012833D9801E012800F2DF800FF0A6
:20577000E5FD06904FF0805000F5EE77D0F8DC01A378466A009321782846062908BF012017
:20579000019001200290A068228AE1686368B0478146069810F08EF9B9F1000F40F0C080E1
:2057B000B8F1000F02D00FF0BDF902E050460EF073FB002800F0A4803868806A2AE00FF0E7
:2057D000B5FD06904FF0805000F5EE77D0F8DC01012306680093A168A27860682478AC46C5
:2057F000042C08BF9C466346B0478146069810F061F9B9F1000F40F09380B8F1000F02D0DB
:205810000FF090F902E050460EF046FB002877D03868406880474949C1F8B0510D6081463B
:205830007EE00FF083FD06904FF0805000F5EE76D0F8DC01E38A87690093E0680190208B64
:205850000290A0780390207D04900121059122782846022A08BF081CE1786268A368B847C6
:205870008146069810F026F9B9F1000F58D1B8F1000F02D00FF056F902E050460EF00CFB5D
:2058900000283DD03068006A80475FEA000947D13068C569A168E28A2369E078A847BEE7DD
:2058B0000FF044FD06904FF0805000F5EE76D0F8DC01E38AC7680093E0680190208B0290B0
:2058D000A0780390207D2946049001200590257805B9014608466268A368E178B8478146D3
:2058F000069810F0E7F8B9F1000F19D1B8F1000F02D00FF017F902E050460EF0CDFA08B9E1
:20591000142017E03068406980475FEA000907D1306802692169E078904780E74FF0FF3980
:20593000B8F1010F02D002200DF094FB58460FF011FD484607B0BDE8F08FC046504502402D
:20595000091E00202DE9FE4F05467E48002400680094C0090ED37C48007858B97C497B48DD
:2059700051F8112C104040F0817041F8110C20200CF096FA012D40F0E080DFF80092D9F806
:20599000DC00012840F0D6800220C9F8DC000EF0D9FC01200CF084FA5FEA000805D00120F8
:2059B000C9F8DC000EF0DEFCC9E00FF0D7FCA34602906848684DC0F800B0A86A0168012003
:2059D0008847012804D1584609F086FE012000906248634FC0F800B0386811200FF09CFBF3
:2059F00000B1012410200FF097FB08B144F002040F200FF091FB08B144F004040B200FF034
:205A10008BFB20B12868574E016B308888470A200FF082FB20B12868534E016B308888475C
:205A30005248012606602868816944F0200088474F4806600FF06AFB00F001010191400865
:205A500014D2286A81684B4888478246BAF1040FF7D0BAF1010F04D1286A426845480321A9
:205A700090474549086820F003000860584600F099F92B683868986B8047019801280CD00B
:205A9000BAF1010F04D1286A42683A48314690473949086840F0030008603048066028685F
:205AB0004169204688470B200FF036FB20B128682C4BC16A188888470A200FF02DFB20B108
:205AD0002868294BC16A18888847284806600322C9F8DC20264BC3F800B02868416B2046E2
:205AF00088470128F9D1386804200CF0D9F90446184806603868134800688009FBD30098E0
:205B1000012802D1304609F0E7FD0FF0EDFA08200CF0C6F907460298C9F8DC600FF072FF09
:205B30000AF080F90EF01EFC57EA040018BF4FF0FF3804E06FF0040801E06FF0010840461A
:205B5000BDE8FE8F14100940500D0020FFFFFCFC150009400C400940B80100100002224300
:205B70002C200940DA650100D665010028200860800104430040034024220840680C0020E7
:205B90002DE9F04F94460E1C04461F46ADF14C0D4DD07548357801684FF0010B0BFA05F0C1
:205BB000014244D0BCF1000F666040D0BCF80000B0F5C15F2FD1DCF81400DCF818606B4B89
:205BD000DCF81C50DFF8A8910E904FF0030E0DF134080F9618681095C0F3036A58F8046F90
:205BF000B6B10021331F05200A4653F8045FA94506D0401E01F1040102F10102F5D107E0DC
:205C1000052A05DA705820F4702040EA0A407050BEF1010EE2D1C4F808C00FF087FB1190AF
:205C30005F48801C007820B111980FF043FF002096E003F057FA4F4908680DF1280A40F09C
:205C50000200086050460FF077F94FF005084A4E4A49CDF83080524606F1D0000CF0FCFC86
:205C700050460FF049F900254FF0FF0919218DF83050434ACDF82C90534606F174000CF084
:205C90003BFA50460FF058F93E49CDF83080524606F582700CF0E0FC50460FF02DF98DF840
:205CB00030B0394ACDF82C9006F190001A2153460CF022FA35492A4606F1AC0013460BF098
:205CD00083FD33480FF0F8F9324A2B46042106F148000EF055F84FF6FF70A6F8700086F8ED
:205CF00005B086F873503571B571F571357275727561B378B572581CB0701198F5720FF013
:205D1000D9FE1FB903AF38460FF04AF8386820607868E060387C84F811B02074788A6082AA
:205D30001D4EA6616661F86800B1A061B86800B160612946782204F1200008F0C2FD04F1AC
:205D5000380029460DF03CFE68460FF0B3FA1349029404F170002A466B460BF035FD2046F0
:205D700013B0BDE8F08FC046D4210840541300500200F84400200940B0080020C54B0100A2
:205D90004D410100D5E70000E90E0100994F010035A7000031150100DFCC000001530100A4
:205DB000B00800202DE9F84FDFF804B20746ABF13500DFF8F0810068800880F0E28075482C
:205DD0000068006880477E490831D1F8009000254FEA29715FEA995201F101010AD2C0F116
:205DF0003E0210F10A0F4FEAE202D8BF08229142B8BF111C684BD3F87C21C2F30462162A6E
:205E1000A8BF203A1B68C3F30443162BA8BF203B9A465218162A05DA12F10A0FB8BF6FF0D3
:205E3000090200E015225D4B5D4E02F01F0141F4F8511980316811F0030F18BF0125C9083A
:205E500028BF45F002050FB145F00405434693F90710411A052904DA9979A94208BF998899
:205E70006FD0DFF844E10F28A0F10F0829DB08EB0011A1F1F0084FEA28210091072984BFE0
:205E900007210091062988BF06215EF821600424774604EB81043C594FEA950CA41BEE0848
:205EB00004F0FF0124BFC4F3072631446F08AE0824BFC4F3074631446E0828BF01EB14615B
:205ED00004E000214FEA950C6F080091009C5EF824E05FEA5C060EF0FF0424BFCEF3072658
:205EF00034447E0824BFCEF3074634446E0828BF04EB1E64009E89B2A8EB06267143803160
:205F100004EB1124AAEB02010029D8BF0121342209F0FF074A4391B24FF6FF727943B1FB90
:205F3000F4F18A4238BF111C802889B2998005DA10F1800FB8BF6FF07F0000E07F20D871F4
:205F50009D711A4800681F2918604FF0000008D340F2FF128A4206D24908401C8A42FBD351
:205F700001E01F219980134F0F39090940EAC10047EA0001CBF8FB1F0026CBF8FF6FBDE825
:205F9000F88F0D490D4F434608200F609B1D1870BDE8F88FEC0100103C1100506E6208407A
:205FB00024220840D01D00209C130050082009403500094000E7A48030100940FDFDA40016
:205FD000AC3F00502DE9F0410C4684B00746207A0026C10690461D460BD540460FF00EFD2C
:205FF000030000F0F0800A22214638469847060050D1207802281AD160680178427801EB83
:20601000022189B24FF42050091A012910D9891E41D0491E16D0FD3905D0491E00F08B80B7
:20603000491E74D0491E7BD0491E00F0A180B8E00B98002831D1E0680A9A017811800278A6
:20605000416891E00B98002827D10A9801210180E0680178297000216089401C80B20FF01D
:20607000C9FC0A99098868B102780A9B921C51181980418969704189090AA9700278416873
:20609000E81C72E00A98091D018004220021681C0FF07EF998E00B9800286BD1E0680788BA
:2060B0000A98042101802F70380A68700DF1020138460FF09FFC04001FD0E768BDF802209D
:2060D0004FF6FF786B4641460FF01CFD40B9237862683F4802210FF089FC08B9ADF8008032
:2060F000387802280BD179680222281D0EF04AFD0A980188891C018001E0ADF80070BDF84F
:206110000000A870BDF80000000AE8705CE00B9800282FD1E068016838460EF0E5FE03E046
:206130000B9838BBE06800880A9A022111802870000A687048E0E0680FF02CF90B9B80B2AB
:206150009842B8BF07263FDB834208BF002006D00C99C9188142B2BF0C98C01A80B20A9908
:2061700008800246E068C11828460EF00BFD2BE00B9808B10B2627E00A9AE0680721118066
:2061900002782A70417869704188A9704188090AE97001792971C1886971C088000AA87190
:2061B00012E040460FF01EFC06000CD00D980C990A9B029001912A460B98009021463846C1
:2061D000B047064600E00E26304604B0BDE8F081346B01002DE9FE4F7D4C617811B9002089
:2061F0000EF026FB0FF06EFC8146002709F6C4190026784DDFF8E0810EE030460EF0EEFDCD
:20621000417939B129688279CA5549467F1C00F0E7F8FFB2761CF6B298F800008642ECDB1C
:20623000009761788F4205D000200EF001FB82200FF02CFC6078012840F0A380002601E0FA
:20625000761CF6B298F80000864280F2948030460EF0C4FD074678790028F1D02868B979F8
:20627000027891421CBF00200EF0E2FAB87980E0286810F809000EF0B1FD00684268DAF82A
:2062900008109068814204BFB84609F1010900F088808BE0296891F800B04FF0010910E0F0
:2062B000626811F8093002F5B17208FB03F708FB0BFED75B32F80E20974238BF9B4609F16A
:2062D0000109C0B28145EBDB4FF6FF7008F062FE074658460EF082FD40F6C419006841680E
:2062F00000967808029109FB00FA0026019715E058460EF073FD01680A78802A04BF7B69EC
:20631000C3F814A00978402907D1344A8079136803EB40110AF5A062CA61761C00988642ED
:2063300053DA2868805D8345F7D0636808FB00F2991803F5B173C9899A5A4B08934203D254
:20635000009B891A8B42E8DA0EF048FD00684768029A0198B968936800EBD0704010A1F6A3
:20637000C41109FB00300FF0A9FB0028C0D02868805DBDE8FE8F00200EF05AFA82200FF0F7
:2063900085FB6178286809F0B4FC286800780EF025FD0168009ED1F804A04FF000084FF039
:2063B0000109B14508F10107FFF662AF4046C0B200281EBF3846C1B200294FF4D0787FF4B1
:2063D00069AF286890F800B07EE75846D1E700BF684E0020004F00207B4F0020DC1D00200B
:2063F0002DE9F24F054682B02868D0F804B0DBF808000FF063FB002840F0E480296802988E
:2064100009690FF0EBFA05F1820480462078002805F12E0740F6C4196BD0298960880FF002
:20643000D9FA82462078022806BF05F59A710E8EBE8806FB0AF609FB06F0009028680169BE
:206450000098411802980FF039FB00284BD000982189A8EB000009FB01F2B0FBF2F302FBD2
:20647000130000B15B1C288982449A44A5F80AA05943E088861920788E1901284BD105F118
:20649000860128460DF09EFF60896989688400202877E883E8894118A9812289B988A08963
:2064B0008A4204BF3989884202BF6189FB88994207D0000900906389A979520800200FF0B1
:2064D00085FAB88805F59A710886207938702089B8806089F880A089388128460EF046F94A
:2064F0000220207017E0207801281CBF00200EF09FF9B88809FB00F0B8FBF0F100FB118835
:206510008EB2B8F1000F28891CBF761CB6B230186881B88846432968314A086909FB06006C
:20653000CBF808000B78802B0DD1C860D2F83080BB88D8F8000009FB03F31B1ADBF81400A9
:20655000A3F5167343610878402833D1AE614FF4C873688A4643B6FBF3F0401C6861DBF8E6
:206570000830181ACBF808006B69D5F8340100EB4300DBF8143058611A4823780068022B70
:206590000CD1AB795B0100F1140454F803803C7809FB048800F1140444F80380AB79126B09
:2065B00000EB4313B88809FB00F41068201AA0F51670D861DBF808208A60F87AB87228465D
:2065D0000BF039FF6989A8890FF004FAE989814205F59A7138BF0120C885BDE8F78F00BFCF
:2065F0009C6A0100DC1D0020F8B57E4F04463868C16E0025002940F0F18010200EF0CCFCF3
:2066100039680028C86600F0E7808E6E102221460EF0B8FA39680878002840F08E80CA6E18
:20663000D6F8980012F80CCF00F001030CF0010C634518BF0023400843EA4000C6F8980055
:20665000C0F34003D2F800C0CCF3400C634506BF430803F00103002320F0020040EA43004E
:20667000C6F89800C0F38003D2F800C0CCF3800C634506BF830803F00103002320F0040083
:2066900040EA8300C6F89800C0F3C003D2F800C0CCF3C00C634506BFC30803F0010300230A
:2066B00020F0080040EAC300C6F89800C0F30023D2F800C0CCF3002C634506BF030A03F0B7
:2066D0000103002320F4807040EA0320C6F89800C0F34023D2F800C0CCF3402C634506BFA4
:2066F000430A03F00103002320F4007040EA4320C6F89800C0F38023D2F800C0CCF3802C71
:20671000634506BF830A03F00103002320F4806040EA8320C6F89800C0F3C0231268C2F379
:20673000C022934206BFC20A02F00102002220F4006040EAC220C6F898008A6E92F89500FD
:20675000030718D5C86E4368C3F3C00098B1C87840F00800C870D6F8981023480140C6F802
:2067700098103868C06EC16821F48071C16049084900C16003E092F8330001282AD06078ED
:2067900000281CBF7178002908D13968CA78130708D5002804BF7078002803D03A6805218B
