:2000000000400020B526010001C9011001C9011001C9011001C9011001C9011001C9011082
:1C00200001C9011001C9011001C9011001C9011001C9011001C901103FC9011089
:20003C0080B54FF4FC720FF278011A480DF058FA012119484174002202210270C17601BDAF
:20005C002DE9F0410FF2502214493820136854689568D6681769D2F814C0D2F818E0D2F8F9
:20007C001C800B604C608D60CE600F61C1F814C0C1F818E0C1F81C8020322031401EE5D1DC
:20009C0050689368D46812680A6048608B60CC60BDE8F081480400215903002100C00021D1
:2000BC00410500217D0500212D06002170B51D46004C204787B2000010B5014800470000FD
:2000DC00D509000070B5614C6148254650358047022809D14034E1885E4A914204D1E97C5E
:2000FC00890601D4911DE18070BD70B557495A4A084650300378002B10D08379012B0DD181
:20011C00037C5B09DB0709D0097D544DC1746C7F20202043687790476C7770BDFF21C17420
:20013C00904770BD10B54E48484C804702280ED121464031CA88474B9A4208D1CA7C5209CE
:20015C00D20704D0227D920601D49A1DCA8010BD70B53E4843494030C07C4009C00707D032
:20017C003E4D41482C8B2043288388472C8370BD884770BD10B53B48344CAC388047214609
:20019C0053310A789309DB0705D04034A2730A7803231A430A7010BD2C4940310871182876
:2001BC0012D004DC0A280BD00B2804D10AE025280CD02A280CD02D4980004018C0687047DE
:2001DC002B4870472B4870472B4870472B4870472B48704770B504461C484E252D5CAE09AB
:2001FC00F60716D0067D3007000F052803D00120054202D00DE00220FAE7E80905D07006D1
:20021C0003D54868800F012803D05B085B0052085200062B03D01020022B11D011E0FB20F7
:20023C00024002232046FFF741FF002807DAC100611A2039497E1422114200D1002070BD93
:20025C00024303432046FFF731FF70BD4401002137CB000004140000EBC80000A800002142
:20027C00F5B4000053AD00002020000080DF00001D050021F9040021CD040021930400210F
:20029C006D04002110B5034CFFF716FF20680028FAD110BD0011044068610000F825F965B0
:2002BC00F9754500450045002600260057A3520052004C00401F401F401F3F000000000053
:2002DC00304000400140034007400F404F40CF40CF41CF43CF47CF4FCF3FCF2FCF1FCF0F6C
:2002FC00000000000000000000000F00080000003F00000040003F000000040068000E0093
:20031C00DC00060043001A00050000000000020000000000000000000400C00000000400B3
:20033C00C000000007000000000000000000000000000000000000003040004001400340A6
:20035C0007400F404F40CF40CF7FCF6FCF5FCF4FCF3FCF2FCF1FCF0F00000000000000009D
:20037C0050C00091007070C00091007082312100319110B10070018101B100A1823132910D
:20039C0010B101911110418141227740F106007051C0019130181039833108D01831416FD1
:2003BC003100319110B18314141683680070251050C00091F4C340C12014036F3110410497
:2003DC005082F0229840512622C082312100319110B163393110410482C08231210031919B
:2003FC0010B163393110A2C082312100319110B150101531051405920070676452C03110A6
:20041C0031066131C1026A6412C13110213971065131E1026A64007051C0019101CCE2C0CC
:20043C006A64676411C1C2C06A6450B054B0007140804022D6440022C94060B08180111EC9
:20045C00C944007054A064B0F0800022C9404012B09032B070C1DF6811C122C16A6470C1C0
:20047C00E46851C00191E2C0823160820200329110B130C2EE68538253395339B16460C347
:20049C00F4688012B09032B00070676401C122C16A6401C1C2C06A645382B164C012B09074
:2004BC0032B00070676472C281C06A6422C111C16A6402C011C16A6462C031C36A6462C3D2
:2004DC0011C16A6402C311C16A6453825339B164E2C36F6411221C4142C281C86A6452C24E
:2004FC0011C16A6472C2E1CE6A6402C281C86A6402C201C86A64B0C030690070676442C211
:20051C0001C86A6452C211C06A6472C2E1C06A6402C001C16A6462C001C36A6422C101C127
:20053C006A6462C301C16A6402C301C16A645382B16400708180111E5C4150B054B000712B
:20055C00408040225D4154A064B0F1800122514500700022514160B04E61000000000000AA
:20057C000000000000000000067305720B720E7250B00071818060B050A09280F0EFF1928C
:20059C0002936A6741228C458080F1C11004301601110114016CB561B661B761B861B9618D
:2005BC00BA61BB61BD61BF61C161C36126632D63F0C002043231412A121432160111211412
:2005DC00016CDA61C561E061C761CB61B561B561B561F461C561FA61C761CB61B561B56104
:2005FC00B561F461C561FA61C761CB61B561B561B561E761C561ED61C761CB61B561B56121
:20061C00B561CF61CF61CF61CF61CF61CF61C064CF61F964CF610665CF613265CF6174676A
:20063C00CF611166CF61C0644E65F964CF61066511663265CF618280E0DFF2926A67B0B044
:20065C00D661B1B00673057230B06C61D0CF6A6784C203C0C0C37C64207851788278E378B7
:20067C001579B6780062C0CF6A6784C203C0C0C37C64307861789278F3781579C678006250
:20069C00B0CF6A6784C203C0C0C37C6440787178A27803791579D678109221923292439281
:2006BC005492659256911FC0FF914039F00601101031101400927067CF61E3B054A0F08076
:2006DC0050221A4640800022BE461262E3A000C86091598150B0918041228E46A0CF6A6734
:2006FC0012828231823942398B641282F2062F101F312F141682D622334640C1346200C5AF
:20071C0020140D6F6D39DE10F4C34E0482C082312E006D39A2C082312D001A828A39FA0606
:20073C002082803180390BC00B18BC10AC18038239149B141082F0060110103110145181C2
:20075C0010140C14C622C94631D0C1266462021011C0013010C00118021882312100C126C2
:20077C00919103B013B063B053B041800122BE46B481C491D581B51C774E95186591F0803E
:20079C00102269428C623D9110B13E9110B1E08000228146E6228142E0B0951865910F926B
:2007BC005981F914F0805022114210228C464D6390CF6A6763B052A03082F2C0200402107E
:2007DC0011C0013010C00118021882312100C1269191919113B003B063B053B064B054B055
:2007FC00007141800122BE4663B064B0F08050221142B181C191D1819118619131B0A462D0
:20081C002967E0A059810582591480C0007163B0BA6A6962E3A0018262818231823D80EF61
:20083C00F19202936A6703A0007037824739873930828039F006021011C0013010C0011849
:20085C00021882312100C126819102B012B030824039F006021011C0013010C001180218E9
:20087C0082312100C126919103B013B063B053B0007153A062B052B041800122BE46A4816E
:20089C00C491D581B51CFE4E95186591F0801022F0428C62B481C491D4814518751C084FEB
:2008BC00F0801022F0428C623D9110B13E9110B1E08000221247E6221243E0B065910F92DC
:2008DC005981F914F0805022114210228C4630632967E0A0598105825914F0C0007162B038
:2008FC00226BF062A2808B64CF6112824239F2068B6050B00071CF6170CF6A674082418096
:20091C000122BE46A481C491D58195186591F18011228C46336B41800122BE46A481C491AB
:20093C00D581C51C1C4B95186591F08010223F438C6260CF6A67408241800122BE46B48169
:20095C00C491D58195186591F18011228C46506B41800122BE46B481C491D581C51CB44A55
:20097C0095186591F08010225C438C62E092D08200226B47C0B20070A080F022874330B033
:20099C0002C1623101C0A080001E8043F022814380F86031603981632010101A136F236E5A
:2009BC0011161216826B00702DE9F84FDFF82085DFF8201588F80000002008600921DFF881
:2009DC00180501700D2141804FF408718180DFF80C05DFF80C1501608A7EDFF80805027022
:2009FC00FF2ACB7E437008BFFF2B0D7F85704E7FC6708F7F0771C97F417115D1FF2D08BFE8
:200A1C00FF2E11D1FF2F08BFFF290DD1DFF8D8140A7802704A7842708A788270CA78C2701D
:200A3C000A79027149794171DFF8C01402780A70FF2542784A7082788A70C278CA70027916
:200A5C000A714079DFF8A82448710021DFF8A404057045708570C570057145711180DFF862
:200A7C009804DFF89814466BDFF894247078087031781170B078DFF88C14087071690879FF
:200A9C00DFF88414421E0A70F078DFF880140870B069DFF87C14086008B914F0C7FCF069DD
:200ABC00DFF87044206008B914F0C0FC2068DFF8687401688847216851F8042F38469047C1
:200ADC00DFF85804DFF858143862DFF858047862306A086008B914F0A9FC706ADFF8481464
:200AFC00086008B914F0A2FCDFF840B4DFF840649BF8040015F05CF8306008B900F049B996
:200B1C009BF80500DFF82C7415F052F8386008B930683BE19BF80600DFF81C4415F048F839
:200B3C00206020B9306815F04BF838682EE19BF80700DFF8089415F03BF8C9F8000038B9BA
:200B5C00306815F03DF8386815F03AF820681DE1DFF8AC130A789BF80000DFF8E4A3921C93
:200B7C00504380B215F024F8CAF8080058B9306815F026F8386815F023F8206815F020F878
:200B9C00D9F8000002E1DFF878030078002800F00581BBF80210DFF8ACB3484380B215F060
:200BBC0007F8CBF8040078B9306815F009F8386815F006F8206815F003F8D9F8000014F084
:200BDC00FFFFDAF80800E1E0CD48007814F0F0FFDD49086098B9306814F0F2FF386814F0D0
:200BFC00EFFF206814F0ECFFD9F8000014F0E8FFDAF8080014F0E4FFDBF80400C6E0C04872
:200C1C0000781C21484314F0D3FFD04A1060B0B9306814F0D5FF386814F0D2FF206814F03E
:200C3C00CFFFD9F8000014F0CBFFDAF8080014F0C7FFDBF8040014F0C3FFC348A5E0B04862
:200C5C000078400114F0B4FFC1490860D8B9306814F0B6FF386814F0B3FF206814F0B0FF23
:200C7C00D9F8000014F0ACFFDAF8080014F0A8FFDBF8040014F0A4FFB348006814F0A0FFCF
:200C9C00B249086882E09E480078000114F090FFB0490860F0B9306814F092FF386814F09E
:200CBC008FFF206814F08CFFD9F8000014F088FFDAF8080014F084FFDBF8040014F080FF5C
:200CDC00A148006814F07CFFA049086814F078FF9F485AE08A480078000114F069FF9E4995
:200CFC00086018BB306814F06BFF386814F068FF206814F065FFD9F8000014F061FFDAF895
:200D1C00080014F05DFFDBF8040014F059FF8E48006814F055FF8D49086814F051FF8C4818
:200D3C00006814F04DFF8B4908682FE0744800783021484314F03CFF884A106070BB306838
:200D5C0014F03EFF386814F03BFF206814F038FFD9F8000014F034FFDAF8080014F030FF80
:200D7C00DBF8040014F02CFF7748006814F028FF7649086814F024FF7548006814F020FF61
:200D9C007449086814F01CFF7348006814F018FF002014F04BFB4FF4804192E03168012013
:200DBC0008713068057331684D73306885733168CD7330680574002031684D743268D07265
:200DDC00A0223168487103213068C280017207203168487200203268907228213068418298
:200DFC000121C176002031684877326882F85E00012031680877326882F85D0039680871D0
:200E1C003868057339684D73386885733968CD7338680574002039684D743A68D0723968A4
:200E3C0048713A6890724FF4207039680022C88008818A7401213A68D17421680D73226838
:200E5C00557321688D732268D57321680D740021226855742368D9720121226811710021B0
:200E7C00236859712168C8800881002088722168887405202268D0743948016888472A49E9
:200E9C000A6805461068804727490A6852F8043F0020984718481D4BC16818780A8831493F
:200EBC0002430A80284630490A6890470C212F4800F05EF80F4800F05FF800F061F84FF403
:200EDC00005198F80000BDE8F44F0BF069B800BF6E4F0020044F0020604E0020084F0020BD
:200EFC00B63F00502C4E0020E81200503C4E00200C4F0020344E0020507801006D4F002041
:200F1C007B4F00206B4F0020724F00206C4F0020F04E0020F44E00207C4B0020CD5B010065
:200F3C00F84E0020DD5B0100FC4E002080120020104F002010200020184F00201420002030
:200F5C00D81F0020684E0020004F0020082000200C200020884E00208C4E0020904E002097
:200F7C00AC0D0020544F0020B00D0020F84D0020DFF800F0E5710110DFF800F01D6E0110E6
:200F9C00DFF800F04D7101102DE9F04106465FEA010808BFDFF8408010480078C8B1104CB7
:200FBC0007460025B54204D02068C0698047064209D02068406841460246204690470028DB
:200FDC0018BF201C06D17F1E04F10C0405F10105E8D10020BDE8F08179770100097801000B
:040FFC00BC770100BD
:20100000B41200001810000015AB0110FDB301106DC00110FDAE011099B5011000000000F7
:08102000000000002D0000009B
:20102800B01200003C100000B1C00110A9BF011067C0011069B80110000000000000000035
:041048003000000074
:20104C00B012000060100000BDC00110CDB30110D9BD01106DB3011000000000000000005B
:04106C00310000004F
:2010700000000000A812002004000000000000000000000020000000E8C901103000000070
:2010900028100000B01200200400000000000000000000000C000000D8CA0110180000004B
:2010B0004C100000B812002004000000000000000000000024000000F0CA011018000000CF
:2010D00000000000C01200200400000000000000000000001000000018CA01102C000000DB
:2010F00000100000D0120020040000000000000000000000200000006CCA0110240000003F
:20111000FFFFFFFFD81200200400000000000000000000002800000090CA011024000000FE
:20113000FFFFFFFFE01200200400000000000000000000001400000008CB0110180000007D
:20115000FFFFFFFFE812002004000000000000000000000058000000B4C90110340000004B
:20117000FFFFFFFFF01200200400000000000000000000001000000020CB01101800000019
:20119000FFFFFFFFF81200200400000000000000000000001C000000B4CA01102400000046
:2011B000FFFFFFFF001300200400000000000000000000003800000044CA0110280000006D
:2011D000FFFFFFFF081300200400000000000000000000005400000078C901103C000000E2
:0811F000010000003C78010041
:0411F80001000000F2
:0411FC0000000E00E1
:0412000000000F00DB
:0412040032000000B4
:0412080001000000E1
:04120C009C11002011
:0412100000020000D8
:0412140000000000D6
:0412180001C90110F7
:04121C0000000000CE
:0412200000000000CA
:0412240008000000BE
:0412280000002200A0
:04122C001C10002072
:0412300000000000BA
:0412340000000000B6
:0412380008000000AA
:04123C00401100203D
:0412400000000000AA
:0412440000000000A6
:04124800080000009A
:04124C00000000009E
:04125000000000009A
:041254000000000096
:041258000000000092
:04125C00010000008D
:04126000B4100020A6
:041264000600000080
:041268000100000081
:04126C004C0F002003
:04127000000000007A
:041274000000000076
:041278000002000070
:04127C00000000006E
:02128000290043
:02128200010069
:02128400250043
:02128600300036
:02128800310033
:02128A002D0035
:02128C0001005F
:01128E00015E
:0812900003000000E0770100FB
:0812980000000000000000004E
:0412A0000000010049
:0412A4000000030043
:0412A80013C401105A
:0412AC009359010051
:0412B000B812000070
:0412B400B81200006C
:0412B8000000000032
:0412BC004C120020B0
:0412C000FB5A0100D4
:0412C4002000000006
:0412C8005477010056
:0412CC004475010064
:0412D00029C101101F
:0412D4000F1A0100EC
:0412D8006B1E010088
:0412DC00A1C7011095
:0412E000A3C701108F
:0412E4000000000006
:0412E8000E7801007B
:0412EC00C0730100CA
:0412F000D8730100AE
:0412F400A8730100DA
:0212F8000200F2
:0212FA000900E9
:0212FC000100EF
:0212FE000000EE
:0113000001EB
:04130400895A010001
:04130800D9390100CE
:04130C00ED4D0100A2
:04131000F13D0100AA
:04131400BB3E0100DB
:041318005925010052
:04131C0025F50000B3
:04132000C55C0100A7
:04132400390F01007C
:0413280015C70110D4
:04132C0025C70110C0
:201330002DE9F04F0D4685B0804615F8010BDFF87C27DFF87CB78DF8000008F1FD01801E43
:20135000152808F59E7408F20D1A08F1E70908F5B07608F5C67700F29583DFE810F00701F1
:20137000930316004400480073039303BF0093037B00D1007F0086000F01DC011D02FD006A
:201390007D03E002E0022402960208F1A00608222946304615F018FA05460821304615F087
:2013B0000FFA08F1980704222946384615F00CFA0421384615F004FA00204142414408EB9D
:2013D000000291F89F1082F8BF10401C0828F4DB08F1C702314608F1D70015F0EDF901200A
:2013F00089F800005FE3012089F813005BE399F80D1099F81600012900F010000DD130B1E9
:20141000002060712168A07949080EF0E3FF98F80600002115F0CCF90FE040B12268DFF836
:20143000940608F5A1735208414614F0F9FC98F806000122002115F0B7F9012088F8660081
:20145000404611F0E8FA08F166010120887189F80F0028E3012089F8100024E3287889F824
:201470000E00012089F814001DE399F8120001281CD199F80030012B4AD099F81600030727
:2014900004D40E218AF80C100721F8E1002002F109062B5C365C33432B54561C365C3340EF
:2014B0000B54401C0828F2DB0921E8E199F81600030701D40E217BE1002002F109062B5CB7
:2014D000365C33432B54561C365C33400B54401C0828F2DB40460FF077F9DAE2002002F182
:2014F00009042B5C245C23432B54541C245C23400B54401C0828F2DB022089F81500D2E26C
:2015100099F81200012804BF99F80010012906D13D208AF80B0001208AF80A00C3E29AF8BC
:2015300000000128FAD015F8011B8AF803100222294608F5897015F047F90146022208F5B4
:201550008A7015F041F901208AF800009AF802000028E3D10C2192E199F81600C10601D44C
:20157000122125E1404610F0B3FB92E228788AF80B00F02100208AF80A0007E199F8160001
:20159000810707D410F0110F08BF0F2000F07C821A22F1E008F166010A7C012A04BF497C2E
:2015B0000F2910D008F16601497D19B108F166035A7C22B108F166031A7F012A05D14007C5
:2015D00058BF0F200FD52322D6E021B108F16601497C012904D008F186018A7A012A06D15B
:2015F000400758BF0F2040F14F822A22C4E02878697800EB0120A081E978A87800EB012021
:20161000E0816979287900EB01202082E979A87900EB01206082287A2075A97A687A00EB90
:201630000120E082297BE87A00EB01202083A97B687B00EB01206083297CE87B00EB012058
:20165000A083A97C687C00EB0120E083297DE87C00EB01202084A97D687D00EB012060842A
:2016700008F5AA700490E08A0390207D0290B8F808000190608A0090238AE289A1894046F8
:201690000DF0D4FE28B199F81600410773D40F218EE0E08908F186018880208AC880608AF1
:2016B0000881022088F886000020488008F16601B8F83400C01DC88308F186008188B8F8DD
:2016D0003200814201BF08F18600C188B8F83400814206D108F186000189B8F8360081424D
:2016F00017D008F16601487D28B108F166020F219176FE21C3E0FC2140460EF033FD608AE0
:201710000090238AE289A18998F8060015F048F8C9E10021B3E0AE78E8782F79AC7906EB6A
:201730000026687907EB0027E87905F10B0104EB00240491BBB2687AA97A00EB012080B2BE
:201750000390B2B2287A0290B8F808000190A0B200906978287800EB012081B240460DF0E0
:2017700065FE58B199F81600410701D40F211FE040460FF06BFD1E220F2135E008F1860009
:2017900008F186018680CF8004810021404605B0BDE8F04F11F058BF287830706878707087
:2017B000012060727FE199F81700C10703D416218AF80C106AE108F16600417C16291ABF2B
:2017D000BA79012A23220ED0002918BF012909D00F291CBF017F01291EBF08F18600817A61
:2017F000012907D12A221621404605B0BDE8F04F11F046BF6978287801F0070108402870D5
:20181000797B01401CBF481E0142F9720CD0490704D5B87B10B10421F97205E0F97A022091
:2018300001420CD14008FBD1F87AB97A884204BF0020F872F87A20B9002139811EE0F8721A
:20185000F2E7B8F83400C01D3881F87A042803D1404610F0B4FAB0830123F87AB97B3871D9
:20187000B28B10F085FF0146308B884205D3B28BB97B3879012310F07BFF7880182140467C
:2018900005B0BDE8F04F0EF06DBC6978287801F0070108402870F97A01401CBF481E0142E6
:2018B000F9720CD0490704D5B87B10B10421F97205E0F97A022001420DD14008FBD1F87A03
:2018D000B97A884204BF0020F872F87A28B90021B87A39810DE0F872F1E7B8F83400C01D5E
:2018F0003881F87A042803D1404610F068FAB083F87A3871B28BB97B3879012310F038FFFA
:201910000146308B884205D3B28BB97B3879012310F02EFF7880387B40F02000B0E0297874
:20193000687801EB00217182A878E97800EB0120F0826979287900EB01203082E979A879F4
:2019500000EB0120B082B18AF089884288BF0846B97A042905D140F691229042B8BF4FF47B
:201970002960F28BF0839042B87A14BF01250025042803D1404610F022FA04E0B089F18A82
:20199000884288BF0846B28BB083904214BF012100210D433089718A328B884288BF084660
:2019B000904214BF012100210D433083B28BB97B3879012310F0DCFE0146308B884205D368
:2019D000B28BB97B3879012310F0D2FE78807189308A728B814288BF01467183914298F890
:2019F000063014BF0120002005438A4232490A6802EB4311728B8041121DC00F0A7610B14E
:201A1000404612F0E9F89DF80000142810D145B1F08B0090738BB28B318B98F8060014F009
:201A3000BBFE404605B0BDE8F04F15210CF032BE1DB1387840F008003870397841F020013B
:201A5000397030E028780F2809D0122804D0142808D016280ED026E00020207123E00120F4
:201A7000207220E0387840F00200387040F01000387018E0387B40F00200387340F010008A
:201A9000387310E09DF800008AF80C0040460FF069FD40B99BF8000005B0BDE8F04F4FF425
:201AB00080410AF083BA05B0BDE8F08F941F00206E4F002055F300000C2000202DE9FE43AA
:201AD0000546CD4C28786179913800F008821F3800F00C81203840F04682A878E669A77823
:201AF0000FF22C38002800F0ED80401E00F09A80001F0FF210395FD0401E00F0B380401E0D
:201B100000F0A980801F40F02E822A69287B1118491E1018401E904240F2258212F8016BB0
:201B3000002E45D01078022803D0032818BF32443ED1761E521CF6B2022E36DB7010914208
:201B500033D91378F02B02D15378FF2B06D0B61E401E02F10202F6B2F1D126E095F804906B
:201B7000082F05F1050880F2FE8177B104F1A2063D4640463146062213F0D6F8002800F0D4
:201B9000F2816D1E06F10806F3D14246136804EBC700A030811C0B6092888A807F1C80F8A6
:201BB0000190FEB2A670BDE8FE83012E08BF521C9142B3D8BDE8FE83687808BB02276889F3
:201BD00067710123A081608A237220B904F1580014F0EDF9E669304639460022BDA312F081
:201BF00038FEE469281D0FF0ABFF034603210022204612F02EFE082000F07CFABDE8FE838D
:201C100000274FF6FE7067710221C5A33A46A0813046A77112F01DFE687803214B463A4616
:201C300000904AE00025257130460221C7A32A46009712F00EFEA07828B1E06903212A4639
:201C5000CAA312F006FE4FF0FF3005212A464346E070E66904E0E8780221C8A30090002251
:201C700030462BE0002666714FF6FE70A081A6716682052726724FF0FF336772A888E37072
:201C900011F022FAE0690221C1A3324612F0E1FDA8790090E06903214B46324612F0D9FDF0
:201CB000E0690421324614F013F8E0690621324614F00EF8394632464346E06912F0C9FD9C
:201CD000BDE8FE836889A082E81C0FF039FF034601210022304612F0BCFDE0690221002234
:201CF000AFA312F0B6FD05210022E5E7022940F0EA806878E669162800F0DD8028790B2866
:201D100000F09880012803D1287A0A2800F092802979132900F08280012902D1287A12282F
:201D30007CD07E296AD07F2963D0A07900285CD11B2940F0C8802889292840F0C48001A842
:201D5000002105220DF05EF9E9686A8901A80BF0CDFB9DF80400A52836D19DF805000128F7
:201D700032D1042701AA002012F8011B7F1E81EA0000F9D19DF80810814225D1D74FBDF821
:201D9000060013F0C3F9D6A20CCA07F0B5FB0DF0BAFD39460DF0F5F8394608F041FC024660
:201DB00039460EF005FE0FD2CF4910460EF0D0FD0AD2CE490DF0E5F811F0F8FF0146CC4859
:201DD000006814F055F8E669E06A0F21002277A3401CE062401E0090304612F03AFD0022D8
:201DF0000092E669102174A36AE0284607F082FF69E0288974A360E008020020287A76A344
:201E10005BE0C046526561736F6E3A20256400C0446973636F766572202D3E00012907D09B
:201E3000E07971A3401CC0B2E071401EC0B239E071A336E02879012832D02889082100222B
:201E500071A30090304612F004FDE86800780090E069092100226EA312F0FBFCE868407856
:201E70000090E0690A2100226DA312F0F2FCE86880780090E0690B2100226DA312F0E9FCC6
:201E9000E868C0780090E0690C2100226CA312F0E0FCE86800790090E6690D216CA303E0CD
:201EB0006FA3287B009004213046002212F0D1FC0020207207E028796DA300900421002220
:201ED000304612F0C6FC297905F1080014F060FCBDE8FE83436F6E6E65637465640068781F
:201EF0000E3825D0801E3AD02E383CD1A8780C2839D1E978E06971B90321002261A312F0FE
:201F1000A8FCE879012814BF63A065A00421002265A300909DE6032167A306469FE6C04641
:201F3000436F6E6E656374204661696C656400C0A88841F20541814215D1A86890F90300B4
:201F50000421002261A340426AE6C0464465766963657320466F756E6420256400C00820DE
:201F7000002107F0EFF8BDE8FE83C0463C2D20546F2053656C65637400C046C05061726110
:201F90006D205570646174653A20256400C046C0446973636F6E6E656374656400C046C0FF
:201FB000496E697469616C697A656400436F756E743A20256400C0464B6579436F756E7477
:201FD0003A20256400C046C04D54552053697A653A20256400C046C046432056696F6C614A
:201FF0007465643A2025640057726974652073656E743A20256400C0577269746520457247
:20201000726F7220256400C04C656E3A202564005265616420727370313A20256400C046E7
:202030005265616420727370323A20256400C0465265616420727370333A20256400C04677
:202050005265616420727370343A20256400C0465265616420727370353A20256400C04653
:2020700052656164204572726F7220256400C046415454205273702064726F70706564208F
:20209000256400C05048592055706461746520436F6D706C6574650032204D62707300C076
:2020B00031204D62707300C043757272656E74205048593A20257300504859204368616EFC
:2020D0006765206661696C75726500C052535349202D64423A20256400C046C0CDCCCC3EDC
:2020F000000000000088C340CDCC4C3F0000804F242000202DE9F041CE4C014660790FF26C
:2021100030380A09ADF1180D80F098814909C0F0288294F90310C84E002873D13078B1F1D0
:20213000FF3F39D12079012800F01B82E0690127002502212771BAA3A5702A4612F089FB3F
:20215000E069434603212A4612F083FBE069042143462A4612F07DFBE069052143462A4640
:2021700012F077FBE069062143462A4612F071FB307812F049F98DF80C0003AA8DF80E70D7
:2021900003208DF80F50D3498DF80D00102006F011F841F2707084E1012204EBC105627128
:2021B000A0356F7812F030F98DF80C0000268DF80D608DF80E60AD1C8DF80F70296804A882
:2021D0000160AB888380C94903AA102005F0F2FFE0690221D0A3324612F03BFBE769284636
:2021F0000FF0AEFC034603213246384612F031FBE0690421324613F06BFDA6704FF0FF30C0
:20221000E0704CE1022840F0AC81617AA389628A307800291D4600F0AC80491E71D0C64EAB
:20223000491E34D0491E00F0E380491E03D0491E00F0B78095E131462A461020012305F0FB
:20225000B9FF002800F08D81A07A02281ABF401CC0B20020A07204EB8000C06C0090E069FF
:2022700002210022C2A312F0F4FAE0690321002213F02EFDA07A0019807D00900023019083
:20229000B9490293A289102005F094FF69E1184613F0C8F978BB1A4631461020012305F0F5
:2022B00089FF002800F05D81284613F0BBF9071C15D1618E4FF6FF7004F13007884240F099
:2022D0005081242013F059FE0028786000F04981A6490022134610F03BF87D8002E0786869
:2022F00013F067FE4FF47A70388078684FF47A7111F01EF935E1184610F0E6FE0421A1A39A
:20231000E6E0002A00F02D81207A012800F02981E0690421002213F0DBFCA08912210222D8
:20233000002314F031FA0490F0B10221ADF80E1001270770049900264E702A238DF81460BA
:20235000A5898DF815602078ADF80C3012F05CF8BF49009003AB2A46102005F02BFF18B1A8
:2023700003A8122114F014FA04F17C0013F021FEF7E0002A00F0F580207A012800F0F18040
:202390002078ADF80C2012F03FF8B24900902A4603AB102005F00EFFC0B208B901202072CA
:2023B000DFE00326667112F02FF802462B461320A9490090102005F0FDFEE0690221002209
:2023D00074A312F046FAE06943460022314612F040FAE06904210022434612F03AFAE06955
:2023F00005210022434612F034FA00206072B8E04FF4C8704FF44877ADF80E000026ADF847
:202410000C504FF41674ADF810709449ADF8126003AAADF81440102005F0CCFEA1E0C0464E
:20243000446973636F766572696E672E2E2E00C000C046C0080200209806002000285FA5EB
:202450004AD12079012800F08C8094F90300A278401C41B2E0698A422ADDE170491C0022A6
:2024700050A30091022112F0F4F994F90300E66904EBC000A2300FF063FB0346032100226A
:20249000304612F0E6F9E0690521002248A312F0E0F9E069062100222B4612F0DAF94FF463
:2024B0007A700EF05BFC04F17C0013F080FD58E04FF0FF31E17043460022022112F0C9F952
:2024D000E06903210022434612F0C3F905213FA3E06943E091D80000022842D1607A0528F5
:2024F00006D0401CC1B2084604E0C04631A50000002001466072E06901B3491E16D0491E2F
:2025100012D0491E0ED0491E03D0491E24D132A30DE035A30BE0C046436F6E6E6563746930
:202530006E6700C036A302E03BA300E03FA30521002212F08EF90EE0B17F01100521002253
:202550003EA312F086F941F288300EF007FC04F17C0013F02CFDE06906212B46002212F07B
:2025700078F906B0BDE8F081F10F0100E959010050485920707265666572656E63653A2040
:20259000257300C0525353492043616E63656C6C656400C0446973636F6E6E656374696E56
:2025B0006700C04644657669636520256400C046436F6E6E656374202D3E00C03C2D204EB3
:2025D000657874204F7074696F6E00C0446973636F766572202D3E00446973636F6E6E6544
:2025F0006374202D3E00C0465365742050485920507265666572656E6365202D3E00C04676
:20261000436F6E6E656374696F6E20557064617465202D3E00C046C0546F67676C652052F2
:202630006561642052535349202D3E00476574204E6F74696679202D3E00C04647415454FA
:2026500020526561642F5772697465202D3E00C0CF5F0100D35F0100E51401107D1501103A
:202670002DE9F047040082B028D1002012F0E4FE24E020460EF05BFADAE1297C012940F053
:20269000D481C078002800F0D781B8F8020098F800104000A8F802004900B8F8040088F87C
:2026B00000104000A8F804000121B8F808000001A8F80800297720460EF0C8FD04F166056A
:2026D000687D002800F0BE81697CDFF8FC04002904F1860804F1EC0604F5897904F5A27A4F
:2026F00004F5C677C9D001293FD0022931D0032946D0062900F08A80072900F08C810829CD
:2027100000F0B380092900F0BF800A2900F091800B2900F09B800C2900F0C1800F2900F024
:20273000DC80112900F00381122900F0D080142900F04E81162900F00881182900F02E8170
:20275000F02900F08181FC295FD0FE2900F086818BE7297C01298CD1C078002800F0EE8090
:2027700020460EF073FD162173E1297C012940F08981C078002818BF88F80A109BD185E13E
:20279000297C012940F08681807850B10021A9719AF80200012804D18AF8021020460DF066
:2027B000E1FCB07B012809D100213160716088F80E000621204610F047FF7FE7F07B012820
:2027D00018D120460EF042FD002188F80E1001202870204610F01FF90120A871002070732A
:2027F000717AA07906291ABF00221A21002213F0DBFF63E799F80500012844D0298B481E2A
:20281000288380B2002800F071811AE1287C012840F04A81B17A012917D120460EF016FD4A
:20283000002030723073F072B073B072F073707344E7287C012840F04681F17A012902BFF1
:20285000002088F80E000B21B4D036E1297C012940F042818078002800F042810321A9E7AA
:202870000022222113F0A0FFABE1287C012840F04681307C022804F1FD0240F04981A17913
:20289000002013F07DFF16E7297C012940F04B818078002800F04B81618CE1830BE7287CFE
:2028B000012804F20D1140F045810A78012A40F048814878012809D1B9F8022000920020E7
:2028D000CA78B9F80030A17913F056FFF3E6297C012940F0478180782EE0287C012840F0B0
:2028F00045819AF8011001290BD19AF81C000F281CBF002012F0A0FD00208AF80100002116
:2029100058E79AF80200012808D100218AF8021023220F21204610F0B3FECFE69AF800004A
:20293000012840F0278100218AF8001042E7297C012940F02281C078002823D1298B481E9A
:20295000288380B200288FD07BE0287C012840F01881397B880648BF1821E7D4C80712D51F
:202970009AF81C0016281CBF002012F065FD387B00F0FE0038730023A1799AF81D000022A2
:202990000AF03AFB97E6880740F1FF8001F0FD0139730023A17900221A20F1E7297C012961
:2029B00040F0F980C078002800F0FA80397BF87A40B98A060BD501F0DF013973BA7AA1793A
:2029D0001346DDE701F0DF0139730120B87172E6287C012840F0EB803878810604F5B376EA
:2029F00012D500F0DF00010738700AD500F0F7003870308B0090B38AF28A718AA07913F0D8
:202A1000CBFE0020307056E6810740F1D48000F0FD003870F5E720460EF0A4FD0128F2D073
:202A30000FE0002012F008FD0BE020460BF04EFC2874E88A288304E06089E98B884200F026
:202A5000B4800020BDE8F687407A0028FAD099F80610204612F018FA0120F3E7A87E0F28CB
:202A7000DFD1FC21204610F0EFFDBAF80A000090BAF80830BAF80620BAF80410A07913F037
:202A90008FFEDEE720460CF007FFD1E76089B8F80C10D3E720460BF06DF82874E88A2883C6
:202AB0000020B073F073CDE720460EF031FE2874E88A28830020B072C4E7288B401E2883B7
:202AD00080B298B1BDE720460EF070FF2874E88A28830020F072B5E720460DF077FBA7E7BA
:202AF000288B401E288380B20028AAD1317AA07901297FF4B5AE222113F05AFE61E020462C
:202B10000DF0EAF82874E88A28830120307498E7288B401E288380B2002892D1A1792220F4
:202B300013F02EFE4DE020460DF04EFE80E7288B401E05E70120887020460CF03DFC2874C6
:202B50007FE7288B401E288380B20028F8D1B9F8020000902220CA78B9F80030A17913F05B
:202B70000BFE2EE020460FF08BF861E720460AF093FA5DE7288B401EE2E620460DF078FF1A
:202B900056E7204609F0AAFE52E7288B401E288380B2B0B155E71821204609F09FFE47E7BA
:202BB00021893889491C8842F4D1282151E720460BF070FD3CE7288B401E288380B200281E
:202BD000E8D1222145E700BF5C4D00202DE9F04FC54C20780E46F10BADF1340DC9036DD1FE
:202BF000B0085DD2606AA16A720807D2F00828BF86F0040680F02B82002029E2858861B9E8
:202C100004F11800C74A00904FF6FF710223012013F0AEFD0146A16219B304A800900027D4
:202C3000019702230293FF220392228B284608AB03F098FA58B99DF821009DF82020A16A82
:202C500012EB002204D0498928460FF0C3FEA16A228B08463B464FF6FF7113F085FD014669
:202C7000A162206A00291CBF012186F001061FD168B14368616A5BB1888800220121984756
:202C9000206A676A4368B888032100229847616A888812F0D3FE12F0B3FB86F00106D6E127
:202CB0000020014604F030FA30B1012186F00206207809F07BF9CAE10221F7E70AF0EEFF66
:202CD0000028099000F0C18105462878B03800F05081401E00F044811F3840F0B181A87871
:202CF000801F00F03981C01E00F01E81401E57D0401E33D0401E00F02A81801E40F0A2813E
:202D1000687806281FD12846808813F029FD071C19D0A07B401E12D0401E0ED0401E12D122
:202D3000002140F209400A4602F006FA284681883878052213F010FD05E0A988F8E7A88822
:202D500079790FF0BFFD206A002800F07B814368002B00F077816A780221DFE012F016FF7F
:202D7000002800F06F81276A0FB1386878B9286900280CBFE0690120698913F0E9FC002829
:202D900000F060816889012113F0DEFC5AE1286900903C6869892A7B6B7BE81CA04751E1C8
:202DB00068784FF0000A002840F0A280A8794008C0F09E80606A002840F09A800DF11200DD
:202DD00051460E2213F003F9A88813F0C9FC5FEA000800F03781686900285DD051468146A8
:202DF00006220A9109F1110012F0C7FB20B34846062212F0C2FBD8B999F8100009F1110BA1
:202E100057460B907F1C5846FFB28BF8007011F09DFC0A280BDA914B0B9A0101A1EB40018C
:202E3000C9188879824202D1002FEBD100E01FB901200A9057466F610A9850B909F1110187
:202E50000DF11200062212F0B9FC99F810008DF818000A9801281FD06F69EFB1387C07F157
:202E7000110106228DF818000DF1120012F0A6FC08F10C0008F10601062212F09FFC08F1F4
:202E9000060007F11101062212F098FC387C40F0020088F805000AE098F8050008F106016A
:202EB00006228DF818000DF1120012F087FCA8799DF81F10C0F3800008438DF81F00A87980
:202ED000000905D39DF81F0040F008008DF81F000DF11200294604F017F938B92078022142
:202EF00009F064F8B1E0C046100B00204FF0150A12F07EFF206A002800F0A4804368002B22
:202F100000F0A080A8886A7801219847BAF1000F00F09880206A032152464368A8889847BC
:202F300090E0C046FA780100E878291D002209F07BFE0A2880F28680410001EB800005F111
:202F50000C0225300421C0B207F062FC7AE0A888297B0CF091F875E0A8880EF085FB71E00B
:202F7000287900286CD16888E9882A890FF032FD66E02879401E26D0083802D0743853D0DD
:202F900059E068781A284BD06888804612F02AFF022850D12889012201280AD1688903288B
:202FB00007D1E868807820B9404611460FF0F7F80246206A00283ED04368002B3BD04046CE
:202FD0000521984737E02B7A688805F10807082B814625D112F006FF022821D16889002106
:202FF0000FF0DDF88046607D90B1484613F0B8FB70B119490B784BB94179831D012201F04D
:2030100001010846194612F091FA01E001202075206A28B143681BB1788805214246984766
:20303000688812F00BFD06E06A8812F0DBFE0146104611F0B7FB297905F1080013F0A8FB3D
:20305000012002D0284612F031F886F40046B0B20DB0BDE8F08FC0465A4F0020020C0020D4
:203070002DE9F04FB94C04F120012046ADF1240D0EF0EEFC04F140050021284613F060FB8C
:20309000C9494FF47A72002304F1580065620FF05FF94FF080400021FDF77CFF00274FF05C
:2030B00008084FF6FF75DFF80893C04EE061022265864FF47A636763494686F801801020BF
:2030D00005F078F8102003224FF47A63494605F071F8B848B84915233A460090102005F0AB
:2030F00069F844F6C740DFF8D49205904FF481628DF81E7004238DF81F7001208DF81D0015
:2031100049468DF8200005A80090102005F052F80DF11D004FF4806201234946009010200C
:2031300005F048F80DF11E0040F20242012349460090102005F03EF80DF11F0000904946DE
:2031500040F203420123102005F034F808A8494640F2064201230090102005F02BF8DFF8E7
:20317000EC921020494605F025F8207811F04CF9B7490246102005F01DF8B64910204FF022
:20319000FF3205F017F8B44910204FF0FF3205F011F81020494605F00DF8B0491020042247
:2031B00005F008F804F12800B060307811F02CF90246707806F1160543460090A84901952D
:2031D000102006F1260502950C36039604F0F2FFA44904F13802102004F0ECFF207811F072
:2031F00013F9A1490246102004F0E4FF207811F00BF99E490246102004F0DCFFE0693946E7
:203210006FA30A4611F025FB0FF05AF8BB46DFF87492206A9A4A59464FF0FF3313F08CFAE5
:20323000061CF6D05846049007A904AA06A810F0F1FD78B9BDF81800102807D120789DF82F
:203250001C10884202D10498FEF738FC049808B112F05EFEF00FC0F08A8082E0606A0546ED
:2032700013F066FA854208BF5F4602D0876810F017FC381C75D03888401E69D0401E61D055
:20329000801E49D0001F23D0083867D17868B4F80C80057859465A4609F014F9B0FBF9F16E
:2032B00001FB09F1401A824635B10090E06904215A4646A311F0CDFA7049CDF800A0102063
:2032D00042465B4604F076FF786810F0E9FB45E07A68BD78E1691078ADB1012D0CD0022DE3
:2032F00007D0032D16D1002808BF3CA30CD040A307E078B944A307E0002808BF46A303D0B2
:2033100049A3009000E04DA308465A46022111F0A0FA7A681046D8E77D686A884FF6FF7023
:2033300090421BD054491020012304F043FFA8B16868298810F0FCF86A884E49102004F01E
:2033500039FF0BE0B878FEF7D5FE07E0080200207868FEF7B3FB786812F0DAFD384610F077
:203370009FFB606A13F0E0F900283FF477AF7008FFF44FAF0120A071A78AA4F812B0A58924
:20339000A4F810B0381FADF81A002078A4F80EB011F03AF8364900900DF11A032A461020BC
:2033B00004F008FF35E7C0465D5B010098060020BD840110CE76010059F7000049510000E8
:2033D000424C452043656E7472616C0050617373636F64653A20256400C046C0426F6E64C3
:2033F0002073617665207375636365737300C046426F6E642073617665206661696C6564F8
:203410003A20256400C046C0426F6E64696E6720737563636573730050616972696E67202F
:20343000737563636573730050616972696E67206661696C3A20256400C046C050616972C8
:20345000696E6720737461727465640089DF0000AD5D0100F14C01001D5001003D57010053
:2034700019190100515201005188011031810110E137010025AB0010B17F0110ED3E010052
:20349000010000C040420F002DE9F84FDC4DDFF874832968DC4F887CDFF8709312F0B0FA30
:2034B0002A6800210446517104F12E0628680FF081F9012060711C2598F80100401C88F86B
:2034D000010080200BF0ACFB20607969C160D048018949007180C079B1884000307049009F
:2034F0003089B180000130813146204611F05EFD0520A081204611F03DFF386813F010F952
:20351000062210F8081FC1F3801184F82E11811C04F5947012F052F93968BE4F0A6800201D
:20353000107141F62202A1793868694342520022A17969430144001D4A80A1796943425039
:2035500099F80200410609D5B349088841F20A4290420CBFB148B248C4F89C012046D4F87D
:203570009C118847A27939686A4311448873A1793868694308440021C173A1793868694399
:203590000844807BF07294F8960108B911F054FFA1793868DFF88CA26943084494F8961150
:2035B0004A1E02740022A17938686943084400214174A17938686943014400F114034A82F4
:2035D000A179DAF8002002EB411269435A50A1796943084494498161A07909F023F8A27920
:2035F000DAF8001052018850A2795201885820B90721204611F048FCFEE011441F200876C4
:203610000022DAF80000A179DFF820B200EB41104276DBF80000A17900EB011013F07CF88F
:20363000A179DBF80020DAF80000DFF804B202EB0112031D49015A50021DA3795B0104F16E
:203650006801D2580A60A279520183588B60DBF81410097894F806E0CA074CBF102200220F
:203670008B074CBF202300235FEA417C4CBF4FF0400C4FF0000C09074CBF8021002113431D
:203690004CEA030300EB4E100B4343F00F030372DAF80010A07901EB40110B224A72DAF89A
:2036B0000000A17900EB411004228272DAF80010A07901EB40105F490A78012A02D1012307
:2036D000C37203E0DBF828100A78C272DAF80000A279636A00F10C0152018B50A17900EB16
:2036F0004110A16A0174DAF80000A17900EB4110A16A090A4174DAF80000A17900EB4110C6
:20371000A16A090C817408214B48007808F04EFC2168A2793868CB686A4302449360CA687F
:203730000A61CA688A6000F10C02A17969430C30525C02F0EF024254A0793968684301F173
:203750000C020C31125C02F07F020A54A0793968684301F10C020C31125C02F0F00242F0A9
:2037700002020A54A179386869430844417B01F0F00141F001014173B688DBF830C0DAF8CD
:203790000010A37940F6C4104643DCF8000001F114025B01361AA6F51676D650A27901EB7E
:2037B0004210C17C01F0F00141F00401C174A17938684D4321684019486099F80100810630
:2037D00014D504F59771488F1B2804BF888F1B2808D1C88FB0F5A47F04BFB4F86E11B1F52C
:2037F000A47F03D0142120460CF0BCFC134908200870A17988F80210BDE8F14F00F020B81F
:20381000184F0020684E0020AC4B0020941F0020844C002008200020504F00204B100100FE
:203830006B1901000C2000205C4D00208C4E002050780100734F00206E4F00206F4F00207E
:203850002DE9FE4FDFF87483D8F804701FB9BDE8F74F12F05DBF3878DFF86493DFF864A3A6
:20387000DFF8644301281CBF0228042841F64C5B05D0402818BF802800F0C28097E112F01A
:2038900075FA0028FAD0387805F066FF05466E6816B9002011F0D0FDDFF8301348780028CD
:2038B00000F0868002F066FD12F0AAF801900168009128464F6809F07DFD02284CD02978FF
:2038D000022902D0042921D071E10521217018B912F01AFF5844B0603069C17E01F0EF0163
:2038F000C1763069C17E41F08001C1763069C17E01F0F00141F00201C1760221B868824492
:203910003069C0F820A088F8021077E00621217018B912F0F9FE5844B060AD480168887C0D
:203930000FF0CAFE3069C17E01F0EF01C1763069C17E41F08001C1763069C17E01F0F00145
:2039500041F00201C1760421B86882443069C0F820A088F8021051E000980178802913D16F
:2039700008229C4822700178012903D0974A5078022803DB78690121C17213E0D9F828103E
:203990007A690878D0720DE09249072020700A787869012A02D10123C37203E0D9F828104D
:2039B0004A78C2720198894A817900989170FAE0002D14D02878AF420DD102281ED0042864
:2039D00005D183480168887C0FF076FE16E0002011F032FD12E0022802D0042804D0E6E05C
:2039F00005202070022007E00620207078480168887C0FF061FE042088F802002846D2E0F2
:203A100072494878002800F0968002F0B3FC11F0F7FF0190016800914D686C49887811F05F
:203A3000EFFF029012F0A8F910F0070F53D098F8020005F091FE06460099776809F0BAFC91
:203A5000022848D03178022902D004291AD03FE00521217018B912F057FE5844B860386904
:203A7000C17E01F0EF01C1763869C17E41F08001C1763869C17E01F0F00141F00201C176E9
:203A900002211DE00621217018B912F03DFE5844B8604F480168887C0FF00EFE3869C17E8D
:203AB00001F0EF01C1763869C17E41F08001C1763869C17E01F0F00141F00201C1760421C3
:203AD000A86882443869C0F820A088F8021069E0002011F0B1FC02980199884229D00098AF
:203AF0000178802913D108223A4822700178012903D0364A5078022803DB68690121C17286
:203B100013E0D9F828106A690878D0720DE03149072020700A786869012A02D10123C3723C
:203B300003E0D9F828104A78C2720198274A81799170009837E012F01FF910F0070F3BD0A4
:203B500098F8020005F008FE064646F2A81530787768022802D004280FD02DE00520207037
:203B700012F0D2FD2918B86812F0CAFD18B912F0CBFD5844B860022012E00620207012F01F
:203B9000C3FD2918B86812F0BBFD18B912F0BCFD5844B8600E480168887C0FF08DFD04208A
:203BB00088F802003046BDE8FE4F08F0D5BBBDE8FE4F002011F040BCBDE8F78FD81F002032
:203BD00050780100F0D8FFFF6F4F0020684E0020184F0020734F00202DE9FF47CA4C0F4662
:203BF0000646F80B80F06581B80880F05281E07ADFF82093B90F80F0CB80607A002840F074
:203C1000AB803809C0F0AA80A07A20B10020A07205200FF0ADFF00254FF00108BB4965701B
:203C300004F174002A4684F8078012F0A4F9207901281AD16079C0B9DFF8D4A2DAF80000DB
:203C500000284DD048460068006B8047524661691368401A010BA161E0694018B0EBC31F84
:203C700098BFE0613CD9E56101E084F80480DFF8A892A9F115000068000A31D340F60900EB
:203C9000A08694F8410000F0F00040F0010084F84100E58694F8400000F0F00084F8400080
:203CB000A56312F062F94B4603F6FF7211686FF0020C21F00201116004F13401C3F8FBCF7A
:203CD000964AC3F8EB1F11688908FCD3C3F8FBCFD3F8FF1F41F00201C3F8FF1F12F00CFDD0
:203CF0008F4A10688F4920F00200656140F400701060032341F8043C41F230038B60404629
:203D1000086050238B6008604FF4CA638B6008602B4641F80C0C022013600FF029FF1120F3
:203D300008F002FA307C10B90E2008F0FDF9E5712572A07818B906F1380012F02AF97A4802
:203D500011F0CCFF79490878F8B10D7004F1D000042112F026F918E0380914D2B80BC0F082
:203D7000C98004F1240012F010F9061C08D0706830B17568F068B6F91C1000222023A847AF
:203D900027F40057B6E00020607227F00807B1E020B104200FF0ECFE0020E072B168088869
:203DB00040F602054FF0000885420AD0B0F5C15F07D00A8B4FF61F60104040F43470088326
:203DD00006E00A8A4FF61F60104040F4347008826069E0B1D9F85400016804208847B0B1A7
:203DF000D9F80000006B80476169814226BF401A401E401A000BF060F068718A401840F6F0
:203E1000C411F06081422CBFB0F5FA7FF16094F8410010F00F0F0BD1708CED1D854207D1E4
:203E3000B56930466FF4807142464FF00073A8473F4904F17400424612F09DF8607958B16F
:203E50000220ADF80000684610F036FB84F80580BDF80800A4F8700001206070E078401C3D
:203E7000E07004F1200084F8068012F08EF8002808BF47F0020702D0192012F07AF87569B7
:203E9000414630464FF080630A46A84727F0005730E004F12C05284612F077F806F034FD0A
:203EB000284612F072F827F0020708B147F0020720E012F05AF8014604F1280012F065F8E8
:203ED0000646B569A80810D27EB125EA0500B061084612F011FC706850B12A46F068B6F9D5
:203EF0001C1075680023A84702E0084612F004FC27F4804727B104F1D000394612F051F81C
:203F10000090BDE8FF87C046D8080020154D0100FC1F00208C0100101500044010100440D8
:203F3000000004600C41044009AB0000F81F0020259F00002DE9F043CD48CE4D01781E2499
:203F5000002985B007D0052908D0062900F09E80072918BF082900F087817FE1C64E31689C
:203F7000086800F1080999F8000010F00F0F1CBF00F00F01062908D000F00F02022A1CBF26
:203F900000F00F00012840F06F81062209F10201684611F013FC99F80000B84FC0F3801803
:203FB00000F00F0001283DD1062209F1080102A811F004FC99F800004FEAD01902A94846F9
:203FD00012F096FBD0B13868807C022818BF03285BD105F10D0102A812F086FB002854D04C
:203FF00039680120C8720622707940F00400707102A938680C3011F0E1FB13E029788945C9
:2040100010D10622691C02A811F040F850B12878717960F38201717106223868691C0C3053
:2040300011F0CCFB6946404612F062FB00282CD070696946001F0FF077FB002825D129464B
:20405000684610F040F90146FF291ED03868807C61436C18002818BF02280BD0012818BF44
:20407000032812D16A5C7069611C001F12F038FB10280AD070696A46E11D001F0CF0D5FB2E
:2040900006226946E01D11F099FBEDE07C4E3068016801F1080999F8000010F00F0F1CBF82
:2040B00000F00F00012878D1062209F10201684611F084FB99F80000DFF8C881C0F3801731
:2040D00000F00F00012848D1062209F1080102A811F074FB99F800004FEAD01902A948465E
:2040F00012F006FB20B3D8F80000C07A022818BF032852D105F10D0012F0EEFA00284CD14F
:2041100005F10D0102A812F0EFFA002831D0D8F80000062202A90C3011F050FB707940F089
:2041300004007071062202A9E81D11F047FB14E02878814511D10622691C02A810F0A6FF37
:2041500058B12878717960F3820171710622D8F80000691C0C3011F031FB6946384612F0EF
:20417000C7FA002848D02946684610F0ACF80746FF2F6ED0D8F80010887A6743EC1948BB20
:20419000887C11F03DFC804698F82E01022811BF0328E95D00F0010081425AD108F59475FC
:2041B00006222946601C10F071FF30B906222946354810F06BFF00284BD0012088F82E01F2
:2041D0000622707940F0080070716946284611F0F5FA0DE03069EA5D611C001F12F080FAB3
:2041F000102836D030696A46E11D001F0CF01DFB06226946E01D2AE0D8F80010887A40BB3C
:20421000887C11F0FDFB804698F82E01022818BF03281ED16A46394628460CF075F9FF28C3
:2042300017D044432C4404F10D0012F055FA10B9607F01280DD188F82E710622707900F06E
:20425000F70040EAC7007071694608F5947011F0B5FA31680A680020107105E0002011F073
:20427000EBF8862012F034FA05B0BDE8F08300BF6F4F002048130020D04B00201020002005
:20429000AC4B0020184F0020AC7801002DE9F04F09AFADF13C0D08900A92388809911E4665
:2042B000ADF81800101C08BF002000F08481002700F101094FF0FF3A4FF0010BB8466CE1F9
:2042D000252940F063811078521C0A922D2818BFADF8068005D15846551CADF8060010786B
:2042F0000A9530281CBF4246434605D10A9908785A465B46491C0A912A28CDF8008055465F
:2043100016D1306804930A99CDF808A0C01C4B1C20F00300001D306050F8044C0A93002C03
:204330000878009418D5ADF806B06442009413E044460AE0610001EBC4010918A1F1300477
:204350000A9908780094491C0A91302801DB3A28F0DBCDF808A004932E282BD10A990878BC
:204370002A2801F101010A9111D13068CDF80880C01C20F00300001D306050F8045C002D14
:2043900048BF454608782B46491C0A9111E0454643460AE0690001EBC5010918A1F1300598
:2043B0000A9908782B46491C0A91302801DB3A28F0DB02930AB1224604926C2804D04C28CE
:2043D00018BFADF8048005D10A990878ADF804B0491C0A910BA9CDF80C800FAB0791642898
:2043F000059300F08B80692800F08880BDF818C0752872D078286ED06F286AD0702850D0BE
:2044100063283DD073281ED009980A990128A1F101010A9115D96B490C68B5F1FF3F03D002
:20443000A84288BF6D1C00D8099D029508A80AA932466B46A0473F180A99039801F1010999
:2044500074E040462AE030680A99C01C20F00300001D306050F8040CBCF1000F01F1010981
:20447000014608B955A00146079111F0FBFA0390B5F1FF3F5BD0A842C4BF281C039056E03E
:204490003068C01C20F00300001D306010F8040C5D468DF82C000A990395584601F1010997
:2044B00045E0082035680490E81C20F00300001D306050F8041C082210230FA80BF05AFADF
:2044D000401E0790402101700A99079801F1010929E0082302E0102300E00A230A99306836
:2044F00001F10109C01C20F00300001D306050F8041CAA42BCBF2A1C049210E00A9930683E
:2045100001F10109C01C20F00300001D306050F8041CAA42BCBF2A1C04926FF009030FA826
:204530000BF028FA0790059D281A0390009C241ABDF8065000945DB906E008A8202109AA27
:2045500010F0C6F97F1C009C641E0094F5D503980546401E039075B9BDF80600E8B1009884
:20457000401E009019D408A8202109AA10F0B0F900987F1CF4E70798411C0791017809AA35
:2045900008A810F0A5F903987F1CE1E708A809AA10F09EF97F1C09F101094A460A9812F8EA
:2045B000011C401C00290A907FF48AAE089808B14146017038460FB0BDE8F08F286E756CDB
:2045D0006C2900C048780100BB482DE9F84F0025BA4CB849056094F8E200002800F0658158
:2045F000012800F02F81B64E02283CD0032840F05C8151F8250CD4F8B8100029A0F5C06084
:20461000C4F8D400B8BF49420028B8BF4042814226DA4FF08057D7F8A4014568B4F8BC0075
:2046300030214FF47F42082300903046A847D7F8A4014568B4F8C00004214FF4F8021223D1
:2046500000903046A847D7F8A401B4F8D070456820214FF440620A2330460097A8470125D3
:2046700084F8D8501CE151F8258C11F04FFB2F4600B901273946934F38680028FCD0B14602
:20469000012609F10409D9F82CA03E6009B111F043FBCAF30720C4F8BC0011F037FBAA4629
:2046B00000B9B2463B68002BFCD0D9F800B0BAF1000F3E6001D011F02FFBCBF38440C4F88C
:2046D000C00011F023FBAA4600B9B2463B68002BFCD0D9F81C90BAF1000F3E6001D011F009
:2046F0001BFBC9F38120C4F8D000B8F5C061C4F8B81000F09C8094F8D80068B9C4F8D41028
:20471000D4F8C000C4F8C800D4F8BC70C4F8C470D4F8D030C4F8CC30D4F8D410D4F8BC30A5
:20473000002954BF02206FF0010004F1C802176801EB41014018411000EB917107EBA10016
:204750001060D4F8C810C4F8C43000291CDD1E293CDDD4F8CC0030B93429B4BF15391E2125
:20477000C4F8C81025E02A29BABFD4F8C8000B381E20C4F8C800D4F8C4003F28B4BF401C65
:204790003F20C4F8C4001FE0D4F8CC00032812D011F10B0FC6BFD4F8C8000B30301CC4F80E
:2047B000C800D4F8C4000028C4BF401E051CC4F8C450032508E011F1150FC6BFD4F8C80048
:2047D0001530301CC4F8C800C4F8CC504FF08057D7F8A401B4F8C43030214FF47F424568B0
:2047F000374800930823A847D7F8A40104214FF400321123456832480096A847B4F8C860BB
:20481000D7F8A40104214FF4F802122345682C480096A847D7F8A40120214FF440620A2310
:20483000B4F8CC60456826480096A84701E084F8D85040F2FF50404502D8801C40452FD269
:20485000082030E051F8251C1F4F4BF2F5204843060A3868C0F3814001280CD11B48006846
:20487000006880470EF0B8FB11F05CFA3111C010484306EBE03694F8E50030B9144800682F
:2048900020F07F408019460801E084F8E5501148310C0660012741600F4D8760287808B957
:2048B0000B2000E0052084F8E40003F0F3FABDE8F88FC0462D400C402C500C40900C002009
:2048D00000A00C4000800C40B43F0050EC010010102009403C600C408A770100F0B5A34CD9
:2048F000A34D2778A34AA448A44BA5490D2F83B041F2064600F23081DFE817F036012E019E
:204910002E012E012E010E004E002E019600DA00DA000B010B0112019A494C881C80022C79
:2049300010602FD940F20440241A29D0641E29D040F2FB30241A1CD00A3C012C19D940F6A5
:20495000F630241A1ED0641E1AD0641E012C19D9241F15D0641E15D0641E11D04FF47E70C5
:20497000241A0FD0641E0BD0E41E09D0641E012C0DD8887B4E8025280CBF2720401E8873B5
:20499000814845E0002010F057FD852087E0002010F052FD842082E07C494C881C80022CC1
:2049B000106037D940F20440241A30D0641E31D040F2FB30241A23D00A3C012C20D940F600
:2049D000F630241A26D0641E21D0641E012C21D9A41E13D0A41E1AD0641E1BD0641E16D02B
:2049F000A41E0BD040F2F630241A13D0641E0ED0E41E0CD0641E012C02D910E0644807E046
:204A1000887B4E8025280CBF2720401E88736148106046E0002010F00FFD85203FE00020AE
:204A300010F00AFD84203AE05B498978FF295ED0106040F204461C20414358480068841C52
:204A5000645A1C80A41B012C554B50D94FF47F76A41B17D00A3C012C17D940F6F636A41BD5
:204A700017D0A41E012C84BFE41E012C11D9A41E012C79D940F2FD36A41B0AD0641E012C06
:204A900003D908E041F2024401E04FF4A054801C4452136005E0002010F0CEFC852011F097
:204AB00017FE287803B0BDE8F040012107F07EBA4888188040F20442801A55D040F6FC7215
:204AD000801A15D008384FD04FF47F72801A22D1344C354A2568354800680023CDE90023BA
:204AF00055F8086F324B0222B04732490880F7BD092F10D130490A68508960B12F490878AD
:204B10000CF0D0FB0021002011F0DEFD00202070F7BD48881880002010F08EFC85201FE087
:204B30004888188002280DD940F20442801A1BD040F6FC72801A05D0083815D04FF47F7284
:204B5000801AE8D1887B801CC0B2B528A8BF6620887300204880F7BD002010F06DFC842053
:204B7000BDE8FE4011F0B4BDF7BD00BF6F4F00206E4F0020204F0020395F0100504F0020BB
:204B9000781F00209C4C00201DE600006C4C002099340000B5EB0000684E002008200020E0
:204BB00065860000F04E002002000080EC4E0020853C0100424F002014200020714F002019
:204BD0002DE9F84FA54D804628680E464179012991461F4604D004200FF066F8012801D15C
:204BF0000C2039E19E480078092818BF0A2804D00B281CBF0C280D2801D121202CE143F623
:204C1000FD70A8F1040181423CBF311F814280F0D580B045C0F0D2805FEA090003D0B9F11D
:204C3000010F6AD102E00A98002866D0380018BF012F03D0022F18BF032F5ED10B980B9975
:204C50000091002818BF012903D0022918BF032953D11199109881424FD30C9940F67B4296
:204C7000891F91423EBF0D98801F904245D20D990C98814241D30E99B1F5FA7F3DDA0F98DA
:204C90000A3840F67742904237D20D9A0F98491C52005143B1EBC00F2FD20EF0B9FC012817
:204CB00008BF3A201BD05FEA090004BF0A98002823D002F03DF9040008BF09200FD029687A
:204CD000A07988743A462868A0F80680068180F80A9040200A9907F009F908B10B20BBE06D
:204CF00004F1610120460DF0F9FE04F12C06B07B012803DC20460EF0A3FF5FE029680B9820
:204D1000DFF86081DFF860B1DFF860A1C8720B9800281CBF0099012907D1C107286854BF25
:204D30005946414606220C302EE00AF10D0011F0D3FC78B10B98C10754BF5946414610F026
:204D5000F4FD00283AD00B98C10754BF59464146062208E00AF107010AF10D0011F0B0FCB4
:204D700006220AF1070128680C3010F027FD0B990B9801F001018AF80010C10754BF5946C2
:204D9000414606220AF1010010F018FDB9F1000F28D184F82E7104F594780A990622404620
:204DB00010F00CFD022F18BF032F1BD10A9A07F0010150460BF0A8FBFF2801D112204BE08D
:204DD0001E2148430AEB000707F10D0011F084FC002804BF787F002804D10622244940467D
:204DF00010F0ECFC11F068FCA0620FF031FF60620D98F0800F9870810E9830812868C17C92
:204E1000317000200221B170B08011F051FC0C2290FBF2F20C2101FB1200401DF073042043
:204E300009F0FEFE2968086001204871A07901F0ADFD0B48017871B90E4A107810B10E48F9
:204E50000FF0D4FD2868807C0EF036FC044906200870FEF7F5FC0020BDE8F28F184F002018
:204E70006F4F0020344E00202C4E002048130020AC780100784E0020CC4700202DE9FE4FEC
:204E90000F46994C0168E16241688068E0609748A16080479648E16A0160A168DFF870B218
:204EB0004160E168DFF8648281609249002FA246C16069D03D68E8788DF8080028798DF856
:204ED000090002A811F0F0FBA86808B18A490160E86808B189490160894C28782070687805
:204EF0006070A878BE68A0703178E1707368636072696261B168A160F168E1603169216176
:204F10002E697B68A6621868A0616869E062A8692063287F84F834002A6AA2637868866819
:204F30001EB9002010F088FA00E026627868C06818B9002010F080FA00E0606278684068E3
:204F500018B9002010F078FA00E0E0612869A062F86881680E6806B96B4E6A494FF00109F7
:204F70004E60C66881F801902EB9002010F064FAF868454601E045462E6000685C46FE6881
:204F9000A0617068E06106E0002010F055FA4FF001095C46454628685E494668621C04F1C4
:204FB00014035020B04710B1286880688047DAF808008047594F0026834669467E705648F0
:204FD0003E700422206130460EF0A0FF0098B0F5801F0CD020B90FF0A3FB04F0E5FC08E06E
:204FF0000DF04EFC10F034FD0420788001E00FF097FB4B4FB0462868C7F808808069A66045
:20501000804778604748468080F80090142010F0D5FDFF211422A06210F0D9FFE01CFF2132
:20503000022210F0D4FF142010F0C8FD3E49086008681422314610F0CAFF3046FBF7BAFC7D
:2050500048460EF07FFE39480188FF2906D1022101807822001D314610F0B9FF032011F080
:205070001FFB042011F018FB052011F011FB062011F00AFB07200BF0FBFE2D4E0820307012
:2050900006F1400011F0FCFA0CF014FA363605200A21324610F0C5F838B14046C0F10901AD
:2050B000401C06F8011B0A28F8DB2F68214909200DF10A0201AB7D68087010204146A84782
:2050D000A06ADAF80C10E2690A270A309DF80A307F1E00F8013BF9D1921E5846E261884748
:2050F00002F0BCFABDE8FE8FA40D002041490010F8440020E0670100A545010095560100E0
:20511000E00F002058120020DFF200002013002014110020814D01009D5701001C1300206A
:20513000CC1F00201813002028200020D00E0020100B00203E200020FEB51446A64DA84AF8
:2051500003460026A3F58063192B1BD8DFE813F03A0133012B0123011A0115010D0107014E
:20517000FC00F000E800E000CE00C2001A00B80096008000790064005B00510047003A00E9
:2051900030002500282880F29980022940F09680218811F071FA06461CE1012940F019810C
:2051B0002178284641750121017510F03DFC11E1012940F00E81002C00F00B81284613301D
:2051D000024614E0102940F00481002C00F0018128465C301022214610F0F0FAFAE0012976
:2051F00040F0F780002C00F0F4802A46921D1046B9E0262940F0ED80002C00F0EA8028467A
:2052100026226C30E7E7012940F0E380002C00F0E0802846401DA6E0602900D144B90129C1
:2052300040F0D780002C00F0D48028460D309AE005F192002146602210F0C0FA012068731B
:20525000C8E0012940F0C580207811F011FAC1E0012940F0BE802178022900F3BA802846BB
:2052700000F10C0211702178022918BF301C02D11021C172012011F0F7F9ABE0072940F083
:20529000A880611C6846062210F000F920786946324607F0C9FC04460A2C0FDA11F0E0F9CC
:2052B00038B9204604F0ECFA0FF018FC0CF002F990E0284601212C3001558BE0022689E0F5
:2052D000012940F086802178042980F2828028460E305EE001297CD12A462178D07B002847
:2052F000D17377D12078012874D1DFE72846027B01296ED1022A04D02178072901DB102914
:2053100004DD022A65D12178102962D1C17261E001295ED121780A295BDA2846093038E0A8
:20533000012956D12178022953DA2846083030E000294ED111F094F910B910F017FBB3E71A
:2053500028460121103024E0042942D12168234888423ED32B4603F11C0001603AE0012934
:2053700037D128460A30217813E0012931D1217802292EDA2846C01D0BE0102929D1284612
:205390004C3027E7012924D12178022921DA2846001D01701EE001291BD12178042918DCCB
:2053B0002846C01CF5E7012913D12178022910DA2846801CEDE702290BD1218810461530D2
:2053D000018007E0012904D121780229D8BF101CDFDD18263046FEBD100B00203F420F00D9
:2053F000110B00202DE9F04F0C46E00789B00BD510F0C4FB28B1002181608448006800B13B
:20541000804784F00100FDE02007814D40F1868080480168887C10F0F3FA064606F59470CA
:2054300096F82EA107904FF000087A4801688A7CC146FF2A04BF00200FF0FEFF079A5146A9
:2054500028460BF061F807461E207843009005EB000B0799504611F04BF9A8B1FF2F2CD0AB
:205470000098285C40F0020A0BF10100079006220AF0010086F82E0106F59470079910F0C1
:205490009DF90BF1070818E00799504610F04DFA002818BFFF2F10D00BF10D0011F01CF9BA
:2054B00048B90BF10D0011F017F9002804BF9BF81D00012801D14AF0020A56490868C07A9C
:2054D000022818BF032806D105F10D0011F004F908B905F10709002006905346F08E00091B
:2054F00005900022B18E0491708E0799009140080390CDF80880CDF804900020B17911F016
:20551000ABF8D6F89C0144498842B0790CBF0021012108F0F3FF84F0080073E0E00610D55B
:2055300000200690002100220023029005910492039301910092022011F08EF884F010009A
:2055500060E0E00413D5E91D05F10D0011F0B8F832484268324800784FF480510DF0F6F95F
:2055700010B18E2011F074F884F480504AE0A00505D510F0CBFB2B4901200860FEE7610540
:2055900004D505F0C8F884F480603BE0600405D5812011F05DF884F4804033E0A00430D5D1
:2055B000214D286810B100200FF046FF4FF0FF3028600BF02DFA1D4D296851F8202F68465F
:2055D00090471B48C16A026B2D68009101920021029100F134014A6809781368806A039328
:2055F0008DF81010ADF812006B462E68114A12491248B0471249086003F0A6F984F40050D4
:2056100000E0002009B0BDE8F08F00BF204F002048130020184F00204B100100784E00200B
:205630006E4F0020FC002043044F0020F04E0020E00F0020381F0020D411002088490020D1
:20565000EC4E002010B50B7884074CBF43F0020303F0FD0304064CBF43F0800303F07F0397
:2056700004074CBF43F0080303F0F70384064CBF43F0200303F0DF0310F0AA0F0B7004D011
:20569000107840F00C00107010BD18B9117801F0F301117010BDF8B50F460026387802285A
:2056B00014461D4669D1786801784278069801EB022189B2002818BFB1F5285F01D00B20C0
:2056D000F2BD4FF42850091A0CD0491E20D0491E4DD0491E24D0491E2AD0A23947D023396C
:2056F00041D04AE0F86810F074FC069B079980B2C21A8A42ACBF0846C01A80B2C118162997
:2057100004DA28800246F868C1180DE00D2636E0F8680088022129802070000A60702EE010
:20573000062028800622F968204610F047F826E0F868B0B108212980018821700188090A0E
:2057500061704188A1704188090AE170818821718188090A6171C188A171C088000AE071DA
:205770000DE029800BE04B480178CA0705D401202880F8680178217001E02E800126304683
:20579000F2BD2DE9F8460E46814630780024022817469A467AD17068017842783D4D01EBDC
:2057B000022189B24FF42850091A0AD0491E32D0491E57D0491E41D0A33965D0233960D0B7
:2057D00064E0F06810F005FC089980B2884206D308460AEB0001162903DB0D2457E00724B2
:2057F00055E0F3685246394618440FF0E7FF08985044ADF8200000210898F368C0F11602D3
:20581000184410F0E4FB686800281CBF0268002A3DD0002123E0089888BBBAF1020FDCD159
:2058300039787878F26801EB00211180686800281CBF0268002A2AD0012110E00898F0B903
:20585000BAF1060FC9D1F068062239460FF0B6FF686800281CBF0268002A18D0032148462A
:20587000904714E0089850B9BAF1010FB5D13878002813BF0128F1680870802407E00B2405
:2058900005E02878C10701D4032400E001242046BDE8F286901200202DE9F04F8246DAF876
:2058B00000600C465FEA0208ADF11C0D14BF00214FF0FF3106F14800834610F00DF9002873
:2058D00018BF0B2040F00681002565708448F460B8F1010F057004D065700220F4600EF09A
:2058F0005DFB2078012840F2AB80801E012868D9801E012833D9801E012800F2DF8010F02F
:2059100034FB06904FF0805000F5EE77D0F8DC01A378466A009321782846062908BF012028
:20593000019001200290A068228AE1686368B0478146069810F0E0FEB9F1000F40F0C080E8
:20595000B8F1000F02D00FF009FF02E050460FF075F8002800F0A4803868806A2AE010F0F2
:2059700004FB06904FF0805000F5EE77D0F8DC01012306680093A168A27860682478AC46D6
:20599000042C08BF9C466346B0478146069810F0B3FEB9F1000F40F09380B8F1000F02D0E2
:2059B0000FF0DCFE02E050460FF048F8002877D03868406880474949C1F8B0510D60814649
:2059D0007EE010F0D2FA06904FF0805000F5EE76D0F8DC01E38A87690093E0680190208B76
:2059F0000290A0780390207D04900121059122782846022A08BF081CE1786268A368B84725
:205A10008146069810F078FEB9F1000F58D1B8F1000F02D00FF0A2FE02E050460FF00EF813
:205A300000283DD03068006A80475FEA000947D13068C569A168E28A2369E078A847BEE73B
:205A500010F093FA06904FF0805000F5EE76D0F8DC01E38AC7680093E0680190208B0290C1
:205A7000A0780390207D2946049001200590257805B9014608466268A368E178B847814631
:205A9000069810F039FEB9F1000F19D1B8F1000F02D00FF063FE02E050460EF0CFFF08B98F
:205AB000142017E03068406980475FEA000907D1306802692169E078904780E74FF0FF39DF
:205AD000B8F1010F02D002200EF052F8584610F060FA484607B0BDE8F08FC0465045024083
:205AF0003D2000202DE9FE4F05467E48002400680094C0090ED37C48007858B97C497B4806
:205B100051F8112C104040F0817041F8110C20200CF0FAFE012D40F0E080DFF80092D9F8FC
:205B3000DC00012840F0D6800220C9F8DC000FF0FDF901200CF0E8FE5FEA000805D00120CC
:205B5000C9F8DC000FF002FAC9E010F026FAA34602906848684DC0F800B0A86A01680120F0
:205B70008847012804D158460AF08EF9012000906248634FC0F800B03868112010F0DEF80D
:205B900000B10124102010F0D9F808B144F002040F2010F0D3F808B144F004040B2010F011
:205BB000CDF820B12868574E016B308888470A2010F0C4F820B12868534E016B308888473C
:205BD0005248012606602868816944F0200088474F48066010F0ACF800F001010191400884
:205BF00014D2286A81684B4888478246BAF1040FF7D0BAF1010F04D1286A42684548032108
:205C100090474549086820F003000860584600F099F92B683868986B8047019801280CD069
:205C3000BAF1010F04D1286A42683A48314690473949086840F003000860304806602868BD
:205C50004169204688470B2010F078F820B128682C4BC16A188888470A2010F06FF820B1E6
:205C70002868294BC16A18888847284806600322C9F8DC20264BC3F800B02868416B204640
:205C900088470128F9D1386804200CF03DFE0446184806603868134800688009FBD30098D5
:205CB000012802D130460AF0EFF810F035F808200CF02AFE07460298C9F8DC6010F0C4FC64
:205CD0000AF088FC0FF042F957EA040018BF4FF0FF3804E06FF0040801E06FF0010840464C
:205CF000BDE8FE8F14100940780D0020FFFFFCFC150009400C400940B80100100002224337
:205D10002C2009403E7301003A73010028200860800104430040034024220840900C002039
:205D30002DE9F04F94460E1C04461F46ADF14C0D4DD07548357801684FF0010B0BFA05F01F
:205D5000014244D0BCF1000F666040D0BCF80000B0F5C15F2FD1DCF81400DCF818606B4BE7
:205D7000DCF81C50DFF8A8910E904FF0030E0DF134080F9618681095C0F3036A58F8046FEE
:205D9000B6B10021331F05200A4653F8045FA94506D0401E01F1040102F10102F5D107E03A
:205DB000052A05DA705820F4702040EA0A407050BEF1010EE2D1C4F808C010F0D6F81190C1
:205DD0005F48801C007820B1119810F095FC002096E003F057FA4F4908680DF1280A40F0AB
:205DF0000200086050460FF0B9FE4FF005084A4E4A49CDF83080524606F1D0000DF0A0F9FC
:205E100050460FF08BFE00254FF0FF0919218DF83050434ACDF82C90534606F174000CF09B
:205E30009FFE50460FF09AFE3E49CDF83080524606F582700DF084F950460FF06FFE8DF806
:205E500030B0394ACDF82C9006F190001A2153460CF086FE35492A4606F1AC0013460CF08D
:205E7000C3F933480FF03AFF324A2B46042106F148000EF057FD4FF6FF70A6F8700086F8C0
:205E900005B086F873503571B571F571357275727561B378B572581CB0701198F57210F070
:205EB0002BFC1FB903AF38460FF08CFD386820607868E060387C84F811B02074788A608272
:205ED0001D4EA6616661F86800B1A061B86800B160612946782204F1200009F093F804F13E
:205EF000380029460EF02AFB684610F002F81349029404F170002A466B460CF075F92046D8
:205F100013B0BDE8F08FC046D4210840541300500200F84400200940D8080020FD57010094
:205F3000154D01009DEE000071180100BD5B010009AB0000511F010027D300003F5F010002
:205F5000D80800202DE9F84FDFF804B20746ABF13500DFF8F0810068800880F0E280754862
:205F70000068006880477E490831D1F8009000254FEA29715FEA995201F101010AD2C0F174
:205F90003E0210F10A0F4FEAE202D8BF08229142B8BF111C684BD3F87C21C2F30462162ACC
:205FB000A8BF203A1B68C3F30443162BA8BF203B9A465218162A05DA12F10A0FB8BF6FF032
:205FD000090200E015225D4B5D4E02F01F0141F4F8511980316811F0030F18BF0125C90899
:205FF00028BF45F002050FB145F00405434693F90710411A052904DA9979A94208BF9988F8
:206010006FD0DFF844E10F28A0F10F0829DB08EB0011A1F1F0084FEA28210091072984BF3E
:2060300007210091062988BF06215EF821600424774604EB81043C594FEA950CA41BEE08A6
:2060500004F0FF0124BFC4F3072631446F08AE0824BFC4F3074631446E0828BF01EB1461B9
:2060700004E000214FEA950C6F080091009C5EF824E05FEA5C060EF0FF0424BFCEF30726B6
:2060900034447E0824BFCEF3074634446E0828BF04EB1E64009E89B2A8EB062671438031BE
:2060B00004EB1124AAEB02010029D8BF0121342209F0FF074A4391B24FF6FF727943B1FBEF
:2060D000F4F18A4238BF111C802889B2998005DA10F1800FB8BF6FF07F0000E07F20D87153
:2060F0009D711A4800681F2918604FF0000008D340F2FF128A4206D24908401C8A42FBD3B0
:2061100001E01F219980134F0F39090940EAC10047EA0001CBF8FB1F0026CBF8FF6FBDE883
:20613000F88F0D490D4F434608200F609B1D1870BDE8F88FEC0100103C1100506E620840D8
:2061500024220840002000209C130050082009403500094000E7A48030100940FDFDA40041
:20617000AC3F00502DE9F0410C4684B00746207A0026C10690461D460BD5404610F060FA3A
:20619000030000F0F0800A22214638469847060050D1207802281AD160680178427801EBE1
:2061B000022189B24FF42050091A012910D9891E41D0491E16D0FD3905D0491E00F08B8016
:2061D000491E74D0491E7BD0491E00F0A180B8E00B98002831D1E0680A9A01781180027805
:2061F000416891E00B98002827D10A9801210180E0680178297000216089401C80B210F07B
:206210001BFA0A99098868B102780A9B921C51181980418969704189090AA9700278416881
:20623000E81C72E00A98091D018004220021681C0FF0CDFE98E00B9800286BD1E0680788C4
:206250000A98042101802F70380A68700DF10201384610F0F1F904001FD0E768BDF80220AB
:206270004FF6FF786B46414610F07EFA40B9237862683F48022110F0DBF908B9ADF80080E0
:20629000387802280BD179680222281D0FF096FA0A980188891C018001E0ADF80070BDF863
:2062B0000000A870BDF80000000AE8705CE00B9800282FD1E068016838460FF027FC03E064
:2062D0000B9838BBE06800880A9A022111802870000A687048E0E0680FF07BFE0B9B80B2B6
:2062F0009842B8BF07263FDB834208BF002006D00C99C9188142B2BF0C98C01A80B20A9967
:2063100008800246E068C11828460FF057FA2BE00B9808B10B2627E00A9AE068072111807A
:2063300002782A70417869704188A9704188090AE97001792971C1886971C088000AA871EE
:2063500012E0404610F070F906000CD00D980C990A9B029001912A460B98009021463846CF
:20637000B047064600E00E26304604B0BDE8F081E87801002DE9FE4F7D4C617811B9002026
:206390000FF05AF810F0C0F98146002709F6C4190026784DDFF8E0810EE030460FF030FB68
:2063B000417939B129688279CA5549467F1C00F0E7F8FFB2761CF6B298F800008642ECDB7B
:2063D000009761788F4205D000200FF035F8822010F07EF96078012840F0A380002601E0D7
:2063F000761CF6B298F80000864280F2948030460FF006FB074678790028F1D02868B97916
:20641000027891421CBF00200FF016F8B87980E0286810F809000FF0F3FA00684268DAF815
:2064300008109068814204BFB84609F1010900F088808BE0296891F800B04FF0010910E04E
:20645000626811F8093002F5B17208FB03F708FB0BFED75B32F80E20974238BF9B4609F1C8
:206470000109C0B28145EBDB4FF6FF7009F034F9074658460FF0C4FA40F6C419006841685E
:2064900000967808029109FB00FA0026019715E058460FF0B5FA01680A78802A04BF7B690A
:2064B000C3F814A00978402907D1344A8079136803EB40110AF5A062CA61761C009886424C
:2064D00053DA2868805D8345F7D0636808FB00F2991803F5B173C9899A5A4B08934203D2B3
:2064F000009B891A8B42E8DA0FF08AFA00684768029A0198B968936800EBD0704010A1F6C2
:20651000C41109FB003010F0FBF80028C0D02868805DBDE8FE8F00200EF08EFF822010F0CB
:20653000D7F86178286809F0BCFF286800780FF067FA0168009ED1F804A04FF000084FF0FD
:206550000109B14508F10107FFF662AF4046C0B200281EBF3846C1B200294FF4D0787FF40F
:2065700069AF286890F800B07EE75846D1E700BF684E0020004F00207B4F00200C20002036
:206590002DE9F24F054682B02868D0F804B0DBF8080010F0B5F8002840F0E480296802989C
:2065B000096910F03DF805F1820480462078002805F12E0740F6C4196BD02989608810F00F
:2065D0002BF882462078022806BF05F59A710E8EBE8806FB0AF609FB06F0009028680169CD
:2065F00000984118029810F08BF800284BD000982189A8EB000009FB01F2B0FBF2F302FBE1
:20661000130000B15B1C288982449A44A5F80AA05943E088861920788E1901284BD105F176
:20663000860128460EF0C2FC60896989688400202877E883E8894118A9812289B988A0899F
:206650008A4204BF3989884202BF6189FB88994207D0000900906389A979520800200FF00F
:20667000D7FFB88805F59A710886207938702089B8806089F880A089388128460EF07AFE18
:206690000220207017E0207801281CBF00200EF0D3FEB88809FB00F0B8FBF0F100FB11885A
:2066B0008EB2B8F1000F28891CBF761CB6B230186881B88846432968314A086909FB0600CB
:2066D000CBF808000B78802B0DD1C860D2F83080BB88D8F8000009FB03F31B1ADBF8140008
:2066F000A3F5167343610878402833D1AE614FF4C873688A4643B6FBF3F0401C6861DBF845
:206710000830181ACBF808006B69D5F8340100EB4300DBF8143058611A4823780068022BCE
:206730000CD1AB795B0100F1140454F803803C7809FB048800F1140444F80380AB79126B67
:2067500000EB4313B88809FB00F41068201AA0F51670D861DBF808208A60F87AB8722846BB
:206770000CF0DDFB6989A8890FF056FFE989814205F59A7138BF0120C885BDE8F78F00BF35
:20679000507801000C200020F8B57E4F04463868C16E0025002940F0F18010200FF00EFA1B
