:2000000000400020D513010001C9011001C9011001C9011001C9011001C9011001C9011075
:1C00200001C9011001C9011001C9011001C9011001C9011001C901103FC9011089
:20003C0080B54FF4FC720FF278011A480CF0ECFA012119484174002202210270C17601BD1C
:20005C002DE9F0410FF2502214493820136854689568D6681769D2F814C0D2F818E0D2F8F9
:20007C001C800B604C608D60CE600F61C1F814C0C1F818E0C1F81C8020322031401EE5D1DC
:20009C0050689368D46812680A6048608B60CC60BDE8F081480400215903002100C00021D1
:2000BC00410500217D0500212D06002170B51D46004C204787B2000010B5014800470000FD
:2000DC00D509000070B5614C6148254650358047022809D14034E1885E4A914204D1E97C5E
:2000FC00890601D4911DE18070BD70B557495A4A084650300378002B10D08379012B0DD181
:20011C00037C5B09DB0709D0097D544DC1746C7F20202043687790476C7770BDFF21C17420
:20013C00904770BD10B54E48484C804702280ED121464031CA88474B9A4208D1CA7C5209CE
:20015C00D20704D0227D920601D49A1DCA8010BD70B53E4843494030C07C4009C00707D032
:20017C003E4D41482C8B2043288388472C8370BD884770BD10B53B48344CAC388047214609
:20019C0053310A789309DB0705D04034A2730A7803231A430A7010BD2C4940310871182876
:2001BC0012D004DC0A280BD00B2804D10AE025280CD02A280CD02D4980004018C0687047DE
:2001DC002B4870472B4870472B4870472B4870472B48704770B504461C484E252D5CAE09AB
:2001FC00F60716D0067D3007000F052803D00120054202D00DE00220FAE7E80905D07006D1
:20021C0003D54868800F012803D05B085B0052085200062B03D01020022B11D011E0FB20F7
:20023C00024002232046FFF741FF002807DAC100611A2039497E1422114200D1002070BD93
:20025C00024303432046FFF731FF70BD4401002137CB000004140000EBC80000A800002142
:20027C00F5B4000053AD00002020000080DF00001D050021F9040021CD040021930400210F
:20029C006D04002110B5034CFFF716FF20680028FAD110BD0011044068610000F825F965B0
:2002BC00F9754500450045002600260057A3520052004C00401F401F401F3F000000000053
:2002DC00304000400140034007400F404F40CF40CF41CF43CF47CF4FCF3FCF2FCF1FCF0F6C
:2002FC00000000000000000000000F00080000003F00000040003F000000040068000E0093
:20031C00DC00060043001A00050000000000020000000000000000000400C00000000400B3
:20033C00C000000007000000000000000000000000000000000000003040004001400340A6
:20035C0007400F404F40CF40CF7FCF6FCF5FCF4FCF3FCF2FCF1FCF0F00000000000000009D
:20037C0050C00091007070C00091007082312100319110B10070018101B100A1823132910D
:20039C0010B101911110418141227740F106007051C0019130181039833108D01831416FD1
:2003BC003100319110B18314141683680070251050C00091F4C340C12014036F3110410497
:2003DC005082F0229840512622C082312100319110B163393110410482C08231210031919B
:2003FC0010B163393110A2C082312100319110B150101531051405920070676452C03110A6
:20041C0031066131C1026A6412C13110213971065131E1026A64007051C0019101CCE2C0CC
:20043C006A64676411C1C2C06A6450B054B0007140804022D6440022C94060B08180111EC9
:20045C00C944007054A064B0F0800022C9404012B09032B070C1DF6811C122C16A6470C1C0
:20047C00E46851C00191E2C0823160820200329110B130C2EE68538253395339B16460C347
:20049C00F4688012B09032B00070676401C122C16A6401C1C2C06A645382B164C012B09074
:2004BC0032B00070676472C281C06A6422C111C16A6402C011C16A6462C031C36A6462C3D2
:2004DC0011C16A6402C311C16A6453825339B164E2C36F6411221C4142C281C86A6452C24E
:2004FC0011C16A6472C2E1CE6A6402C281C86A6402C201C86A64B0C030690070676442C211
:20051C0001C86A6452C211C06A6472C2E1C06A6402C001C16A6462C001C36A6422C101C127
:20053C006A6462C301C16A6402C301C16A645382B16400708180111E5C4150B054B000712B
:20055C00408040225D4154A064B0F1800122514500700022514160B04E61000000000000AA
:20057C000000000000000000067305720B720E7250B00071818060B050A09280F0EFF1928C
:20059C0002936A6741228C458080F1C11004301601110114016CB561B661B761B861B9618D
:2005BC00BA61BB61BD61BF61C161C36126632D63F0C002043231412A121432160111211412
:2005DC00016CDA61C561E061C761CB61B561B561B561F461C561FA61C761CB61B561B56104
:2005FC00B561F461C561FA61C761CB61B561B561B561E761C561ED61C761CB61B561B56121
:20061C00B561CF61CF61CF61CF61CF61CF61C064CF61F964CF610665CF613265CF6174676A
:20063C00CF611166CF61C0644E65F964CF61066511663265CF618280E0DFF2926A67B0B044
:20065C00D661B1B00673057230B06C61D0CF6A6784C203C0C0C37C64207851788278E378B7
:20067C001579B6780062C0CF6A6784C203C0C0C37C64307861789278F3781579C678006250
:20069C00B0CF6A6784C203C0C0C37C6440787178A27803791579D678109221923292439281
:2006BC005492659256911FC0FF914039F00601101031101400927067CF61E3B054A0F08076
:2006DC0050221A4640800022BE461262E3A000C86091598150B0918041228E46A0CF6A6734
:2006FC0012828231823942398B641282F2062F101F312F141682D622334640C1346200C5AF
:20071C0020140D6F6D39DE10F4C34E0482C082312E006D39A2C082312D001A828A39FA0606
:20073C002082803180390BC00B18BC10AC18038239149B141082F0060110103110145181C2
:20075C0010140C14C622C94631D0C1266462021011C0013010C00118021882312100C126C2
:20077C00919103B013B063B053B041800122BE46B481C491D581B51C774E95186591F0803E
:20079C00102269428C623D9110B13E9110B1E08000228146E6228142E0B0951865910F926B
:2007BC005981F914F0805022114210228C464D6390CF6A6763B052A03082F2C0200402107E
:2007DC0011C0013010C00118021882312100C1269191919113B003B063B053B064B054B055
:2007FC00007141800122BE4663B064B0F08050221142B181C191D1819118619131B0A462D0
:20081C002967E0A059810582591480C0007163B0BA6A6962E3A0018262818231823D80EF61
:20083C00F19202936A6703A0007037824739873930828039F006021011C0013010C0011849
:20085C00021882312100C126819102B012B030824039F006021011C0013010C001180218E9
:20087C0082312100C126919103B013B063B053B0007153A062B052B041800122BE46A4816E
:20089C00C491D581B51CFE4E95186591F0801022F0428C62B481C491D4814518751C084FEB
:2008BC00F0801022F0428C623D9110B13E9110B1E08000221247E6221243E0B065910F92DC
:2008DC005981F914F0805022114210228C4630632967E0A0598105825914F0C0007162B038
:2008FC00226BF062A2808B64CF6112824239F2068B6050B00071CF6170CF6A674082418096
:20091C000122BE46A481C491D58195186591F18011228C46336B41800122BE46A481C491AB
:20093C00D581C51C1C4B95186591F08010223F438C6260CF6A67408241800122BE46B48169
:20095C00C491D58195186591F18011228C46506B41800122BE46B481C491D581C51CB44A55
:20097C0095186591F08010225C438C62E092D08200226B47C0B20070A080F022874330B033
:20099C0002C1623101C0A080001E8043F022814380F86031603981632010101A136F236E5A
:2009BC0011161216826B00702DE9F84FDFF82085DFF8201588F80000002008600921DFF881
:2009DC00180501700D2141804FF408718180DFF80C05DFF80C1501608A7EDFF80805027022
:2009FC00FF2ACB7E437008BFFF2B0D7F85704E7FC6708F7F0771C97F417115D1FF2D08BFE8
:200A1C00FF2E11D1FF2F08BFFF290DD1DFF8D8140A7802704A7842708A788270CA78C2701D
:200A3C000A79027149794171DFF8C01402780A70FF2542784A7082788A70C278CA70027916
:200A5C000A714079DFF8A82448710021DFF8A404057045708570C570057145711180DFF862
:200A7C009804DFF89814466BDFF894247078087031781170B078DFF88C14087071690879FF
:200A9C00DFF88414421E0A70F078DFF880140870B069DFF87C14086008B913F061FAF06946
:200ABC00DFF87044206008B913F05AFA2068DFF8687401688847216851F8042F384690472A
:200ADC00DFF85804DFF858143862DFF858047862306A086008B913F043FA706ADFF84814CD
:200AFC00086008B913F03CFADFF840B4DFF840649BF8040013F0B8FD306008B900F049B9A0
:200B1C009BF80500DFF82C7413F0AEFD386008B930683BE19BF80600DFF81C4413F0A4FD7B
:200B3C00206020B9306813F0A7FD38682EE19BF80700DFF8089413F097FDC9F8000038B9FC
:200B5C00306813F099FD386813F096FD20681DE1DFF8AC130A789BF80000DFF8E4A3921CD5
:200B7C00504380B213F080FDCAF8080058B9306813F082FD386813F07FFD206813F07CFDFC
:200B9C00D9F8000002E1DFF878030078002800F00581BBF80210DFF8ACB3484380B213F062
:200BBC0063FDCBF8040078B9306813F065FD386813F062FD206813F05FFDD9F8000013F007
:200BDC005BFDDAF80800E1E0CD48007813F04CFDDD49086098B9306813F04EFD386813F0C5
:200BFC004BFD206813F048FDD9F8000013F044FDDAF8080013F040FDDBF80400C6E0C0480D
:200C1C0000781C21484313F02FFDD04A1060B0B9306813F031FD386813F02EFD206813F034
:200C3C002BFDD9F8000013F027FDDAF8080013F023FDDBF8040013F01FFDC348A5E0B048FD
:200C5C000078400113F010FDC1490860D8B9306813F012FD386813F00FFD206813F00CFDBF
:200C7C00D9F8000013F008FDDAF8080013F004FDDBF8040013F000FDB348006813F0FCFC6C
:200C9C00B249086882E09E480078000113F0ECFCB0490860F0B9306813F0EEFC386813F0EF
:200CBC00EBFC206813F0E8FCD9F8000013F0E4FCDAF8080013F0E0FCDBF8040013F0DCFCA3
:200CDC00A148006813F0D8FCA049086813F0D4FC9F485AE08A480078000113F0C5FC9E498D
:200CFC00086018BB306813F0C7FC386813F0C4FC206813F0C1FCD9F8000013F0BDFCDAF835
:200D1C00080013F0B9FCDBF8040013F0B5FC8E48006813F0B1FC8D49086813F0ADFC8C48B8
:200D3C00006813F0A9FC8B4908682FE0744800783021484313F098FC884A106070BB306888
:200D5C0013F09AFC386813F097FC206813F094FCD9F8000013F090FCDAF8080013F08CFCC8
:200D7C00DBF8040013F088FC7748006813F084FC7649086813F080FC7548006813F07CFC01
:200D9C007449086813F078FC7348006813F074FC002013F0E5F84FF4804192E031680120CD
:200DBC0008713068057331684D73306885733168CD7330680574002031684D743268D07265
:200DDC00A0223168487103213068C280017207203168487200203268907228213068418298
:200DFC000121C176002031684877326882F85E00012031680877326882F85D0039680871D0
:200E1C003868057339684D73386885733968CD7338680574002039684D743A68D0723968A4
:200E3C0048713A6890724FF4207039680022C88008818A7401213A68D17421680D73226838
:200E5C00557321688D732268D57321680D740021226855742368D9720121226811710021B0
:200E7C00236859712168C8800881002088722168887405202268D0743948016888472A49E9
:200E9C000A6805461068804727490A6852F8043F0020984718481D4BC16818780A8831493F
:200EBC0002430A80284630490A6890470C212F4800F05EF80F4800F05FF800F061F84FF403
:200EDC00005198F80000BDE8F44F0AF043BA00BF6E4F0020044F0020604E0020084F0020E2
:200EFC00B63F00502C4E0020E81200503C4E00200C4F0020344E0020FC6101006D4F0020AC
:200F1C007B4F00206B4F0020724F00206C4F0020F04E0020F44E00207C4B002085460100C2
:200F3C00F84E002095460100FC4E0020B0120020104F00205C1F0020184F0020601F0020C7
:200F5C00301F0020684E0020004F0020541F0020581F0020884E00208C4E0020904E0020A9
:200F7C009C0D0020544F0020A00D0020F84D0020DFF800F0E5710110DFF800F01D6E011006
:200F9C00DFF800F04D7101102DE9F04106465FEA010808BFDFF8408010480078C8B1104CB7
:200FBC0007460025B54204D02068C0698047064209D02068406841460246204690470028DB
:200FDC0018BF201C06D17F1E04F10C0405F10105E8D10020BDE8F081C15D0100BE6101003F
:040FFC00501300206E
:20100000B41200001810000015AB0110FDB301106DC00110FDAE011099B5011000000000F7
:08102000000000002D0000009B
:20102800B01200003C100000B1C00110A9BF011067C0011069B80110000000000000000035
:041048003000000074
:20104C00B012000060100000BDC00110CDB30110D9BD01106DB3011000000000000000005B
:04106C00310000004F
:2010700000000000D812002004000000000000000000000020000000E8C901103000000040
:2010900028100000E01200200400000000000000000000000C000000D8CA0110180000001B
:2010B0004C100000E812002004000000000000000000000024000000F0CA0110180000009F
:2010D00000000000F01200200400000000000000000000001000000018CA01102C000000AB
:2010F0000010000000130020040000000000000000000000200000006CCA0110240000000E
:20111000FFFFFFFF081300200400000000000000000000002800000090CA011024000000CD
:20113000FFFFFFFF101300200400000000000000000000001400000008CB0110180000004C
:20115000FFFFFFFF1813002004000000000000000000000058000000B4C90110340000001A
:20117000FFFFFFFF201300200400000000000000000000001000000020CB011018000000E8
:20119000FFFFFFFF281300200400000000000000000000001C000000B4CA01102400000015
:2011B000FFFFFFFF301300200400000000000000000000003800000044CA0110280000003D
:2011D000FFFFFFFF381300200400000000000000000000005400000078C901103C000000B2
:0811F00001000000F86101009C
:0411F80001000000F2
:0411FC0000000E00E1
:0412000000000F00DB
:0412040032000000B4
:0412080001000000E1
:04120C00AC11002001
:0412100000020000D8
:0412140000000000D6
:0412180001C90110F7
:04121C0000000000CE
:0412200000000000CA
:0412240008000000BE
:0412280000002200A0
:04122C000C10002082
:0412300000000000BA
:0412340000000000B6
:0412380008000000AA
:04123C00501100202D
:0412400000000000AA
:0412440000000000A6
:04124800080000009A
:04124C00000000009E
:04125000000000009A
:041254000000000096
:041258000000000092
:04125C00010000008D
:04126000A4100020B6
:041264000600000080
:041268000100000081
:04126C003C0F002013
:04127000000000007A
:041274000000000076
:041278000002000070
:04127C00000000006E
:02128000290043
:02128200010069
:02128400250043
:02128600300036
:02128800310033
:02128A002D0035
:02128C0001005F
:01128E00015E
:08129000030000009861010059
:0812980000000000000000004E
:0412A0000000010049
:0412A4000000030043
:0412A80013C401105A
:0412AC003B440100BE
:0412B000B812000070
:0412B400B81200006C
:0412B8000000000032
:0412BC007C12002080
:0412C0009145010053
:0412C4002000000006
:0412C800246101009C
:0412CC00905F01002E
:0412D00029C101101F
:0412D400BF0701004F
:0412D800CB0B01003B
:0412DC00A1C7011095
:0412E000A3C701108F
:0412E4000000000006
:0412E8000E5E010095
:0412EC00745E01002B
:0412F0008C5E01000F
:0412F4005C5E01003B
:0212F8000200F2
:0212FA000900E9
:0212FC000100EF
:0212FE000000EE
:0113000001EB
:04130400314501006E
:04130800D1250100EA
:04130C00653901003E
:041310001D2A010091
:04131400E72A0100C3
:04131800BD12010001
:04131C0015E50000D3
:041320002147010060
:04132400F5FD0000D3
:0413280015C70110D4
:04132C0025C70110C0
:201330002DE9F04F0D4685B0804615F8010BDFF87C27DFF87CB78DF8000008F1FD01801E43
:20135000152808F59E7408F20D1A08F1E70908F5B07608F5C67700F29583DFE810F00701F1
:20137000930316004400480073039303BF0093037B00D1007F0086000F01DC011D02FD006A
:201390007D03E002E0022402960208F1A00608222946304613F008FF05460821304613F096
:2013B000FFFE08F1980704222946384613F0FCFE0421384613F0F4FE00204142414408EBC5
:2013D000000291F89F1082F8BF10401C0828F4DB08F1C702314608F1D70013F0DDFE012017
:2013F00089F800005FE3012089F813005BE399F80D1099F81600012900F010000DD130B1E9
:20141000002060712168A07949080DF06FFF98F80600002113F0BCFE0FE040B12268DFF8B8
:20143000940608F5A1735208414613F021FA98F806000122002113F0A7FE012088F8660069
:20145000404610F034F908F166010120887189F80F0028E3012089F8100024E3287889F8DA
:201470000E00012089F814001DE399F8120001281CD199F80030012B4AD099F81600030727
:2014900004D40E218AF80C100721F8E1002002F109062B5C365C33432B54561C365C3340EF
:2014B0000B54401C0828F2DB0921E8E199F81600030701D40E217BE1002002F109062B5CB7
:2014D000365C33432B54561C365C33400B54401C0828F2DB40460EF003F9DAE2002002F1F7
:2014F00009042B5C245C23432B54541C245C23400B54401C0828F2DB022089F81500D2E26C
:2015100099F81200012804BF99F80010012906D13D208AF80B0001208AF80A00C3E29AF8BC
:2015300000000128FAD015F8011B8AF803100222294608F5897013F037FE0146022208F5C1
:201550008A7013F031FE01208AF800009AF802000028E3D10C2192E199F81600C10601D459
:20157000122125E140460FF08BFA92E228788AF80B00F02100208AF80A0007E199F816002B
:20159000810707D410F0110F08BF0F2000F07C821A22F1E008F166010A7C012A04BF497C2E
:2015B0000F2910D008F16601497D19B108F166035A7C22B108F166031A7F012A05D14007C5
:2015D00058BF0F200FD52322D6E021B108F16601497C012904D008F186018A7A012A06D15B
:2015F000400758BF0F2040F14F822A22C4E02878697800EB0120A081E978A87800EB012021
:20161000E0816979287900EB01202082E979A87900EB01206082287A2075A97A687A00EB90
:201630000120E082297BE87A00EB01202083A97B687B00EB01206083297CE87B00EB012058
:20165000A083A97C687C00EB0120E083297DE87C00EB01202084A97D687D00EB012060842A
:2016700008F5AA700490E08A0390207D0290B8F808000190608A0090238AE289A1894046F8
:201690000CF0CCFE28B199F81600410773D40F218EE0E08908F186018880208AC880608AFA
:2016B0000881022088F886000020488008F16601B8F83400C01DC88308F186008188B8F8DD
:2016D0003200814201BF08F18600C188B8F83400814206D108F186000189B8F8360081424D
:2016F00017D008F16601487D28B108F166020F219176FE21C3E0FC2140460DF0BFFC608A56
:201710000090238AE289A18998F8060013F038FDC9E10021B3E0AE78E8782F79AC7906EB77
:201730000026687907EB0027E87905F10B0104EB00240491BBB2687AA97A00EB012080B2BE
:201750000390B2B2287A0290B8F808000190A0B200906978287800EB012081B240460CF0E1
:201770005DFE58B199F81600410701D40F211FE040460EF043FC1E220F2135E008F186003B
:2017900008F186018680CF8004810021404605B0BDE8F04F10F070BD287830706878707072
:2017B000012060727FE199F81700C10703D416218AF80C106AE108F16600417C16291ABF2B
:2017D000BA79012A23220ED0002918BF012909D00F291CBF017F01291EBF08F18600817A61
:2017F000012907D12A221621404605B0BDE8F04F10F05EBD6978287801F0070108402870C0
:20181000797B01401CBF481E0142F9720CD0490704D5B87B10B10421F97205E0F97A022091
:2018300001420CD14008FBD1F87AB97A884204BF0020F872F87A20B9002139811EE0F8721A
:20185000F2E7B8F83400C01D3881F87A042803D140460FF064F9B0830123F87AB97B38712B
:20187000B28B0FF0F3FD0146308B884205D3B28BB97B387901230FF0E9FD788018214046A6
:2018900005B0BDE8F04F0DF0F9BB6978287801F0070108402870F97A01401CBF481E01425C
:2018B000F9720CD0490704D5B87B10B10421F97205E0F97A022001420DD14008FBD1F87A03
:2018D000B97A884204BF0020F872F87A28B90021B87A39810DE0F872F1E7B8F83400C01D5E
:2018F0003881F87A042803D140460FF018F9B083F87A3871B28BB97B387901230FF0A6FDE1
:201910000146308B884205D3B28BB97B387901230FF09CFD7880387B40F02000B0E0297809
:20193000687801EB00217182A878E97800EB0120F0826979287900EB01203082E979A879F4
:2019500000EB0120B082B18AF089884288BF0846B97A042905D140F691229042B8BF4FF47B
:201970002960F28BF0839042B87A14BF01250025042803D140460FF0D2F804E0B089F18AD5
:20199000884288BF0846B28BB083904214BF012100210D433089718A328B884288BF084660
:2019B000904214BF012100210D433083B28BB97B387901230FF04AFD0146308B884205D3FC
:2019D000B28BB97B387901230FF040FD78807189308A728B814288BF01467183914298F824
:2019F000063014BF0120002005438A4232490A6802EB4311728B8041121DC00F0A7610B14E
:201A1000404610F0FFFE9DF80000142810D145B1F08B0090738BB28B318B98F8060013F0F0
:201A3000ABFB404605B0BDE8F04F15210BF0E6BD1DB1387840F008003870397841F020019C
:201A5000397030E028780F2809D0122804D0142808D016280ED026E00020207123E00120F4
:201A7000207220E0387840F00200387040F01000387018E0387B40F00200387340F010008A
:201A9000387310E09DF800008AF80C0040460EF041FC40B99BF8000005B0BDE8F04F4FF44F
:201AB000804109F05DBC05B0BDE8F08FEC1E00206E4F002045E30000581F00202DE9F04F4F
:201AD0000546B24C28786179ADF11C0D913800F0AD821F3800F05C81203840F0E482A87852
:201AF000D4F81480A778A84E002800F00681401E00F0D980001F00F0A580401E5AD0401E01
:201B100000F03B81801F40F0CE822A69287B1118491E1018401E904240F2C58212F8016BDD
:201B3000002E44D01078022803D0032818BF32443DD1761E521CF6B2022E35DB701091420B
:201B500032D91378F02B02D15378FF2B06D0B61E401E02F10202F6B2F1D125E095F804906D
:201B7000082F05F1050880F29E8277B104F18E063D4640463146062211F080FE002800F099
:201B900092826D1E06F10806F3D14246136804EBC7008C30811C0B6092888A807F1C80F819
:201BB0000190FEB2A6707EE2012E08BF521C9142B4D878E200264FF6FE796671618DA4F8FE
:201BD0000A904FF0050B4FF0FF30268204F12807A671AB882672B5F804A084F809B08B429D
:201BF000E07012D1786813F0C3FA788882450AD1786828B113F0B8FA786810F04DFD7E60EA
:201C100009F101007880D4F81480404602213246C4A311F0F1FBA8790090606903213246D6
:201C3000C4A311F0E9FB60690421324612F07EFD60690621324612F079FD59463246C0A30B
:201C5000606912E26878E0B902266889667101276081208A277218B904F1440012F0B4FE44
:201C70004FF47F400FF088FF606931460022B7A311F0C2FB6469281D0EF03AFE034620465B
:201C9000F1E100264FF6FE7066710221CDA3324660814046A67111F0AFFB68780321A5A332
:201CB00032460090CCE70025257140460221CFA32A46009711F0A0FBA078002800F0F3813C
:201CD000E5706079002840F0EE810120607194F88D70307811F080F98DF805508DF80650AD
:201CF0008DF8040004F18E068DF80770316802A80160B3888380CC493AE068896082E81CDE
:201D10000EF0F6FD034601210022404611F074FB606902210022C1A311F06EFB6069052174
:201D3000002287A311F068FB6079022800F0BB812079012800F0B78101270025606927711C
:201D50000221CBA32A46A57011F056FB60690321042212F0EBFC307811F03EF98DF80400A6
:201D70008DF80670C6498DF8075003208DF80500102001AA05F0BAFE95E1E8780221CDA3CF
:201D90000090404670E1C0468406002008020020022940F03C8168786669162800F02F814D
:201DB00028790B2800F0D780012803D1287A0A2800F0D1802979132900F0A780012903D1F3
:201DD000287A122800F0A1807E2900F09B807F2900F09580A079002840F08D801B2940F0B5
:201DF00016812889292840F012810DF11200002105220CF03BF9E9686A890DF112000AF0A1
:201E100009FC9DF81200A52864D19DF81300012860D104200DF11202002712F8011B401E21
:201E300081EA0707F9D1A14E307890F0FF017068317005D0FF290ED130690FF09DFE0AE0C6
:201E500000210FF0EBF9B06800210FF0E7F9F06800210FF0E3F9964E706804A912F02BFD6F
:201E7000B0F1FF3F19BFBDF81010BDF810004FF6FF70011C3080706812F022FDB0609DF8E2
:201E90001600B84225D1DC4EBDF8140011F0DAFEDAA20CCA06F0BAFF0CF02DFD31460CF0C6
:201EB000A4F8314607F02CFE024631460DF00CFD0FD2D648D349066810460DF0D5FC08D292
:201ED000D1490CF092F810F087FD0146304612F006FD6669606A0F2100227BA3401C6062E5
:201EF000401E0090304611F087FA607800906669102178A387E0284606F050FE87E0288938
:201F100078A37EE0287A7BA37BE0012907D0E0797CA3401CC0B2E071401EC0B25CE07DA359
:201F300059E0C046446973636F6E6E656374656400C046C0526561736F6E3A20256400C0AE
:201F5000446973636F766572202D3E00436F6E6E656374656400287901283BD02889082165
:201F7000002270A30090304611F046FAE868007800906069092100226CA311F03DFAE868D1
:201F90004078009060690A2100226CA311F034FAE8688078009060690B2100226BA311F097
:201FB0002BFAE868C078009060690C2100226BA311F022FAE8680079009066690D216BA32D
:201FD0000CE0C046436F6E6E656374204661696C656400C069A3287B009004213046002214
:201FF00011F00AFA0020207211E0C0464465766963657320466F756E6420256400C028793A
:2020100062A3009004213046002211F0F5F9297905F1080013F0A4F845E0C046496E697471
:2020300069616C697A656400119A000068780E3828D0801E33D02E3835D1A8780C2832D181
:20205000E978606971B90321002255A311F0D4F9E879012814BF57A058A000906069042146
:2020700058A301E05BA30321002211F0C5F91AE0446973636F766572696E672E2E2E00C0B0
:2020900021C90000A88841F2054181420BD1A86890F903000421002253A3404201E6082094
:2020B000002106F03DFC07B0BDE8F08FC411002058120020506172616D20557064617465F2
:2020D0003A20256400C046C0436F756E743A20256400C0464B6579436F756E743A20256440
:2020F00000C046C04D54552053697A653A20256400C046C046432056696F6C617465643A95
:202110002025640057726974652073656E743A20256400C05772697465204572726F722029
:20213000256400C04C656E3A202564005265616420727370313A20256400C04652656164BD
:2021500020727370323A20256400C0465265616420727370333A20256400C0465265616456
:2021700020727370343A20256400C0465265616420727370353A20256400C0465265616432
:20219000204572726F7220256400C046415454205273702064726F7070656420256400C0A1
:2021B0005048592055706461746520436F6D706C6574650032204D62707300C031204D629E
:2021D000707300C043757272656E74205048593A20257300504859204368616E6765206689
:2021F00061696C75726500C052535349202D64423A20256400C046C0CDCCCC3E000000000D
:202210000088C340CDCC4C3F0000804F701F00202DE9F047040082B028D1002011F0A6FE40
:2022300024E020460DF00FFCDAE1297C012940F0D481C078002800F0D781B8F8020098F823
:2022500000104000A8F802004900B8F8040088F800104000A8F804000121B8F80800000130
:20227000A8F80800297720460DF0C8FE04F16605687D002800F0BE81697CDFF8FC0400295C
:2022900004F1860804F1EC0604F5897904F5A27A04F5C677C9D001293FD0022931D0032954
:2022B00046D0062900F08A80072900F08C81082900F0B380092900F0BF800A2900F09180B9
:2022D0000B2900F09B800C2900F0C1800F2900F0DC80112900F00381122900F0D08014295F
:2022F00000F04E81162900F00881182900F02E81F02900F08181FC295FD0FE2900F08681FA
:202310008BE7297C01298CD1C078002800F0EE8020460DF073FE162173E1297C012940F0F3
:202330008981C078002818BF88F80A109BD185E1297C012940F08681807850B10021A971A6
:202350009AF80200012804D18AF8021020460CF095FEB07B012809D100213160716088F821
:202370000E00062120460FF087FF7FE7F07B012818D120460DF042FE002188F80E100120C7
:20239000287020460FF093F90120A87100207073717AA07906291ABF00221A21002212F0DA
:2023B000F3FE63E799F80500012844D0298B481E288380B2002800F071811AE1287C012836
:2023D00040F04A81B17A012917D120460DF016FE002030723073F072B073B072F0737073EC
:2023F00044E7287C012840F04681F17A012902BF002088F80E000B21B4D036E1297C012944
:2024100040F042818078002800F042810321A9E70022222112F0B8FEABE1287C012840F08C
:202430004681307C022804F1FD0240F04981A179002012F091FE16E7297C012940F04B816E
:202450008078002800F04B81618CE1830BE7287C012804F20D1140F045810A78012A40F099
:2024700048814878012809D1B9F8022000920020CA78B9F80030A17912F06AFEF3E6297C16
:20249000012940F0478180782EE0287C012840F045819AF8011001290BD19AF81C000F28B3
:2024B0001CBF002011F062FD00208AF80100002158E79AF80200012808D100218AF8021063
:2024D00023220F2120460FF0F3FECFE69AF80000012840F0278100218AF8001042E7297C58
:2024F000012940F02281C078002823D1298B481E288380B200288FD07BE0287C012840F0A5
:202510001881397B880648BF1821E7D4C80712D59AF81C0016281CBF002011F027FD387B60
:2025300000F0FE0038730023A1799AF81D00002209F096FE97E6880740F1FF8001F0FD01AC
:2025500039730023A17900221A20F1E7297C012940F0F980C078002800F0FA80397BF87AE6
:2025700040B98A060BD501F0DF013973BA7AA1791346DDE701F0DF0139730120B87172E6DB
:20259000287C012840F0EB803878810604F5B37612D500F0DF00010738700AD500F0F7003E
:2025B0003870308B0090B38AF28A718AA07912F0E3FD0020307056E6810740F1D48000F070
:2025D000FD003870F5E720460DF0A4FE0128F2D00FE0002011F0CAFC0BE020460AF0E6FD76
:2025F0002874E88A288304E06089E98B884200F0B4800020BDE8F687407A0028FAD099F864
:202610000610204611F0FCF90120F3E7A87E0F28DFD1FC2120460FF02FFEBAF80A00009035
:20263000BAF80830BAF80620BAF80410A07912F0A7FDDEE720460CF027F9D1E76089B8F8AB
:202650000C10D3E720460AF091FA2874E88A28830020B073F073CDE720460DF031FF287467
:20267000E88A28830020B072C4E7288B401E288380B298B1BDE720460EF070F82874E88A8B
:2026900028830020F072B5E720460CF02BFDA7E7288B401E288380B20028AAD1317AA079F4
:2026B00001297FF4B5AE222112F072FD61E020460CF0D2FA2874E88A28830120307498E7EA
:2026D000288B401E288380B2002892D1A179222012F042FD4DE020460DF002F880E7288B30
:2026F000401E05E70120887020460BF05DFE28747FE7288B401E288380B20028F8D1B9F819
:20271000020000902220CA78B9F80030A17912F01FFD2EE020460EF08BF961E7204609F0DD
:20273000EFFD5DE7288B401EE2E620460DF02CF956E7204609F05AFA52E7288B401E288313
:2027500080B2B0B155E71821204609F04FFA47E721893889491C8842F4D1282151E7204645
:202770000AF04CFF3CE7288B401E288380B20028E8D1222145E700BF5C4D00202DE9F04FC6
:20279000BD4C04F118012046ADF1340D0EF038F804F138050021284612F0D6FCCA4941F2C4
:2027B000883204F14400E5610EF060FC00200146FEF7F0FB4FF6FF7808270025DFF81093A5
:2027D000C24E60610222A4F82A804FF47A63E56249467770102005F089F9102003224FF492
:2027F0007A63494605F082F9BA48BB4915232A460090102005F07AF944F6C740DFF8DC9291
:2028100009904FF481628DF82C5004238DF82D5001208DF82B0049468DF82E0009A800906B
:20283000102005F063F90DF12B004FF48062012349460090102005F059F90BA840F20242D6
:20285000012349460090102005F050F90DF12D000090494640F203420123102005F046F96E
:202870000DF12E00494640F2064201230090102005F03CF9DFF818931020494605F036F9A0
:20289000207810F0A9FBC3490246102005F02EF9C14910204FF0FF3205F028F9BF49102054
:2028B0004FF0FF3205F022F91020494605F01EF9BB491020042205F019F904F12000B06037
:2028D000307810F089FB024670783B4606F116070090B4490197102006F1260702970C36A3
:2028F000039605F003F9B04904F13002102005F0FDF8207810F070FBAC490246102005F09F
:20291000F5F8207810F068FBCC490246102005F0EDF860692946A6A30A4610F06DFDC8490C
:2029300010200C2205F0E2F80EF066FF04A811F0BDFF042004A90EF07FFFC24908600EF0D0
:202950006DFA0BF0A5F84FF47F000FF015F9BE48DFF810B300684FF47A71B1FBF0F080B2A5
:202970000C90A069BE4A29464FF0FF3312F0E8FB5FEA0009F5D0284608900DF12A0108AADD
:202990000AA810F05DF878B9BDF82800102807D120789DF82A10884202D10898FFF78EF8E2
:2029B000089808B111F0D1FF5FEAD970C0F0D680CEE0E069064612F0BFFB864208BF2F1C6C
:2029D00002D087680FF068FE381C00F0C18038886189268A401E00F0B280401E00F0808014
:2029F000801E4BD0001F23D0083840F0AE807868067888462A46294608F09AFFB0FBFBF12B
:202A100001FB0BF1401A824636B10090606904212A466AA310F0F0FC9049CDF800A0102050
:202A300042462B4605F062F878680FF035FE8CE07A68BE7861691078AEB1012E0CD0022EBC
:202A500007D0032E16D1002808BF60A30CD064A307E078B968A307E0002808BF6AA303D0C9
:202A70006DA3009000E071A308462A46022110F0C3FC7A681046D8E7080200207E68728811
:202A90004FF6FF70904260D073491020012305F02DF8002859D07068B6F800A0804611F008
:202AB000A5FF10B1404612F063FB0C980AFB00F1404612F03DFB404612F036FB7288654900
:202AD000102005F013F840E01546010084060020BD8401109A60010049E70000814A000048
:202AF000002E32D0207A01282FD0084602222B46122112F015FB059038B30221ADF8121042
:202B1000012101708DF8185005988DF819502A264570FF20ADF810600FF02EF866892078B5
:202B300010F05AFA4A49009004AB3246102004F0DDFF50B104A8122112F012FB05E0786833
:202B5000FEF7BCFF786811F000FF38460FF0A4FDE06912F0E1FA00283FF42BAF5FEA5900BA
:202B7000FFF4FFAE0120A071678A25826689E581381FADF810002078A58110F02DFA334919
:202B9000009004AB3246102004F0B0FFE9E6C04681CF0000FD47010045380100553B010022
:202BB00011420100C9060100693D010051880110424C452043656E7472616C0050617373FD
:202BD000636F64653A20256400C046C0426F6E642073617665207375636365737300C04630
:202BF000426F6E642073617665206661696C65643A20256400C046C0426F6E64696E672064
:202C1000737563636573730050616972696E6720737563636573730050616972696E6720DE
:202C30006661696C3A20256400C046C050616972696E67207374617274656400318101109B
:202C500081B300105C120020F461010011240100E549010025AB0010B17F0110192B010071
:202C7000010000C040420F002DE9F04FC54C20780E46F10BADF1340DC9036DD1B0085DD2D4
:202C9000606AA16A720807D2F00828BF86F0040680F02B82002029E2858861B904F1180021
:202CB000C74A00904FF6FF710223012012F030FA0146A16219B304A8009000270197022306
:202CD0000293FF220392228B284608AB02F0E6FE58B99DF821009DF82020A16A12EB00222F
:202CF00004D0498928460EF0C1FCA16A228B08463B464FF6FF7112F007FA0146A162206AE2
:202D100000291CBF012186F001061FD168B14368616A5BB18888002201219847206A676AE7
:202D30004368B888032100229847616A888811F0D9FB11F0FFF886F00106D6E10020014630
:202D500003F07EFE30B1012186F00206207808F007FBCAE10221F7E709F09CFF00280990E0
:202D700000F0C18105462878B03800F05081401E00F044811F3840F0B181A878801F00F002
:202D90003981C01E00F01E81401E57D0401E33D0401E00F02A81801E40F0A281687806281E
:202DB0001FD12846808812F0ABF9071C19D0A07B401E12D0401E0ED0401E12D1002140F2C0
:202DD00009400A4601F054FE284681883878052212F092F905E0A988F8E7A88879790EF017
:202DF000DFFB206A002800F07B814368002B00F077816A780221DFE011F024FC002800F090
:202E10006F81276A0FB1386878B9286900280CBFE0690120698912F06BF9002800F0608151
:202E30006889012112F060F95AE1286900903C6869892A7B6B7BE81CA04751E168784FF05B
:202E5000000A002840F0A280A8794008C0F09E80606A002840F09A800DF1120051460E2294
:202E700011F0BEFDA88812F04BF95FEA000800F03781686900285DD05146814606220A91D0
:202E900009F1110011F006F920B34846062211F001F9D8B999F8100009F1110B57460B9013
:202EB0007F1C5846FFB28BF8007010F037FA0A280BDA914B0B9A0101A1EB4001C9188879AB
:202ED000824202D1002FEBD100E01FB901200A9057466F610A9850B909F111010DF11200B9
:202EF000062211F0D5F999F810008DF818000A9801281FD06F69EFB1387C07F11101062275
:202F10008DF818000DF1120011F0C2F908F10C0008F10601062211F0BBF908F1060007F15F
:202F30001101062211F0B4F9387C40F0020088F805000AE098F8050008F1060106228DF802
:202F500018000DF1120011F0A3F9A8799DF81F10C0F3800008438DF81F00A879000905D393
:202F70009DF81F0040F008008DF81F000DF11200294603F065FD38B92078022108F0F0F950
:202F9000B1E0C046000B00204FF0150A11F058FC206A002800F0A4804368002B00F0A08000
:202FB000A8886A7801219847BAF1000F00F09880206A032152464368A888984790E0C046B6
:202FD000A6620100E878291D002208F061FF0A2880F28680410001EB800005F10C02253008
:202FF0000421C0B206F008FE7AE0A888297B0BF077F875E0A8880DF00FFA71E028790028F1
:203010006CD16888E9882A890EF030FB66E02879401E26D0083802D0743853D059E06878F1
:203030001A284BD06888804611F004FC022850D12889012201280AD16889032807D1E86805
:20305000807820B9404611460DF07FFF0246206A00283ED04368002B3BD0404605219847C3
:2030700037E02B7A688805F10807082B814625D111F0E0FB022821D1688900210DF065FF34
:203090008046607D90B1484612F03AF870B119490B784BB94179831D012201F001010846B2
:2030B000194610F0D0FF01E001202075206A28B143681BB17888052142469847688811F0E3
:2030D00011FA06E06A8811F0B5FB0146104610F051F9297905F1080012F042F8012002D096
:2030F000284610F07FFD86F40046B0B20DB0BDE8F08FC0465A4F0020F20B00202DE9F84F8A
:20311000DC4DDFF874832968DC4F887CDFF8709311F0CAF92A6800210446517104F12E0662
:2031300028680EF0B5F9012060711C2598F80100401C88F8010080200AF0A6FD2060796903
:20315000C160D048018949007180C079B1884000307049003089B18000013081314620464E
:2031700010F0C0FC0520A081204610F09DFE386811F0B6FF062210F8081FC1F3801184F8CE
:203190002E11811C04F5947011F082F83968BE4F0A680020107141F62202A1793868694349
:2031B00042520022A17969430144001D4A80A1796943425099F80200410609D5B3490888BB
:2031D00041F20A4290420CBFB148B248C4F89C012046D4F89C118847A27939686A4311440B
:2031F0008873A1793868694308440021C173A179386869430844807BF07294F8960108B9CA
:2032100010F0B4FEA1793868DFF88CA26943084494F896114A1E02740022A179386869439C
:20323000084400214174A17938686943014400F114034A82A179DAF8002002EB41126943E5
:203250005A50A1796943084494498161A07908F0C7FBA279DAF8001052018850A27952017A
:20327000885820B90721204610F0CAFBFEE011441F2008760022DAF80000A179DFF820B28B
:2032900000EB41104276DBF80000A17900EB011011F022FFA179DBF80020DAF80000DFF869
:2032B00004B202EB0112031D49015A50021DA3795B0104F16801D2580A60A2795201835862
:2032D0008B60DBF81410097894F806E0CA074CBF102200228B074CBF202300235FEA417CD0
:2032F0004CBF4FF0400C4FF0000C09074CBF8021002113434CEA030300EB4E100B4343F0A4
:203310000F030372DAF80010A07901EB40110B224A72DAF80000A17900EB411004228272B3
:20333000DAF80010A07901EB40105F490A78012A02D10123C37203E0DBF828100A78C27221
:20335000DAF80000A279636A00F10C0152018B50A17900EB4110A16A0174DAF80000A179B5
:2033700000EB4110A16A090A4174DAF80000A17900EB4110A16A090C817408214B480078BD
:2033900007F0EEFF2168A2793868CB686A4302449360CA680A61CA688A6000F10C02A1790A
:2033B00069430C30525C02F0EF024254A0793968684301F10C020C31125C02F07F020A540D
:2033D000A0793968684301F10C020C31125C02F0F00242F002020A54A179386869430844A3
:2033F000417B01F0F00141F001014173B688DBF830C0DAF80010A37940F6C4104643DCF8D2
:20341000000001F114025B01361AA6F51676D650A27901EB4210C17C01F0F00141F00401ED
:20343000C174A17938684D4321684019486099F80100810614D504F59771488F1B2804BF93
:20345000888F1B2808D1C88FB0F5A47F04BFB4F86E11B1F5A47F03D0142120460BF00EFEDE
:20347000134908200870A17988F80210BDE8F14F00F020B8184F0020684E0020AC4B002073
:20349000EC1E0020844C0020541F0020504F002051FE00001B070100581F00205C4D0020DE
:2034B0008C4E0020FC610100734F00206E4F00206F4F00202DE9FE4FDFF87483D8F8047092
:2034D0001FB9BDE8F74F11F003BE3878DFF86493DFF864A3DFF8644301281CBF0228042823
:2034F00041F64C5B05D0402818BF802800F0C28097E111F063F90028FAD0387805F0B6FDD1
:2035100005466E6816B9002010F030FDDFF830134878002800F0868002F0C8FB10F0C4FFEE
:2035300001900168009128464F6808F0D7FF02284CD02978022902D0042921D071E1052183
:20355000217018B911F0C0FD5844B0603069C17E01F0EF01C1763069C17E41F08001C176DE
:203570003069C17E01F0F00141F00201C1760221B86882443069C0F820A088F8021077E013
:203590000621217018B911F09FFD5844B060AD480168887C0EF0A8FE3069C17E01F0EF018A
:2035B000C1763069C17E41F08001C1763069C17E01F0F00141F00201C1760421B8688244D3
:2035D0003069C0F820A088F8021051E000980178802913D108229C4822700178012903D053
:2035F000974A5078022803DB78690121C17213E0D9F828107A690878D0720DE09249072044
:2036100020700A787869012A02D10123C37203E0D9F828104A78C2720198894A8179009870
:203630009170FAE0002D14D02878AF420DD102281ED0042805D183480168887C0EF054FE7D
:2036500016E0002010F092FC12E0022802D0042804D0E6E005202070022007E0062020708E
:2036700078480168887C0EF03FFE042088F802002846D2E072494878002800F0968002F071
:2036900015FB10F011FF0190016800914D686C49887810F009FF029011F096F810F0070FC6
:2036B00053D098F8020005F0E1FC06460099776808F014FF022848D03178022902D004298F
:2036D0001AD03FE00521217018B911F0FDFC5844B8603869C17E01F0EF01C1763869C17EC3
:2036F00041F08001C1763869C17E01F0F00141F00201C17602211DE00621217018B911F0FA
:20371000E3FC5844B8604F480168887C0EF0ECFD3869C17E01F0EF01C1763869C17E41F012
:203730008001C1763869C17E01F0F00141F00201C1760421A86882443869C0F820A088F800
:20375000021069E0002010F011FC02980199884229D000980178802913D108223A482270FE
:203770000178012903D0364A5078022803DB68690121C17213E0D9F828106A690878D072BC
:203790000DE03149072020700A786869012A02D10123C37203E0D9F828104A78C2720198D6
:2037B000274A81799170009837E011F00DF810F0070F3BD098F8020005F058FC064646F258
:2037D000A81530787768022802D004280FD02DE00520207011F078FC2918B86811F070FC89
:2037F00018B911F071FC5844B860022012E00620207011F069FC2918B86811F061FC18B906
:2038100011F062FC5844B8600E480168887C0EF06BFD042088F802003046BDE8FE4F07F057
:20383000D1BFBDE8FE4F002010F0A0BBBDE8F78F301F0020FC610100F0D8FFFF6F4F0020DF
:20385000684E0020184F0020734F00202DE9FF47CA4C0F460646F80B80F06581B80880F07D
:203870005281E07ADFF82093B90F80F0CB80607A002840F0AB803809C0F0AA80A07A20B19B
:203890000020A07205200EF06FFF00254FF00108BB49657004F174002A4684F8078011F032
:2038B0007DF8207901281AD16079C0B9DFF8D4A2DAF8000000284DD048460068006B8047F8
:2038D000524661691368401A010BA161E0694018B0EBC31F98BFE0613CD9E56101E084F825
:2038F0000480DFF8A892A9F115000068000A31D340F60900A08694F8410000F0F00040F0BC
:20391000010084F84100E58694F8400000F0F00084F84000A56311F03BF84B4603F6FF72CF
:2039300011686FF0020C21F00201116004F13401C3F8FBCF964AC3F8EB1F11688908FCD3DF
:20395000C3F8FBCFD3F8FF1F41F00201C3F8FF1F11F0B2FB8F4A10688F4920F0020065612D
:2039700040F400701060032341F8043C41F230038B604046086050238B6008604FF4CA630F
:203990008B6008602B4641F80C0C022013600EF0EBFE112007F0A2FD307C10B90E2007F025
:2039B0009DFDE5712572A07818B906F1380011F003F87A4810F0C0FE79490878F8B10D7074
:2039D00004F1D000042110F0FDFF18E0380914D2B80BC0F0C98004F1240010F0E9FF061CF3
:2039F00008D0706830B17568F068B6F91C1000222023A84727F40057B6E00020607227F0B1
:203A10000807B1E020B104200EF0AEFE0020E072B168088840F602054FF0000885420AD017
:203A3000B0F5C15F07D00A8B4FF61F60104040F43470088306E00A8A4FF61F60104040F40C
:203A5000347008826069E0B1D9F85400016804208847B0B1D9F80000006B8047616981425C
:203A700026BF401A401E401A000BF060F068718A401840F6C411F06081422CBFB0F5FA7F12
:203A9000F16094F8410010F00F0F0BD1708CED1D854207D1B56930466FF4807142464FF0AA
:203AB0000073A8473F4904F17400424610F076FF607958B10220ADF8000068460FF0E4FA72
:203AD00084F80580BDF80800A4F8700001206070E078401CE07004F1200084F8068010F000
:203AF00067FF002808BF47F0020702D0192010F053FF7569414630464FF080630A46A84788
:203B100027F0005730E004F12C05284610F050FF06F0EEF8284610F04BFF27F0020708B1C7
:203B300047F0020720E010F033FF014604F1280010F03EFF0646B569A80810D27EB125EA28
:203B50000500B061084611F0B7FA706850B12A46F068B6F91C1075680023A84702E00846A4
:203B700011F0AAFA27F4804727B104F1D000394610F028FF0090BDE8FF87C046C8080020BA
:203B900069380100481F00208C0100101500044010100440000004600C410440F99D000007
:203BB000441F0020019500002DE9F043CD48CE4D01781E24002985B007D0052908D006293E
:203BD00000F09E80072918BF082900F087817FE1C64E3168086800F1080999F8000010F087
:203BF0000F0F1CBF00F00F01062908D000F00F02022A1CBF00F00F00012840F06F8106223D
:203C100009F10201684610F043FB99F80000B84FC0F3801800F00F0001283DD1062209F170
:203C3000080102A810F034FB99F800004FEAD01902A9484611F03CFAD0B13868807C022828
:203C500018BF03285BD105F10D0102A811F02CFA002854D039680120C8720622707940F0C8
:203C70000400707102A938680C3010F011FB13E02978894510D10622691C02A80FF0A2FF82
:203C900050B12878717960F38201717106223868691C0C3010F0FCFA6946404611F008FA1A
:203CB00000282CD070696946001F0EF055FB002825D1294668460FF01CF90146FF291ED02F
:203CD0003868807C61436C18002818BF02280BD0012818BF032812D16A5C7069611C001FC3
:203CF00011F0DEF910280AD070696A46E11D001F0BF027FD06226946E01D10F0C9FAEDE0A1
:203D10007C4E3068016801F1080999F8000010F00F0F1CBF00F00F00012878D1062209F1A8
:203D30000201684610F0B4FA99F80000DFF8C881C0F3801700F00F00012848D1062209F1B6
:203D5000080102A810F0A4FA99F800004FEAD01902A9484611F0ACF920B3D8F80000C07A93
:203D7000022818BF032852D105F10D0011F094F900284CD105F10D0102A811F095F90028A9
:203D900031D0D8F80000062202A90C3010F080FA707940F004007071062202A9E81D10F0E3
:203DB00077FA14E02878814511D10622691C02A80FF008FF58B12878717960F3820171719E
:203DD0000622D8F80000691C0C3010F061FA6946384611F06DF9002848D0294668460FF0CF
:203DF00088F80746FF2F6ED0D8F80010887A6743EC1948BB887C10F057FB804698F82E010B
:203E1000022811BF0328E95D00F0010081425AD108F5947506222946601C0FF0D3FE30B976
:203E30000622294635480FF0CDFE00284BD0012088F82E010622707940F0080070716946A8
:203E5000284610F025FA0DE03069EA5D611C001F11F026F9102836D030696A46E11D001F98
:203E70000BF06FFC06226946E01D2AE0D8F80010887A40BB887C10F017FB804698F82E0176
:203E9000022818BF03281ED16A46394628460BF0C7FAFF2817D044432C4404F10D0011F096
:203EB000FBF810B9607F01280DD188F82E710622707900F0F70040EAC7007071694608F5BB
:203ED000947010F0E5F931680A680020107105E0002010F04BF8862011F0DAF805B0BDE829
:203EF000F08300BF6F4F002070130020D04B00205C1F0020AC4B0020184F002058620100D0
:203F1000BB482DE9F84F0025BA4CB849056094F8E200002800F06581012800F02F81B64E67
:203F300002283CD0032840F05C8151F8250CD4F8B8100029A0F5C060C4F8D400B8BF494285
:203F50000028B8BF4042814226DA4FF08057D7F8A4014568B4F8BC0030214FF47F4208234E
:203F700000903046A847D7F8A4014568B4F8C00004214FF4F802122300903046A847D7F854
:203F9000A401B4F8D070456820214FF440620A2330460097A847012584F8D8501CE151F874
:203FB000258C10F0E1FB2F4600B901273946934F38680028FCD0B146012609F10409D9F823
:203FD0002CA03E6009B110F0D5FBCAF30720C4F8BC0010F0C9FBAA4600B9B2463B68002B4E
:203FF000FCD0D9F800B0BAF1000F3E6001D010F0C1FBCBF38440C4F8C00010F0B5FBAA46E1
:2040100000B9B2463B68002BFCD0D9F81C90BAF1000F3E6001D010F0ADFBC9F38120C4F8DE
:20403000D000B8F5C061C4F8B81000F09C8094F8D80068B9C4F8D410D4F8C000C4F8C8000D
:20405000D4F8BC70C4F8C470D4F8D030C4F8CC30D4F8D410D4F8BC30002954BF02206FF0BF
:20407000010004F1C802176801EB41014018411000EB917107EBA1001060D4F8C810C4F8CA
:20409000C43000291CDD1E293CDDD4F8CC0030B93429B4BF15391E21C4F8C81025E02A29D0
:2040B000BABFD4F8C8000B381E20C4F8C800D4F8C4003F28B4BF401C3F20C4F8C4001FE03A
:2040D000D4F8CC00032812D011F10B0FC6BFD4F8C8000B30301CC4F8C800D4F8C400002833
:2040F000C4BF401E051CC4F8C450032508E011F1150FC6BFD4F8C8001530301CC4F8C8007A
:20411000C4F8CC504FF08057D7F8A401B4F8C43030214FF47F424568374800930823A8475F
:20413000D7F8A40104214FF400321123456832480096A847B4F8C860D7F8A40104214FF4D1
:20415000F802122345682C480096A847D7F8A40120214FF440620A23B4F8CC6045682648C0
:204170000096A84701E084F8D85040F2FF50404502D8801C40452FD2082030E051F8251C61
:204190001F4F4BF2F5204843060A3868C0F3814001280CD11B480068006880470DF0A6FD00
:2041B00010F0EEFA3111C010484306EBE03694F8E50030B91448006820F07F40801946088F
:2041D00001E084F8E5501148310C0660012741600F4D8760287808B90B2000E0052084F828
:2041F000E40003F0F3FABDE8F88FC0462D400C402C500C40800C002000A00C4000800C40D4
:20421000B43F0050EC010010102009403C600C405A610100F0B5A34CA34D2778A34AA44835
:20423000A44BA5490D2F83B041F2064600F23081DFE817F036012E012E012E012E010E0031
:204250004E002E019600DA00DA000B010B0112019A494C881C80022C10602FD940F20440ED
:20427000241A29D0641E29D040F2FB30241A1CD00A3C012C19D940F6F630241A1ED0641E86
:204290001AD0641E012C19D9241F15D0641E15D0641E11D04FF47E70241A0FD0641E0BD0E6
:2042B000E41E09D0641E012C0DD8887B4E8025280CBF2720401E8873814845E000200FF0E9
:2042D00055FE852087E000200FF050FE842082E07C494C881C80022C106037D940F20440A3
:2042F000241A30D0641E31D040F2FB30241A23D00A3C012C20D940F6F630241A26D0641EE1
:2043100021D0641E012C21D9A41E13D0A41E1AD0641E1BD0641E16D0A41E0BD040F2F630D8
:20433000241A13D0641E0ED0E41E0CD0641E012C02D910E0644807E0887B4E8025280CBF18
:204350002720401E88736148106046E000200FF00DFE85203FE000200FF008FE84203AE09D
:204370005B498978FF295ED0106040F204461C20414358480068841C645A1C80A41B012C98
:20439000554B50D94FF47F76A41B17D00A3C012C17D940F6F636A41B17D0A41E012C84BFC9
:2043B000E41E012C11D9A41E012C79D940F2FD36A41B0AD0641E012C03D908E041F20244A9
:2043D00001E04FF4A054801C4452136005E000200FF0CCFD852010F05BFE287803B0BDE84D
:2043F000F040012106F0BCBF4888188040F20442801A55D040F6FC72801A15D008384FD0C9
:204410004FF47F72801A22D1344C354A2568354800680023CDE9002355F8086F324B0222F9
:20443000B04732490880F7BD092F10D130490A68508960B12F4908780BF00CFE0021002092
:2044500010F022FE00202070F7BD4888188000200FF08CFD85201FE04888188002280DD99C
:2044700040F20442801A1BD040F6FC72801A05D0083815D04FF47F72801AE8D1887B801CD1
:20449000C0B2B528A8BF6620887300204880F7BD00200FF06BFD8420BDE8FE4010F0F8BD76
:2044B000F7BD00BF6F4F00206E4F0020204F002067490100504F0020D01E00209C4C0020A9
:2044D00085D500006C4C00200D3100001DDC0000684E0020541F00209D7F0000F04E002080
:2044F00002000080EC4E0020B1280100424F0020601F0020714F00202DE9F84FA54D8046B1
:2045100028680E464179012991461F4604D004200EF0E0F9012801D10C2039E19E48007819
:20453000092818BF0A2804D00B281CBF0C280D2801D121202CE143F6FD70A8F104018142BF
:204550003CBF311F814280F0D580B045C0F0D2805FEA090003D0B9F1010F6AD102E00A98E3
:20457000002866D0380018BF012F03D0022F18BF032F5ED10B980B990091002818BF012951
:2045900003D0022918BF032953D11199109881424FD30C9940F67B42891F91423EBF0D98FA
:2045B000801F904245D20D990C98814241D30E99B1F5FA7F3DDA0F980A3840F677429042BB
:2045D00037D20D9A0F98491C52005143B1EBC00F2FD20DF035FE012808BF3A201BD05FEA0F
:2045F000090004BF0A98002823D002F03DF9040008BF09200FD02968A07988743A46286871
:20461000A0F80680068180F80A9040200A9906F047FE08B10B20BBE004F1610120460DF05C
:20463000A9F804F12C06B07B012803DC20460EF01DF95FE029680B98DFF86081DFF860B1E2
:20465000DFF860A1C8720B9800281CBF0099012907D1C107286854BF5946414606220C3002
:204670002EE00AF10D0010F017FD78B10B98C10754BF594641460FF0ACFE00283AD00B98B5
:20469000C10754BF59464146062208E00AF107010AF10D0010F0F4FC06220AF10701286843
:2046B0000C300FF0F5FD0B990B9801F001018AF80010C10754BF5946414606220AF10100CC
:2046D0000FF0E6FDB9F1000F28D184F82E7104F594780A99062240460FF0DAFD022F18BFE7
:2046F000032F1BD10A9A07F0010150460AF098FEFF2801D112204BE01E2148430AEB0007AD
:2047100007F10D0010F0C8FC002804BF787F002804D10622244940460FF0BAFD10F0ACFC68
:20473000A0620FF03FF860620D98F0800F9870810E9830812868C17C317000200221B17099
:20475000B08010F095FC0C2290FBF2F20C2101FB1200401DF073042009F096FA296808604A
:2047700001204871A07901F0ADFD0B48017871B90E4A107810B10E480EF0F6FE2868807C30
:204790000DF0B2FD044906200870FEF793FE0020BDE8F28F184F00206F4F0020344E00209F
:2047B0002C4E00207013002058620100784E0020CC4700202DE9FE4F0F46994C0168E1628F
:2047D00041688068E0609748A16080479648E16A0160A168DFF870B24160E168DFF864821E
:2047F00081609249002FA246C16069D03D68E8788DF8080028798DF8090002A810F034FCE1
:20481000A86808B18A490160E86808B189490160894C2878207068786070A878BE68A07044
:204830003178E1707368636072696261B168A160F168E160316921612E697B68A662186860
:20485000A0616869E062A8692063287F84F834002A6AA263786886681EB900200FF086FB6B
:2048700000E026627868C06818B900200FF07EFB00E060627868406818B900200FF076FBC4
:2048900000E0E0612869A062F86881680E6806B96B4E6A494FF001094E60C66881F801903B
:2048B0002EB900200FF062FBF868454601E045462E6000685C46FE68A0617068E06106E030
:2048D00000200FF053FB4FF001095C46454628685E494668621C04F114035020B04710B14E
:2048F000286880688047DAF808008047594F0026834669467E7056483E700422206130462B
:204910000EF01AF90098B0F5801F0CD020B90EF0EFFC04F0D3FC08E00CF020FE0FF0ECFD4F
:204930000420788001E00EF0E3FC4B4FB0462868C7F808808069A660804778604748468043
:2049500080F8009014200FF095FEFF211422A06210F046F8E01CFF21022210F041F8142036
:204970000FF088FE3E49086008681422314610F037F83046FCF71EF848460DF0F9FF3948E4
:204990000188FF2906D1022101807822001D314610F026F8032010F063FB042010F05CFB93
:2049B000052010F055FB062010F04EFB07200BF0BDF92D4E0820307006F1400010F040FB76
:2049D0000BF050FC363605200A2132460FF0B5F938B14046C0F10901401C06F8011B0A28CD
:2049F000F8DB2F68214909200DF10A0201AB7D68087010204146A847A06ADAF80C10E269AE
:204A10000A270A309DF80A307F1E00F8013BF9D1921E5846E261884702F0BCFABDE8FE8F77
:204A3000940D002041490010F8440020C05101007531010081410100D00F00209012002072
:204A5000CFE200004413002004110020D53801007142010040130020241F0020C408002065
:204A7000741F0020C00E0020000B0020881F0020FEB51446A64DA84A03460026A3F58063B7
:204A9000192B1BD8DFE813F03A0133012B0123011A0115010D010701FC00F000E800E0004B
:204AB000CE00C2001A00B80096008000790064005B00510047003A0030002500282880F24D
:204AD0009980022940F09680218810F0B5FA06461CE1012940F019812178284641750121C8
:204AF00001750FF0F5FC11E1012940F00E81002C00F00B8128461330024614E0102940F067
:204B10000481002C00F0018128465C30102221460FF0BEFBFAE0012940F0F780002C00F050
:204B3000F4802A46921D1046B9E0262940F0ED80002C00F0EA80284626226C30E7E7012927
:204B500040F0E380002C00F0E0802846401DA6E0602900D144B9012940F0D780002C00F0C1
:204B7000D48028460D309AE005F19200214660220FF08EFB01206873C8E0012940F0C58070
:204B9000207810F055FAC1E0012940F0BE802178022900F3BA80284600F10C02117021786D
:204BB000022918BF301C02D11021C172012010F03BFAABE0072940F0A880611C68460622A4
:204BD0000FF0FEF920786946324607F061F904460A2C0FDA10F024FA38B9204604F0DAFA19
:204BF0000EF03AFD0BF03EFB90E0284601212C3001558BE0022689E0012940F08680217895
:204C1000042980F2828028460E305EE001297CD12A462178D07B0028D17377D120780128B9
:204C300074D1DFE72846027B01296ED1022A04D02178072901DB102904DD022A65D121784B
:204C5000102962D1C17261E001295ED121780A295BDA2846093038E0012956D12178022936
:204C700053DA2846083030E000294ED110F0D8F910B90FF0CFFBB3E728460121103024E028
:204C9000042942D12168234888423ED32B4603F11C0001603AE0012937D128460A30217886
:204CB00013E0012931D1217802292EDA2846C01D0BE0102929D128464C3027E7012924D179
:204CD0002178022921DA2846001D01701EE001291BD12178042918DC2846C01CF5E70129EB
:204CF00013D12178022910DA2846801CEDE702290BD1218810461530018007E0012904D182
:204D100021780229D8BF101CDFDD18263046FEBD000B00203F420F00010B00202DE9F04F95
:204D30000C46E00789B00BD50FF084FC28B1002181608448006800B1804784F00100FDE0B9
:204D50002007814D40F1868080480168887C0FF0ABFB064606F5947096F82EA107904FF0BF
:204D700000087A4801688A7CC146FF2A04BF00200FF0FCF8079A514628460AF051FB0746AB
:204D90001E207843009005EB000B0799504610F08FF9A8B1FF2F2CD00098285C40F0020AE6
:204DB0000BF10100079006220AF0010086F82E0106F5947007990FF06BFA0BF1070818E079
:204DD000079950460FF005FB002818BFFF2F10D00BF10D0010F060F948B90BF10D0010F015
:204DF0005BF9002804BF9BF81D00012801D14AF0020A56490868C07A022818BF032806D127
:204E100005F10D0010F048F908B905F10709002006905346F08E000905900022B18E049116
:204E3000708E0799009140080390CDF80880CDF804900020B17910F0EFF8D6F89C01444989
:204E50008842B0790CBF0021012108F00BFB84F0080073E0E00610D50020069000210022B0
:204E70000023029005910492039301910092022010F0D2F884F0100060E0E00413D5E91D05
:204E900005F10D0010F0FCF832484268324800784FF480510CF0C8FB10B18E2010F0B8F803
:204EB00084F480504AE0A00505D50FF05DFC2B4901200860FEE7610504D504F09CFE84F472
:204ED00080603BE0600405D5812010F0A1F884F4804033E0A00430D5214D286810B100207C
:204EF0000FF044F84FF0FF3028600AF01DFD1D4D296851F8202F684690471B48C16A026B4A
:204F10002D68009101920021029100F134014A6809781368806A03938DF81010ADF8120064
:204F30006B462E68114A12491248B0471249086003F0A6F984F4005000E0002009B0BDE898
:204F5000F08F00BF204F002070130020184F002051FE0000784E00206E4F0020FC002043D9
:204F7000044F0020F04E0020D00F0020901E0020F811002088490020EC4E002010B50B78C7
:204F900084074CBF43F0020303F0FD0304064CBF43F0800303F07F0304074CBF43F00803AC
:204FB00003F0F70384064CBF43F0200303F0DF0310F0AA0F0B7004D0107840F00C001070E8
:204FD00010BD18B9117801F0F301117010BDF8B50F4600263878022814461D4669D178688E
:204FF00001784278069801EB022189B2002818BFB1F5285F01D00B20F2BD4FF42850091AD1
:205010000CD0491E20D0491E4DD0491E24D0491E2AD0A23947D0233941D04AE0F8680FF025
:20503000E1FC069B079980B2C21A8A42ACBF0846C01A80B2C118162904DA28800246F8685D
:20505000C1180DE00D2636E0F8680088022129802070000A60702EE0062028800622F968AE
:2050700020460FF015F926E0F868B0B108212980018821700188090A61704188A1704188EA
:20509000090AE170818821718188090A6171C188A171C088000AE0710DE029800BE04B4801
:2050B0000178CA0705D401202880F8680178217001E02E8001263046F2BD2DE9F8460E4607
:2050D000814630780024022817469A467AD17068017842783D4D01EB022189B24FF42850E1
:2050F000091A0AD0491E32D0491E57D0491E41D0A33965D0233960D064E0F0680FF072FC8E
:20511000089980B2884206D308460AEB0001162903DB0D2457E0072455E0F368524639466E
:2051300018440FF0B5F808985044ADF8200000210898F368C0F1160218440FF051FC686801
:2051500000281CBF0268002A3DD0002123E0089888BBBAF1020FDCD139787878F26801EB44
:2051700000211180686800281CBF0268002A2AD0012110E00898F0B9BAF1060FC9D1F068FF
:20519000062239460FF084F8686800281CBF0268002A18D003214846904714E0089850B968
:2051B000BAF1010FB5D13878002813BF0128F1680870802407E00B2405E02878C10701D41E
:2051D000032400E001242046BDE8F286C01200202DE9F04F8246DAF800600C465FEA02082A
:2051F000ADF11C0D14BF00214FF0FF3106F1480083460FF0BCF9002818BF0B2040F00681D8
:20521000002565708448F460B8F1010F057004D065700220F4600DF0EFFC2078012840F23C
:20523000AB80801E012868D9801E012833D9801E012800F2DF800FF0ABFB06904FF08050F6
:2052500000F5EE77D0F8DC01A378466A009321782846062908BF0120019001200290A06877
:20527000228AE1686368B047814606980FF024FFB9F1000F40F0C080B8F1000F02D00EF02F
:20529000D7FF02E050460EF097F9002800F0A4803868806A2AE00FF07BFB06904FF0805038
:2052B00000F5EE77D0F8DC01012306680093A168A27860682478AC46042C08BF9C466346BF
:2052D000B047814606980FF0F7FEB9F1000F40F09380B8F1000F02D00EF0AAFF02E05046C9
:2052F0000EF06AF9002877D03868406880474949C1F8B0510D6081467EE00FF049FB069008
:205310004FF0805000F5EE76D0F8DC01E38A87690093E0680190208B0290A0780390207D22
:2053300004900121059122782846022A08BF081CE1786268A368B847814606980FF0BCFEA7
:20535000B9F1000F58D1B8F1000F02D00EF070FF02E050460EF030F900283DD03068006A8E
:2053700080475FEA000947D13068C569A168E28A2369E078A847BEE70FF00AFB06904FF060
:20539000805000F5EE76D0F8DC01E38AC7680093E0680190208B0290A0780390207D294633
:2053B000049001200590257805B9014608466268A368E178B847814606980FF07DFEB9F1ED
:2053D000000F19D1B8F1000F02D00EF031FF02E050460EF0F1F808B9142017E03068406980
:2053F00080475FEA000907D1306802692169E078904780E74FF0FF39B8F1010F02D0022065
:205410000DF0B2F958460FF0D7FA484607B0BDE8F08FC04650450240871F00202DE9FE4FF7
:2054300005467E48002400680094C0090ED37C48007858B97C497B4851F8112C104040F0A6
:20545000817041F8110C20200CF0CCF8012D40F0E080DFF80092D9F8DC00012840F0D68072
:205470000220C9F8DC000EF00DFB01200CF0BAF85FEA000805D00120C9F8DC000EF012FB99
:20549000C9E00FF09BFAA34602906848684DC0F800B0A86A016801208847012804D1584670
:2054B00009F0B2FC012000906248634FC0F800B0386811200FF070F900B1012410200FF082
:2054D0006BF908B144F002040F200FF065F908B144F004040B200FF05FF920B12868574E5C
:2054F000016B308888470A200FF056F920B12868534E016B30888847524801260660286885
:20551000816944F0200088474F4806600FF03EF900F001010191400814D2286A81684B487B
:2055300088478246BAF1040FF7D0BAF1010F04D1286A42684548032190474549086820F0DD
:2055500003000860584600F099F92B683868986B8047019801280CD0BAF1010F04D1286AF3
:2055700042683A48314690473949086840F0030008603048066028684169204688470B209C
:205590000FF00AF920B128682C4BC16A188888470A200FF001F920B12868294BC16A1888C4
:2055B0008847284806600322C9F8DC20264BC3F800B02868416B204688470128F9D1386874
:2055D00004200CF00FF80446184806603868134800688009FBD30098012802D1304609F0C7
:2055F00013FC0FF0C7F808200BF0FCFF07460298C9F8DC600FF008FD09F078FF0EF052FA0E
:2056100057EA040018BF4FF0FF3804E06FF0040801E06FF001084046BDE8FE8F141009402B
:20563000680D0020FFFFFCFC150009400C400940B8010010000222432C200940F05D0100C9
:20565000EC5D010028200860800104430040034024220840800C00202DE9F04F94460E1C62
:2056700004461F46ADF14C0D4DD07548357801684FF0010B0BFA05F0014244D0BCF1000F2C
:20569000666040D0BCF80000B0F5C15F2FD1DCF81400DCF818606B4BDCF81C50DFF8A89171
:2056B0000E904FF0030E0DF134080F9618681095C0F3036A58F8046FB6B10021331F052006
:2056D0000A4653F8045FA94506D0401E01F1040102F10102F5D107E0052A05DA705820F416
:2056F000702040EA0A407050BEF1010EE2D1C4F808C00FF04DF911905F48801C007820B16F
:2057100011980FF0D9FC002096E003F0A9F94F4908680DF1280A40F00200086050460EF06B
:2057300079FF4FF005084A4E4A49CDF83080524606F1D0000CF070FB50460EF03AFF00253D
:205750004FF0FF0919218DF83050434ACDF82C90534606F174000CF0AFF850460EF05AFF11
:205770003E49CDF83080524606F582700CF054FB50460EF01EFF8DF830B0394ACDF82C9033
:2057900006F190001A2153460CF096F835492A4606F1AC0013460BF0FDFB33480EF0CCFFF3
:2057B000324A2B46042106F148000DF079FE4FF6FF70A6F8700086F805B086F87350357138
:2057D000B571F571357275727561B378B572581CB0701198F5720FF06FFC1FB903AF384661
:2057F0000EF04EFE386820607868E060387C84F811B02074788A60821D4EA6616661F8680D
:2058100000B1A061B86800B160612946782204F1200008F02BFC04F1380029460DF08CFCD6
:2058300068460FF089F81349029404F170002A466B460BF0AFFB204613B0BDE8F08FC046BA
:20585000D4210840541300500200F84400200940C8080020D14201006938010005DF000013
:205870002106010075460100F99D0000B10C0100E7CA00006D490100C80800202DE9F84F2B
:20589000DFF804B20746ABF13500DFF8F0810068800880F0E28075480068006880477E4928
:2058B0000831D1F8009000254FEA29715FEA995201F101010AD2C0F13E0210F10A0F4FEA06
:2058D000E202D8BF08229142B8BF111C684BD3F87C21C2F30462162AA8BF203A1B68C3F32C
:2058F0000443162BA8BF203B9A465218162A05DA12F10A0FB8BF6FF0090200E015225D4B29
:205910005D4E02F01F0141F4F8511980316811F0030F18BF0125C90828BF45F002050FB146
:2059300045F00405434693F90710411A052904DA9979A94208BF99886FD0DFF844E10F282F
:20595000A0F10F0829DB08EB0011A1F1F0084FEA28210091072984BF07210091062988BF48
:2059700006215EF821600424774604EB81043C594FEA950CA41BEE0804F0FF0124BFC4F30E
:20599000072631446F08AE0824BFC4F3074631446E0828BF01EB146104E000214FEA950C2F
:2059B0006F080091009C5EF824E05FEA5C060EF0FF0424BFCEF3072634447E0824BFCEF3BA
:2059D000074634446E0828BF04EB1E64009E89B2A8EB06267143803104EB1124AAEB02016B
:2059F0000029D8BF0121342209F0FF074A4391B24FF6FF727943B1FBF4F18A4238BF111C9D
:205A1000802889B2998005DA10F1800FB8BF6FF07F0000E07F20D8719D711A4800681F29CE
:205A300018604FF0000008D340F2FF128A4206D24908401C8A42FBD301E01F219980134FFA
:205A50000F39090940EAC10047EA0001CBF8FB1F0026CBF8FF6FBDE8F88F0D490D4F434624
:205A700008200F609B1D1870BDE8F88FEC0100103C1100506E620840242208404C1F002048
:205A90009C130050082009403500094000E7A48030100940FDFDA400AC3F00502DE9F04154
:205AB0000C4684B00746207A0026C10690461D460BD540460FF0A4FA030000F0F0800A22B1
:205AD000214638469847060050D1207802281AD160680178427801EB022189B24FF4205026
:205AF000091A012910D9891E41D0491E16D0FD3905D0491E00F08B80491E74D0491E7BD091
:205B1000491E00F0A180B8E00B98002831D1E0680A9A017811800278416891E00B98002843
:205B300027D10A9801210180E0680178297000216089401C80B20FF05FFA0A99098868B181
:205B500002780A9B921C51181980418969704189090AA97002784168E81C72E00A98091D8C
:205B7000018004220021681C0EF03AFF98E00B9800286BD1E06807880A98042101802F7055
:205B9000380A68700DF1020138460FF035FA04001FD0E768BDF802204FF6FF786B46414621
:205BB0000FF0B2FA40B9237862683F4802210FF01FFA08B9ADF80080387802280BD179688D
:205BD0000222281D0EF064FB0A980188891C018001E0ADF80070BDF80000A870BDF8000026
:205BF000000AE8705CE00B9800282FD1E068016838460EF0D6FC03E00B9838BBE0680088E4
:205C10000A9A022111802870000A687048E0E0680EF0E8FE0B9B80B29842B8BF07263FDBDE
:205C3000834208BF002006D00C99C9188142B2BF0C98C01A80B20A9908800246E068C118D4
:205C500028460EF025FB2BE00B9808B10B2627E00A9AE0680721118002782A7041786970BE
:205C70004188A9704188090AE97001792971C1886971C088000AA87112E040460FF0B4F937
:205C900006000CD00D980C990A9B029001912A460B98009021463846B047064600E00E2620
:205CB000304604B0BDE8F081946201002DE9FE4F7D4C617811B900200EF058F90FF004FA62
:205CD0008146002709F6C4190026784DDFF8E0810EE030460EF0E8FB417939B12968827952
:205CF000CA5549467F1C00F0E7F8FFB2761CF6B298F800008642ECDB009761788F4205D05C
:205D100000200EF033F982200FF0C2F96078012840F0A380002601E0761CF6B298F80000A8
:205D3000864280F2948030460EF0BEFB074678790028F1D02868B979027891421CBF0020A7
:205D50000EF014F9B87980E0286810F809000EF0ABFB00684268DAF808109068814204BFD8
:205D7000B84609F1010900F088808BE0296891F800B04FF0010910E0626811F8093002F5A8
:205D9000B17208FB03F708FB0BFED75B32F80E20974238BF9B4609F10109C0B28145EBDB8A
:205DB0004FF6FF7008F090FC074658460EF07CFB40F6C4190068416800967808029109FB6A
:205DD00000FA0026019715E058460EF06DFB01680A78802A04BF7B69C3F814A0097840296D
:205DF00007D1344A8079136803EB40110AF5A062CA61761C0098864253DA2868805D83450A
:205E1000F7D0636808FB00F2991803F5B173C9899A5A4B08934203D2009B891A8B42E8DA0E
:205E30000EF042FB00684768029A0198B968936800EBD0704010A1F6C41109FB00300FF095
:205E50003FF90028C0D02868805DBDE8FE8F00200EF08CF882200FF01BF96178286809F0EA
:205E7000ACFA286800780EF01FFB0168009ED1F804A04FF000084FF00109B14508F1010751
:205E9000FFF662AF4046C0B200281EBF3846C1B200294FF4D0787FF469AF286890F800B0F7
:205EB0007EE75846D1E700BF684E0020004F00207B4F0020581F00202DE9F24F054682B0BE
:205ED0002868D0F804B0DBF808000FF0F9F8002840F0E4802968029809690FF081F805F114
:205EF000820480462078002805F12E0740F6C4196BD0298960880FF06FF882462078022883
:205F100006BF05F59A710E8EBE8806FB0AF609FB06F00090286801690098411802980FF0B6
:205F3000CFF800284BD000982189A8EB000009FB01F2B0FBF2F302FB130000B15B1C288902
:205F500082449A44A5F80AA05943E088861920788E1901284BD105F1860128460DF0C2FD78
:205F700060896989688400202877E883E8894118A9812289B988A0898A4204BF39898842FC
:205F900002BF6189FB88994207D0000900906389A979520800200FF01BF8B88805F59A7199
:205FB0000886207938702089B8806089F880A089388128460DF078FF0220207017E02078BB
:205FD00001281CBF00200DF0D1FFB88809FB00F0B8FBF0F100FB11888EB2B8F1000F2889BB
:205FF0001CBF761CB6B230186881B88846432968314A086909FB0600CBF808000B78802B42
:206010000DD1C860D2F83080BB88D8F8000009FB03F31B1ADBF81400A3F516734361087882
:20603000402833D1AE614FF4C873688A4643B6FBF3F0401C6861DBF80830181ACBF808001B
:206050006B69D5F8340100EB4300DBF8143058611A4823780068022B0CD1AB795B0100F17C
:20607000140454F803803C7809FB048800F1140444F80380AB79126B00EB4313B88809FBF7
:2060900000F41068201AA0F51670D861DBF808208A60F87AB87228460BF0AEFD6989A8893E
:2060B0000EF09AFFE989814205F59A7138BF0120C885BDE8F78F00BFFC610100581F0020BB
:2060D000F8B57E4F04463868C16E0025002940F0F18010200EF0CEFA39680028C86600F051
:2060F000E7808E6E102221460EF0D2F839680878002840F08E80CA6ED6F8980012F80CCFC2
:2061100000F001030CF0010C634518BF0023400843EA4000C6F89800C0F34003D2F800C045
:20613000CCF3400C634506BF430803F00103002320F0020040EA4300C6F89800C0F3800367
:20615000D2F800C0CCF3800C634506BF830803F00103002320F0040040EA8300C6F8980031
:20617000C0F3C003D2F800C0CCF3C00C634506BFC30803F00103002320F0080040EAC3002D
:20619000C6F89800C0F30023D2F800C0CCF3002C634506BF030A03F00103002320F48070B6
:2061B00040EA0320C6F89800C0F34023D2F800C0CCF3402C634506BF430A03F0010300238D
:2061D00020F4007040EA4320C6F89800C0F38023D2F800C0CCF3802C634506BF830A03F010
:2061F0000103002320F4806040EA8320C6F89800C0F3C0231268C2F3C022934206BFC20A44
:2062100002F00102002220F4006040EAC220C6F898008A6E92F89500030718D5C86E436892
:20623000C3F3C00098B1C87840F00800C870D6F8981023480140C6F898103868C06EC16860
:2062500021F48071C16049084900C16003E092F8330001282AD0607800281CBF717800299C
:2062700008D13968CA78130708D5002804BF7078002803D03A68052111711CE06068C0F3CC
:20629000800040B996F8950010F0040002D10120087110E00AD00878002819BF3078217856
:2062B000317820780EF090FE054604E0182502E0132500E011252846F2BD00BF304F0020EA
:2062D000FEFEFFFF2DE9F0410EF0EEF805466C4CDFF8B0816C4E6D4F41F6080020802520E4
:2062F000A0730020E073608060600EF0EDFE00F51C404030A060D8F80010CA880989207B5F
:2063100026618A420EBF00F0700000F0F00040F0820020736761607B00F0F00040F0010014
:2063300060730CF035FF30605948006A0078C1074CBF1021002182074CBF202200224307D0
:206350004CBF4023002300074CBF8020002011431943014341F00F013171002070710023CF
:20637000D8F80010887A00F0010040F002007071CA7A920002F004021043707195F82E2149
:20639000D20002F0080242F01002104370711620F0716A6A3F480260AA6A0271AA6A120A9C
:2063B0004271AA6AC371120C827103810222C27105F12C02D3884381138983815389C381E3
:2063D00005F1610393F800C080F810C093F801C080F811C093F802C080F812C093F803C046
:2063F00080F813C01B7903751378D27B02F01F0242EA43124275B06001F10C00F060887AB3
:2064100000280CBF05F5947023483061B07E00F0E00040F08400B07640F6C4100A89424385
:20643000F07EF26100F0E00040F08100F076002030621A4A107850B1C97A022907D118485F
:206450000EF02AFE18B9707940F00400707115498A78707951064CBF40F0200000F0DF006D
:2064700070710020387078707880B880B871F871B860D8F8000001684C60BDE8F08100BFE7
:206490006C4C0020184F0020AC4B0020D44D0020FC610100844C0020D0470020784E0020CA
:2064B0007D130020EC1E00202DE9F843724CA178FF2904BF00200DF059FDA0780DF0F4FF64
:2064D000044604F5C9752089411C61812978012902BF6A88401C824207D16A792A7100202F
:2064F00028701346A17905F0BBFE04F1820704F12E083878012802BF61897888814237D1DB
:2065100004F1860120460DF0EDFA6189E0894118A181B8F80400FE883A89B9893618824286
:2065300004BFB8F80800814202BF7889B8F80630984207D00909009152087B89A179002079
:206550000EF046FDB8F80400A4F864013889A8F804007889A8F80600B889A8F8080038798F
:2065700088F8000020460DF09FFC0220387001E0B8F804602068C168016140F6C417C16881
:2065900007FB0616C66086604FF01C093B4EA3793168C06801F1080209FB03F3D05001F1EF
:2065B0000C02A07909FB00F00C31125C02F0F00242F002020A543068A279811C09FB02F245
:2065D00000208852287908B90DF0D0FC3068A27900F11001287909FB02F240088854A079FB
:2065F000316809FB00F00844002141742879042812D1A079316809FB00F001F110022B7ADD
:20661000125C103142EA83020A54A179306809FB01F1084420214174A179306809FB01F11A
:20663000084400214182164816490268A0790D6B02EB4013B8F80400474328683F1AA7F55F
:2066500016775F61A37902EB43100F4A1578012D02D10121C17202E0896A0A78C272A179A0
:20667000306809FB01F108442168486020460BF0C3FA0020BDE8F283684E0020541F00203E
:20669000581F0020FC610100734F00202DE9F04F6C4CE2680746880FADF1140DC0F0CF801A
:2066B0005068406808B18047E2685168664E886808B9CD6875B13568002DFCD000223260DD
:2066D00010B18047E0684168C86800B180475F480CF0DAFC4FF00008C6F800805C4846F8A9
:2066F0001C0C5C480EF028F840F60A09A4F834902379A4F83680BD6894F84000C34604F11A
:20671000340A00F0F00084F84000012BC4F838B094F84100A5F8028000F0F00040F00100C2
:2067300084F8410001D17B7CABB1B8680088A9F10801814208D0B0F5C15F05D0298B4FF6EE
:206750000F400840288304E0298A4FF60F400840288287F811804048016883680193C3681F
:20677000406B00911022694620F0784040F0805003903A48029305F04DFF494600E01D4667
:206790006B6813B118888142F9D1C5F804A0687B00F0F000687304F120000EF009F9806829
